:020000040800F2
:10000000C08D0120C1010008072A0008791C0008E2
:10001000052A00080F0300086D31000800000000E9
:10002000000000000000000000000000B52B0008E8
:100030006103000800000000092A0008AD2E000836
:10004000DB010008DB010008DB010008DB01000820
:10005000DB010008DB010008DB010008DB01000810
:10006000DB010008DB010008DB010008DB01000800
:10007000DB010008DB010008DB010008DB010008F0
:10008000DB010008DB010008DB010008DB010008E0
:10009000DB010008DB010008DB010008DB010008D0
:1000A000DB010008DB010008DB010008DB010008C0
:1000B000DB010008DB010008DB010008DB010008B0
:1000C000DB010008DB010008DB010008DB010008A0
:1000D000DB010008DB010008DB010008DB01000890
:1000E000DB010008DB010008DB010008DB01000880
:1000F000DB010008DB010008DB010008DB01000870
:10010000DB010008DB010008DB010008DB0100085F
:10011000DB010008DB010008DB010008DB0100084F
:10012000DB010008DB010008DB010008DB0100083F
:10013000DB010008DB010008DB010008DB0100082F
:10014000DB010008DB010008DB010008DB0100081F
:10015000DB010008DB010008DB010008DB0100080F
:10016000DB010008DB010008DB010008DB010008FF
:10017000DB010008DB010008DB01000800000000D3
:10018000DB010008DB010008DB010008DB010008DF
:10019000DB010008DB010008DB010008DB010008CF
:1001A000DB010008DB010008DB010008DFF80CD0F0
:1001B00000F08CF800480047F5360008C08D01209B
:1001C0000648804706480047FEE7FEE7FEE7FEE7F1
:1001D000FEE7FEE7FEE7FEE7FEE7FEE7252F000865
:1001E000AD0100082DE9F05F0546002092469B46D0
:1001F00088460646814640241BE02846414647463D
:10020000224600F053F853465A46C01A914110D383
:1002100011461846224600F03AF82D1A67EB0108FD
:100220004F4622460120002100F031F817EB00096B
:100230004E41201EA4F10104DFDC484631462A4627
:100240004346BDE8F09F40EA01039B0703D009E065
:1002500008C9121F08C0042AFAD203E011F8013BB2
:1002600000F8013B521EF9D27047D2B201E000F80B
:10027000012B491EFBD270470022F6E710B513464A
:100280000A4604461946FFF7F0FF204610BD202A13
:1002900004DB203A00FA02F1002070479140C2F1DD
:1002A000200320FA03F3194390407047202A04DB0F
:1002B000203A21FA02F00021704721FA02F3D040DF
:1002C000C2F120029140084319467047064C074D81
:1002D00006E0E06840F0010394E807009847103416
:1002E000AC42F6D3FFF766FFD03D0008F03D0008B2
:1002F000020E0A70020C4A70020A8A70C8707047B7
:100300000168C07809BA21F0FF0108437047FEE791
:1003100030B504460020651804E000BF14F8011B46
:1003200002F0D4FEAC42F9D3002102F0CFFEBDE8CA
:100330003040002102F0CABE30B54FF0FF3300223A
:10034000064C07E0855C5D40EDB2521C54F8255028
:1003500085EA13238A42F5D3D84330BD00800120BB
:1003600070477047002229B101291DD002291ED0F3
:100370004FF440720B2800D9001D0E490B6823F47E
:1003800040730B600B6813430B600A6822F0F8029D
:100390000A600A68022303EBC00002430A6008688F
:1003A00040F48030086070474FF48072E2E74FF409
:1003B0000072DFE7103C02401348016889050FD541
:1003C000016821F400710160016841F4006101607D
:1003D000016821F400610160016841F4007101606D
:1003E000016849050FD5016821F480610160016849
:1003F00041F480510160016821F48051016001687D
:1004000041F4806101607047003C024030B587B024
:10041000002504460595182810D800F077FA012029
:10042000CDE90104039002200490009505A96846D7
:1004300000F098F9044600F003FA14B1012007B067
:1004400030BD0020FBE710B586B0044600200590C3
:10045000601E02280ED200F059FA0120CDE90004F6
:100460000220049005A9684600F07CF9044600F0DB
:10047000E7F914B1012006B010BD0020FBE770B50C
:10048000054600F043FA044600F0EEF9044328461E
:1004900000F0B6F900F0DEF9044300F0D1F9204392
:1004A00000D0042070BD000010B500F02FFA034901
:1004B00091200860BDE8104000F0C2B90C3C024039
:1004C0002DE9F0470026174689460546344600F0D8
:1004D0001DFADFF83C8012E059F824200023294659
:1004E000022000F0D5F908B103260CE059F82400E9
:1004F0002968814201D0022605E0641C2D1DBC4202
:1005000001D24545E8D900F09BF93046BDE8F087B7
:10051000F8FF1F080E4A136823F440731360032981
:100520000DD0012911680FD041F40041116011680C
:100530004FF4803343EA0020014311607047116893
:1005400048F204031943F1E741F00401EEE700002B
:10055000103C0240064A136823F44073136013688A
:100560001360136843F001031360017070470000CB
:10057000103C0240094910B50C6824F440740C602A
:100580000C6844F440740C600C6844F001040C6086
:100590000260BFF36F8F436010BD0000103C02404B
:1005A000074A136823F440731360136843F480739D
:1005B0001360136843F0010313600180704700006B
:1005C000103C0240074A136823F440731360136819
:1005D00043F400731360136843F001031360016078
:1005E00070470000103C02401C490868C2061C48C5
:1005F00005D5C26942F01002C26110220A600A6881
:10060000920605D5C26942F00802C26120220A6042
:100610000A68520605D5C26942F00402C26140224E
:100620000A600A68120605D5C26942F00202C26178
:1006300080220A600A68D20506D5C26942F001022A
:10064000C2614FF480720A600A68920705D5C269D8
:1006500042F02002C2610220086070470C3C024058
:10066000A089012070B5114904460020C86100F03E
:1006700057FA06460E4D09E0601C07D024B100F081
:100680004FFA801BA04201D9032070BD2868C00327
:10069000F2D42868C00701D001202860286810F42F
:1006A000F970F2D0FFF7A0FF012070BDA0890120F2
:1006B0000C3C02403EB504460C236A4643F220013E
:1006C000A02001F0C1FC05000CD16846FFF718FE20
:1006D000206001A8FFF714FEA06002A8FFF710FE3B
:1006E000606028463EBD30B587B0044616236A4692
:1006F0004FF44051A02001F0A7FC05001ED1684630
:10070000FFF7FEFD20609DF8040020719DF80500B4
:1007100060710DF10600FFF7F3FDA0600DF10A0016
:10072000FFF7EEFDE0600DF10E00FFF7E9FD20613F
:100730000DF11200FFF7E4FD6061284607B030BDFF
:1007400070B5044600F0ECF90546601C02D0044880
:100750000078044400F0E4F9401BA042FAD370BDD5
:10076000088401202DE9F047044623480F46017E06
:1007700001290AD00121804601764CF250394846C1
:10078000FFF770FF020003D030E00220BDE8F087E1
:100790004FF0FF3038602068184D012801D0A6685E
:1007A0001DE0207C6168FFF7B5FE4846FFF75AFF61
:1007B0000246286848F204018843286014E0217C3E
:1007C0003046FFF7CFFD4846FFF74CFF0200286890
:1007D00020F0FA00286001D03E6005E0761CD4E9E4
:1007E00002100844B042EAD8FFF7E6FD002188F87D
:1007F00018101046CAE70000A0890120103C0240F2
:100800000F2101600D49098881600C4AAA21521EFE
:100810001378CC2B0FD01278AA2A00D05521016171
:100820000649891E0A6802F0E0020276097801F0A2
:100830000C0141617047CC21F1E70000163C0240F9
:100840000348016841F0004101600020704700004A
:10085000103C02400348016841F0010101600020A2
:1008600070470000143C024006480068C00707D0EB
:10087000044805490C3801600449016000207047B4
:1008800001207047143C02403B2A19087F6E5D4CE2
:100890002DE9F0471B4E05461446307E1F4689461B
:1008A000012808D0012030764CF250384046FFF73E
:1008B000D9FE18B114E00220BDE8F0879DB1012DEA
:1008C00016D0022D19D022463B464846FFF752FE6D
:1008D0004046FFF7C7FE0C490A6822F001020A6091
:1008E00000213176E8E7E1B24846FFF733FEEFE753
:1008F000A1B24846FFF754FEEAE721464846FFF713
:1009000061FEE5E7A0890120103C02400749002074
:100910000A68002A09DA054A054B0C3A1360054BB0
:1009200013600968002900DA01207047103C02407A
:1009300023016745AB89EFCD2DE9F84F00224FF039
:10094000010803254FF00F0E0B6808FA02F423404C
:10095000A3426ED14E68012E05D0022E03D0112E77
:1009600001D0122E12D186684FEA420C05FA0CF71C
:10097000BE43CF6807FA0CF7374387604668A64343
:100980000C79C4F30014944034434460C6685700A3
:1009900005FA07FC8C6826EA0C06BC403443C460A8
:1009A0004C68022C01D0122C13D1D40800EB840423
:1009B000A346D4F8209054074FEAD46A0EFA0AF6F8
:1009C00029EA06090E6906FA0AF646EA0906CBF88C
:1009D000206004680E7924EA0C0406F00306BE4089
:1009E000264306604C68E4006FD53B4C266846F40D
:1009F00080462660246822F0030604F480440094B4
:100A0000364C3444A446D4F808489607360F0EFAFC
:100A100006F7BC43324FB84201D100272EE0314FD8
:100A2000B84201D1012729E02F4FB84202D1022755
:100A300024E04AE02D4FB84201D103271EE02C4F9D
:100A4000B84201D1042719E02A4FB84201D1052745
:100A500014E0294FB84201D106270FE0274FB842D2
:100A600001D107270AE0264FB84201D1082705E047
:100A7000244FB84201D1092700E00A27B740274395
:100A8000CCF80878204E34684F689C43FF0300D5AB
:100A90001C4334601C4E361D34684F689C43BF03B2
:100AA00000D51C433460184E083634684F689C43A8
:100AB000FF0200D51C433460134E0C3634684F6877
:100AC0009C43BF0200D51C433460521C102AFFF423
:100AD0003BAFBDE8F88F00004438024000300140D1
:100AE000000002400004024000080240000C0240E6
:100AF000001002400014024000180240001C024096
:100B00000020024000240240003C014000690840EF
:100B100000D0012070470AB1816170470904FBE7EA
:100B200001488068704700000884012090F83D204B
:100B3000202A01D002207047242280F83D2002683C
:100B4000136823F0010313600268536A23F0100353
:100B500053620268536A0B43536201680A6842F0A9
:100B600001020A60202180F83D100020704790F8B3
:100B70003D20202A01D002207047242280F83D2009
:100B80000268136823F00103136003685A6A22F0B5
:100B90000F020A4391B2596201680A6842F00102E9
:100BA0000A60202180F83D100020704770B50400D5
:100BB00025D094F83D00002520B984F83C5020460B
:100BC00000F04CFA242084F83D002068016821F0F0
:100BD000010101602068016841F400410160206862
:100BE000016821F40041016000F0E0FB4D4A6168BA
:100BF000914201D84C4900E04C49884201D2012081
:100C000070BD4B492368B0FBF1F15E6826F03F06EA
:100C10000E435E606368934206D94FF4967359435E
:100C20004FF47A73B1FBF3F12368491C1E6A26F076
:100C30003F06314319626168914210D84900401E55
:100C4000B0FBF1F2521CC2F30B02042A01D20420C1
:100C500022E0B0FBF1F0401CC0F30B001CE0A268E6
:100C6000F2B301EBC10303EB0116431EB3FBF6F332
:100C70005B1C43F480431B0549D092B301EBC102D6
:100C800002EB0111401EB0FBF1F0401CC0F30B0061
:100C900040F4804040F400402168CA694CF6FF737C
:100CA0009A431043C861D4E90710014320680268E1
:100CB00022F0C00211430160D4E90301014320681E
:100CC000826848F2FF339A4311438160D4E90501F9
:100CD00008432168CA6822F0FF021043C86001E09F
:100CE0000EE016E02068016841F001010160256412
:100CF000202084F83D00256384F83E50002070BD1C
:100D000001EB4106431EB3FBF6F35B1CB3E7012086
:100D1000C2E701EB4101401EB0FBF1F0401CC0F303
:100D20000B00B7E7A086010080841E0000093D008B
:100D300040420F002DE9FF4F83B09A46DDE911973D
:100D400093460446DDF84080FFF7EAFE054694F836
:100D50003D00202870D119230122714920460095B9
:100D600001F09AF80028F5D194F83C00012863D0EE
:100D7000012084F83C0020680168C90703D101689C
:100D800041F0010101602068016821F40061016007
:100D9000222084F83D00402084F83E00002626648E
:100DA000C4F82480A4F82A90608D20855D48E06214
:100DB000CDE9007553465A462046049900F074FF69
:100DC00000287CD1208DD0B1012821D002282068B4
:100DD00024D0416980690090208D032869D80128BA
:100DE0002BD0514902283B464FF00002009559D0C4
:100DF0008846204601F050F8002860D13CE0206889
:100E0000416981690091016841F40071016077E0F6
:100E10002068016821F480610160F0E7016821F435
:100E2000806101602068016841F400610160206810
:100E300041698069009063E06FE02A4639462046A8
:100E400001F0A9F898BB20680069616A08704EE05B
:100E50002068016841F40071016020680069616ADE
:100E60000870606A401C6062218D491E2185618D79
:100E7000491E6185216838E02068016821F480619D
:100E8000016020680069616A0870606A401C6062E5
:100E9000208D401E2085608D401E60853B460022CF
:100EA00041460095204600F0F7FF00B9D0E706E084
:100EB000FFE72A463946204601F06DF818B10120B7
:100EC00007B0BDE8F08F20680069616A0870606A49
:100ED000401C6062218D491E2185618D491E6185FE
:100EE00021684A69D24352070AD409690170606ACD
:100EF000401C6062208D401E2085608D401E6085F4
:100F0000208D00287FF468AF202084F83D0084F80D
:100F10003E6084F83C600020D2E70220D0E7000069
:100F2000020010000000FFFF040001002DE9FF4F48
:100F300083B09A46DDE9119793460446DDF8408078
:100F4000FFF7EEFD054694F83D0020287FD11923D8
:100F5000012240492046009500F09EFF002876D1EE
:100F600094F83C00012872D0012084F83C002068ED
:100F70000168C90703D1016841F0010101602068DF
:100F8000016821F400610160212084F83D004020C7
:100F900084F83E0000262664C4F82480A4F82A9031
:100FA000608D20852C48E062CDE9007553465A4695
:100FB0002046049900F0F6FE70B930E02A46394622
:100FC000204601F01BF858B1206C042804D1206899
:100FD000016841F400710160012007B0BDE8F08FA5
:100FE000606A216800780861606A401C6062218D37
:100FF000491E89B22185628D521E6285226853691D
:10100000DB435B070BD469B100781061606A401C58
:101010006062208D401E2085608D401E6085208D81
:101020000028CBD12A463946204600F00FFF002881
:10103000CAD154F83D0B016841F4007101602020D1
:1010400004F81E09E67766770020C6E7FFE702206E
:10105000C3E70000020010000000FFFF2DE9F04F81
:1010600087B0044614216846FFF706F9374D226819
:10107000DFF8DC80364C04260023012103204FF0EA
:10108000120B08F11008AA423DD18A46814640223F
:10109000304FCDE9002ACDE9023969463846FFF7DD
:1010A0004BFC0025012240213846FFF734FD01208A
:1010B000FFF746FB002240213846FFF72CFD0120B8
:1010C000FFF73EFB6D1C0A2DECDB206840F00200B0
:1010D00020602068CDF808A000F002000590C02034
:1010E000CDE9000BCDE9039669463846FFF724FCAD
:1010F000D8F8001041F40011C8F80010D8F800002A
:1011000000F400101DE0144B9A421BD1226842F0FB
:10111000200222602268CDE9000BCDE9021002F026
:101120002002CDE9046269460C48FFF705FCD8F8B7
:10113000001041F48001C8F80010D8F8000000F455
:101140008000059007B0BDE8F08F0000005400401B
:1011500030380240000402400058004000140240B1
:101160000248816802781144816070470884012038
:101170000B4810B5016841F400710160016841F449
:1011800080610160016841F480710160032000F01A
:1011900061F8002000F006F800F024F8002010BDEF
:1011A000003C024070B50D4D04464FF47A7128782A
:1011B000B1FBF0F00A490968B1FBF0F000F024FC43
:1011C00048B9102C07D200222146501E00F022F808
:1011D00000206C6070BD012070BD000008840120FB
:1011E000148401200A4808B5016841F48041016077
:1011F000006800F4804000900548001F016841F03D
:1012000080510160006800F08050009008BD00002F
:1012100044380240F0B40E4B1B680C46C3F3022363
:10122000C3F10705042D00D90425191D072901D292
:10123000002300E0DB1E012606FA05F1491E2140CD
:1012400099409E40761E16403143F0BC02F084B8AF
:101250000CED00E0064900F0070208684FF6FF03B6
:10126000184040EA0220034A10430860704700001B
:101270000CED00E00000FA052DE9F0470E460500F0
:1012800065D0DFF81481D8F80000F7B200F00F0045
:10129000B04207D288F80070D8F8000000F00F00C4
:1012A000B04254D128683D4C810712D5400703D580
:1012B000206840F4E05020602878000703D52068BB
:1012C00040F4604020602068A96820F0F0000843E6
:1012D00020602878C0072DD0304968680839012877
:1012E00012D0022813D0032811D0096889070029D9
:1012F0002DDA216821F0030101432160FFF710FC82
:10130000814641F2883A0EE009688903EFE70968EF
:101310008901ECE7FFF704FCA0EB0901514502D974
:101320000320BDE8F0872068696800F00C00B0EB8E
:10133000810FEFD1D8F80010404601F00F01B14203
:1013400007D90770006800F00F00B04201D00120FB
:10135000E7E72878400705D52068E96820F4E050E1
:10136000084320602878000706D52068296920F402
:10137000604040EAC100206000F038F82168084A67
:10138000C1F30311515CC840064908600648006873
:10139000FFF708FF0020C4E7003C02400838024085
:1013A000EC3A0008148401200C840120044805490B
:1013B00000680968044AC1F38221515CC840704743
:1013C0001484012008380240FC3A0008044805490A
:1013D00000680968044AC1F34231515CC840704753
:1013E0001484012008380240FC3A0008154810B562
:1013F000006810F00C02144813D04110042A0FD0DA
:10140000082A0ED10F4C241F2268236802F03F02E5
:101410005B0207D52068C0F38810A0FB010106E03D
:10142000084610BD2168C1F38811A1FB000100230B
:10143000FEF7D8FE2168C1F30141491C4900B0FB09
:10144000F1F010BD083802400024F4002DE9F84FF7
:10145000040076D02078DFF838A3CE4DC00749D0FD
:10146000DAF800105046C1F38101012908D0006864
:10147000C0F3810002280AD1281D0068400206D569
:101480002868800336D560680028E2D032E06068C2
:10149000B0F5803F10D0B0F5A02F286810D020F410
:1014A00080302860286820F4802028606068A0B11F
:1014B000FFF736FB06460CE0286840F48030F4E77E
:1014C00040F480202860F7E7FFF72AFB801B6428A0
:1014D00073D828688003F7D50CE0FFF721FB064698
:1014E00005E000BFFFF71CFB801B6428F0D82868CC
:1014F0008003F7D42078DFF8A08280074FF000093E
:101500003ED5DAF80010504611F00C0F09D00068F3
:10151000C0F3810002280BD19D48001F00684002E3
:1015200006D42868800715D5E068012809D111E0A4
:10153000E068B8B10120C8F80000FFF7F1FA0646EC
:1015400005E020E1FFF7ECFA801B0228C0D82868EC
:101550008007F7D52868216920F0F80040EAC1002B
:1015600028600DE0C8F80090FFF7DAFA064604E0BC
:10157000FFF7D6FA801B02281FD828688007F7D407
:101580002078000722D5824E844861696C3671B19B
:1015900001210160FFF7C4FA074604E0FFF7C0FA33
:1015A000C01B022809D830688007F7D50EE0C0F8C4
:1015B0000090FFF7B5FA074605E082E0FFF7B0FAC2
:1015C000C01B02287DD830688007F7D420784007F8
:1015D00068D5DFF8BCB100270BF1380BDBF8000051
:1015E000C0000BD4DBF8001041F08051CBF80010A4
:1015F000DBF80000012700F080500090684E306852
:10160000C00510D4306840F480703060FFF788FA6D
:10161000009005E0FFF784FA0099401A022850D89C
:101620003068C005F6D55A4EA068683601280FD03C
:101630000528306810D020F001003060306820F0BC
:1016400004003060A068B8B1FFF76AFA00900FE0BC
:10165000306840F00100F4E740F004003060F7E744
:10166000FFF75EFA0099411A41F28830814266D84C
:1016700030688007F4D50EE0FFF752FA009007E0DB
:10168000FFF74EFA0099411A41F28830814256D84C
:1016900030688007F4D42FB1DBF8001021F08051BE
:1016A000CBF80010A069D0B3DAF800205146C2F39D
:1016B0008102022A4AD00228484607D0C8F86000B2
:1016C00000E03CE0FFF72CFA04463BE04746C8F850
:1016D0006000FFF725FA064605E000BFFFF720FA95
:1016E000801B02282BD828688001F7D4D4E9070191
:1016F0000843A16A2B4A490802EB0141626A41EAA8
:101700008211084394F82C1040EA01612048001F20
:10171000016001203866FFF703FA044605E034E073
:10172000FFF7FEF9001B022809D828688001F7D5C9
:101730002BE000BFFFF7F4F9001B022802D90320B9
:10174000BDE8F88F28688001F4D41EE00128F7D0A6
:101750000868E26900F48001914214D1226A00F025
:101760003F0191420FD147F6C071626A0140914238
:1017700009D1A26A00F44031914204D1E16A00F03B
:101780007060884201D00120DAE70020D8E700002D
:10179000083802400038024000004742800E4742AD
:1017A000007000400000FFFF70B5040005D0002568
:1017B000A56294F8510010B106E0012070BD84F8D4
:1017C0005050204600F030F8022084F85100206884
:1017D000016821F040010160D4E901010843D4E926
:1017E00003121143084361690843218B01F400711E
:1017F0000843E1690843216A0843A16A0843216854
:101800000860A069042101EA1040616A0843216868
:1018100048602068C16921F40061C16165650120EB
:1018200084F85100002070BD2DE9F04186B00446D7
:1018300014216846FEF720FD1949206888422BD103
:1018400018484FF00008016841F4805101600068B9
:1018500000F48050059013481438016841F00101EC
:1018600001600068022400F0010005902020CDE90D
:10187000000402AA032505260B4F82E87000694682
:101880003846FFF759F8C0208DE81101CDE903561D
:1018900069463846FFF750F806B0BDE8F081000011
:1018A0000030014044380240000002402DE9F84F6A
:1018B000044690F8500000271D4616468946012828
:1018C0000DD04FF0010B84F850B0FFF729F9804696
:1018D00094F85100BA46012804D002278EE0022075
:1018E000BDE8F88FB9F1000F7DD0002E7BD003202A
:1018F00084F85100C4F854A0C4F83090A686E68657
:10190000C4F838A0A4F83CA0A4F83EA0C4F844A0B1
:10191000C4F840A0A068B0F5004F04D12068016869
:1019200041F48041016020680168490603D40168E0
:1019300041F040010160E068B0F5006F606803D0DD
:1019400030B3012E24D040E008B1012E1CD1206B11
:1019500021680088C86006E020688168890709D589
:10196000216B0988C160206B801C2063E08E401EC3
:10197000E08609E0FFF7D4F8A0EB0800A84202D304
:10198000681C01D031E07DB3E08E0028E4D11FE077
:10199000206B21680078087306E020688168890759
:1019A00009D5216B09780173206B401C2063E08E00
:1019B000401EE08609E0FFF7B3F8A0EB0800A8425C
:1019C00002D3681C01D010E075B1E08E0028E4D18C
:1019D00042462946204601F077F808B1202060658C
:1019E000A06820B107E008E0FFE7032706E02068D1
:1019F000C16880680090606D00B1012784F851B023
:101A000084F850A038466BE710B5401EB0F1807FD7
:101A100001D3012010BD4FF0E02460610F21601759
:101A200001F09AFC0020A06107202061002010BD79
:101A300070B5040004D094F83900002510B106E018
:101A4000012070BD84F83850204600F023F824208F
:101A500084F839002068C16821F40051C160204633
:101A600001F06EFA2068016921F49041016120685B
:101A7000416921F02A0141612068C16841F40051A7
:101A8000C160E563202084F8390084F83A00002022
:101A900070BD000010B586B0044614216846FEF7FC
:101AA000EBFB14492068884221D1134800210268C9
:101AB00042F480220260006800F4802005900E4805
:101AC0001038026842F002020260006800F0020072
:101AD00005904FF4406000900220CDE90101032001
:101AE00003900720049069460448FEF725FF06B0DE
:101AF00010BD000000480040403802400004024091
:101B00002DE9F843044690F83A00994616460D46EA
:101B1000202852D1BDB1B6B194F8380001284CD07C
:101B2000012084F838000027E763222084F83A0077
:101B30002C34FEF7F5FF24F8026B804624F80A6B7C
:101B400004F8387931E00120BDE8F883E08D401ECB
:101B5000E085A0684346B0F5805F4FF000024FF08B
:101B600020012046CDF8009004D001F07DFA98B114
:101B70000320E9E701F078FA0028F9D1206900286C
:101B80002068406803D0C1B225F8011B0DE0C0F306
:101B9000080125F8021B08E0206900282068406839
:101BA00001D000F07F0005F8010BE08D0028CDD1B9
:101BB000202084F83A000020C6E70220C4E72DE97F
:101BC000F843044690F839001F4616460D46202873
:101BD00050D1B5B1AEB194F8380001284AD00120F7
:101BE00084F838004FF00008C4F83C80212084F8C5
:101BF0003900FEF795FFA6848146E68484F8388094
:101C000026E00120BDE8F883E08C401EE084A06857
:101C10004B46B0F5805F4FF000024FF08001204648
:101C2000009703D001F020FAE8B90DE001F01CFAAA
:101C3000C8B928882168C0F308004860206908B145
:101C40006D1C05E0AD1C03E0216815F8010B486030
:101C5000E08C0028D8D14B46002240212046009736
:101C600001F002FA08B10320CCE7202084F8390003
:101C70000020C7E70220C5E7FEE701684A69D243B2
:101C800052050FD46FF480624A61002140F8301F82
:101C9000202242738173026942F0040202610173DF
:101CA00001207047002070472DE9F84F0446006876
:101CB00089460B9D01689846174641F48061016092
:101CC0002068016841F48071016000954FF0011BAC
:101CD0000022594620460A9B00F0DEF84FF4007AB5
:101CE00040B120680068C00501D5C4F840A00320B9
:101CF000BDE8F88F216809F0FE0008612B462849ED
:101D000020460A9A00F0FCF8F0BB2068416980691F
:101D100000902A4620460A9900F070F940B1206CE4
:101D200004283AD12068016841F40071016034E070
:101D3000FEB2B8F1010F09D02168380A08612A46BD
:101D400020460A9900F05AF90028E8D12068066177
:101D50002A4620460A9900F051F90028DFD1206870
:101D6000016841F4807101600095002259462046C7
:101D70000A9B00F091F80028B3D1216809F0FF0018
:101D800040F00100086100E007E02B4604492046CE
:101D90000A9A00F0B5F80028AAD00120A8E70000B0
:101DA000020001002DE9F843044600680D46DDE914
:101DB000089701689846164641F4807101604B46C9
:101DC00000224FF001112046009700F065F848B15D
:101DD00020680068C00502D54FF40070206403201D
:101DE000BDE8F883216805F0FE0008613B464A46DD
:101DF0001549204600F084F888B920684169806957
:101E000000903A464946204600F0F8F848B1206C68
:101E1000042804D12068016841F4007101600120A8
:101E2000DEE7F5B2B8F1010F09D02168300A086188
:101E30003A464946204600F0E1F80028E7D12068FC
:101E400005610020CCE700000200010070B51646D5
:101E50000D4604460DE02046FFF70FFF08B10120B4
:101E600070BD681C05D0FEF75BFE801BA84207D83A
:101E700035B120684069C0434007ECD4002070BDF4
:101E8000002044F8300F20216173A073216941F0D4
:101E9000200121612073E2E72DE9F0471E469046BC
:101EA0000D460446C1F30747DDF8209008E0701C9A
:101EB00006D0FEF735FEA0EB0900B0420FD876B190
:101EC0002068012F18D0806925EA00000004000C6A
:101ED00014D000214145EAD00020BDE8F087002061
:101EE00044F8300F20216173A073216941F0200173
:101EF000216120730120F0E74069E5E70121E9E76E
:101F00002DE9F0479A4691460E46044600254FF0CB
:101F10002008C1F3074725E020684069C043400519
:101F200014D42068016841F40071016021686FF4E5
:101F300080604861256384F83D8084F83E50206CC1
:101F400040F00400206484F83C501FE0B9F1FF3FEA
:101F500008D0FEF7E5FDA0EB0A0149450CD8B9F120
:101F6000000F09D02068012F13D0806926EA0000F5
:101F70000004000C0BD0CFE744F8305F84F80D80EC
:101F8000A573206940F02000206125730120BDE881
:101F9000F0874069EAE72DE9F041002590460E46BA
:101FA0000446202717E04069C043C0060CD454F80B
:101FB000301B6FF01000486144F810596777A5771F
:101FC000206A2062257717E0FEF7AAFDA0EB080043
:101FD000B04208D83EB120684169C9434906E2D4FD
:101FE0000020BDE8F08144F8305F6773A573206975
:101FF00040F02000206125730120F2E770B51646FD
:102000000D4604460DE02046FFF737FE08B10120DB
:1020100070BD681C05D0FEF783FD801BA84207D861
:1020200035B120684069C0430006ECD4002070BD83
:10203000002044F8300F20216173A073216941F022
:10204000200121612073E2E73EB564249BB28DE854
:102050001C0080B20A46014610230248FEF76AFEC1
:102060003EBD0000B48801202DE9FE4F0027DFF8B7
:1020700068B091460E4682461D46B8463A4604214F
:102080005846FEF748FD1DE006F03F00C0F1400451
:10209000AC4200DB2C466422A1B209EB07008DE8BC
:1020A00007001FFA8AF1102332460C48FEF73EFF64
:1020B0005FEA000808D1301986B22D1B27440A2098
:1020C000FEF73EFB002DDFDC012204215846FEF71F
:1020D00022FD4046BDE8FE8F00140240B488012076
:1020E000F0B500220D4B154614460A27B1FBF3F656
:1020F00030368654B1FBF3F603FB1611B3FBF7F34E
:10210000521C861816F8016C302E00D125B16D1CBA
:10211000641C0A2CEAD3F0BD0022F9E700CA9A3BFE
:1021200010B5024601F0B7FA5168054841600160F8
:10213000106880F30888884700BF00BF10BD00000A
:1021400000840120F0B587B014216846FEF794F8AA
:102150002D480024016841F020010160016801F070
:1021600020010591016841F001010160016801F061
:1021700001010591016841F002010160016801F06F
:1021800002010591016841F080010160016801F0E0
:1021900080010591016841F48071016000681B4E67
:1021A00000F480700590002204213046FEF7B3FC55
:1021B000174F002210213846FEF7ADFC0420009096
:1021C0000125CDE90154694630460394FEF7B4FB7E
:1021D0001020CDE900050220CDE902046946384609
:1021E000FEF7AAFB2803CDE90004694609480294DA
:1021F000FEF7A2FBCDE90054694607480294FEF7BA
:102200009BFB07B0F0BD00003038024000140240D4
:1022100000000240001C024000200240144810B59B
:10222000124901601349416000214FF480428160EE
:10223000C0E9031241618161C1610162FEF7B6FC30
:1022400008B1FEF78EF800210948FEF76FFC08B1CF
:10225000FEF787F800210648FEF789FC002803D026
:10226000BDE81040FEF77DB810BD000000540040EE
:1022700060880120A0860100144810B51249016051
:102280001349416000214FF480428160C0E903128C
:1022900041618161C1610162FEF788FC08B1FEF70E
:1022A00060F800210948FEF741FC08B1FEF759F833
:1022B00000210648FEF75BFC002803D0BDE8104073
:1022C000FEF74FB810BD000000580040B488012050
:1022D000A0860100104810B50E4901604FF48271CC
:1022E0004160002181600122C160C0E904125202F4
:1022F00082611822C0E90721416281620A21C1621C
:10230000FFF752FA002803D0BDE81040FEF729B8C5
:1023100010BD000000300140088901200C4810B5B4
:102320000A4901604FF4E1314160002181600C22D3
:10233000C160C0E904128161C161FFF779FB002827
:1023400003D0BDE81040FEF70CB810BD00480040B7
:102350006089012090B000208DF83C006B4800F0AF
:102360003BFD6B4800F038FD6A4800F035FD6A48D7
:1023700000F032FD674800F02FFD684800F02CFDAA
:10238000624800F029FD66A000F026FD664E4FF081
:10239000FF3743F6982565A000F01EFD73A000F0FE
:1023A0001BFD82A000F018FD90A000F015FD9FA07D
:1023B00000F012FDADA000F00FFDBCA000F00CFD80
:1023C000CAA000F009FDD9A000F006FDE7A000F0CA
:1023D00003FDF6A000F000FD306840683B46012296
:1023E0000FA95148FFF78CFB9DF83C0031380928B4
:1023F0007ED2DFE800F00507090D10131627320022
:10240000FA4802E0FA4800E0FA4800F015FCC2E79A
:1024100001F0DEF9BFE701F045F9BCE701F092F900
:10242000B9E700242946204600F0C6FB10B1F2A00F
:1024300000F0D2FC6420FEF783F9641CE4B2202C87
:10244000F0D3A8E72946002000F0B6FB0028A2D070
:10245000E9A000BF00F0C0FC9DE7EC480268ECA1D9
:10246000684600F065FF684600F0B6FCE748001DCE
:102470000268E7A1684600F05BFF684600F0ACFC2C
:10248000E7480268E7A1684600F052FF684600F09E
:10249000A3FCE84CE269E8A1684600F049FF684601
:1024A00000F09AFC08A8FDF7EAFFE8A168460A9A3E
:1024B00000F03EFF684600F08FFCE9A168460C9AE8
:1024C00000F036FF684600F087FC9DF83820E9A14F
:1024D000684600F02DFF684600F07EFCEAA16846E1
:1024E0000D9A00F025FF684600F076FCE26900E0F6
:1024F000F4E1D1A1684600F01BFF684600F06CFCD7
:102500000A98800600D5C9E1CAE10000883C0008AD
:10251000A43B0008583B00083C3C0008F03B000886
:102520000D0A0D0A00000000608901200D0A3D3DE2
:102530003D3D3D3D3D3D3D3D3D3D3D3D3D3D3D3DCB
:102540003D204D61696E204D656E75203D3D3D3DE0
:102550003D3D3D3D3D3D3D3D3D3D3D3D3D3D3D3DAB
:102560003D3D3D3D3D3D3D3D0D0A0A002020446F6F
:10257000776E6C6F616420696D61676520746F2090
:1025800074686520466163746F7279202D2D2D2D3E
:102590002D2D2D2D2D2D2D2D2D2D2D2D2D2D2D2D6B
:1025A0002D2D2D2D20310D0A0A0000002020446F12
:1025B000776E6C6F616420696D61676520746F2050
:1025C000746865204170706C69636174696F6E2016
:1025D00031202D2D2D2D2D2D2D2D2D2D2D2D2D2D34
:1025E0002D2D2D2D20320D0A0A0000002020446FD1
:1025F000776E6C6F616420696D61676520746F2010
:10260000746865204170706C69636174696F6E20D5
:1026100032202D2D2D2D2D2D2D2D2D2D2D2D2D2DF2
:102620002D2D2D2D20330D0A0A0000002020457885
:102630006563757465207468652070726F63657377
:1026400073202D2D2D2D2D2D2D2D2D2D2D2D2D2D81
:102650002D2D2D2D2D2D2D2D2D2D2D2D2D2D2D2DAA
:102660002D2D2D2D20340D0A0A000000202045724A
:10267000617365207570677261646520737461743D
:102680007573202D2D2D2D2D2D2D2D2D2D2D2D2DF9
:102690002D2D2D2D2D2D2D2D2D2D2D2D2D2D2D2D6A
:1026A0002D2D2D2D20350D0A0A00000020205072FE
:1026B000696E7420757067726164652073746174EB
:1026C0007573202D2D2D2D2D2D2D2D2D2D2D2D2DB9
:1026D0002D2D2D2D2D2D2D2D2D2D2D2D2D2D2D2D2A
:1026E0002D2D2D2D20360D0A0A00000020205350DC
:1026F00049204465627567202D2D2D2D2D2D2D2D02
:102700002D2D2D2D2D2D2D2D2D2D2D2D2D2D2D2DF9
:102710002D2D2D2D2D2D2D2D2D2D2D2D2D2D2D2DE9
:102720002D2D2D2D20370D0A0A000000202053509A
:1027300049204465627567202D2D2D2D2D2D2D2DC1
:102740002D2D2D2D2D2D2D2D2D2D2D2D2D2D2D2DB9
:102750002D2D2D2D2D2D2D2D2D2D2D2D2D2D2D2DA9
:102760002D2D2D2D20380D0A0A0000002020476550
:1027700074204F7074696F6E2042797465202D2D1E
:102780002D2D2D2D2D2D2D2D2D2D2D2D2D2D2D2D79
:102790002D2D2D2D2D2D2D2D2D2D2D2D2D2D2D2D69
:1027A0002D2D2D2D20390D0A0A0000003D3D3D3D07
:1027B0003D3D3D3D3D3D3D3D3D3D3D3D3D3D3D3D49
:1027C0003D3D3D3D3D3D3D3D3D3D3D3D3D3D3D3D39
:1027D0003D3D3D3D3D3D3D3D3D3D3D3D3D3D3D3D29
:1027E0003D3D3D3D3D3D0D0A0A0000000000020850
:1027F00000000408000006085350492077726974ED
:1028000065206661696C65640A000000143C024042
:102810004F50544352203D202523580D0A0A0000F2
:10282000003801404D454D524D50203D2025235844
:102830000D0A0A00A08901204572726F72436F640D
:1028400065203D202523580D0A0A00005752505399
:102850006563746F72203D202523580D0A00000027
:102860005244504C6576656C203D202523580D0A56
:102870000000000055534552436F6E666967203D66
:10288000202523580D0A0000424F524C6576656C96
:10289000203D202523580D0A0A00000010A000E06A
:1028A00018A000F099FA0A98400601D51DA000E092
:1028B00026A000F091FA0A98000601D52CA000E0AD
:1028C00035A000F089FA0C98AA2803D0CC2803D0B0
:1028D0003AA0BFE53DA0BDE540A0BBE543A0B9E5FA
:1028E000466163746F7279206D656D6F72792069CE
:1028F00073206E6F742070726F7465637465640DFD
:102900000A000000466163746F7279206D656D6F17
:1029100072792069732070726F7465637465640DD9
:102920000A0000004170706C69636174696F6E2009
:1029300031206D656D6F7279206973206E6F742020
:1029400070726F7465637465640D0A004170706C19
:1029500069636174696F6E2031206D656D6F727986
:102960002069732070726F7465637465640D0A006A
:102970004170706C69636174696F6E2032206D659F
:102980006D6F7279206973206E6F742070726F742E
:1029900065637465640D0A004170706C69636174ED
:1029A000696F6E2032206D656D6F727920697320BA
:1029B00070726F7465637465640D0A005244502030
:1029C0006C6576656C20310D0A0A00005244502077
:1029D0006C6576656C20300D0A0A00005244502068
:1029E0006C6576656C20320D0A0A0000496E7661CE
:1029F0006C696420636861726163746572210D0A99
:102A000000000000FEE77047704700002DE9F84322
:102A100000240F460646904613460C600122694684
:102A20002848FFF76DF8050020D19DF80000182810
:102A300020D006DC01280BD002280BD0042804D1BA
:102A400004E0412827D0612825D0012530700DE011
:102A5000802401E04FF480643070221D4346B11C95
:102A60001848FFF74DF8050017D0002428463C60B1
:102A7000BDE8F8834346012269461248FFF740F853
:102A800018B99DF80000182803D001259DF8000012
:102A9000DCE70224DAE70225D8E7F178B07881F0A4
:102AA000FF0188420AD130190179407900EB0128F1
:102AB0002146301DFDF72CFC4045D7D000240125D0
:102AC000D4E700006089012038B504461248134B52
:102AD0000068B0FBF3F04FF47A73584300906068DD
:102AE000B0F5827F0DD10B46009200228021204656
:102AF00000F016F870B1606D40F0200060650320B2
:102B000038BD009830B1401E009020688068C043F6
:102B10000006F6D5002038BD1484012000366E0171
:102B20002DE9F0411D4617460E460446DDF8188093
:102B300008E0681C06D0FDF7F3FFA0EB0800A842F0
:102B40000BD255B12068806836EA000030D00020F2
:102B5000B842EED10020BDE8F0812068416821F044
:102B6000E00141606068B0F5827F0BD1A068B0F5EC
:102B7000004F02D0B0F5806F04D12068016821F0C9
:102B800040010160A06AB0F5005F09D120680168CA
:102B900021F4005101602068016841F40051016096
:102BA000012084F85100002084F850000320D2E76F
:102BB0000120CDE77047000010B500F01F00C1F301
:102BC000C22242EAC002C2B0C1F3C70348078DF86F
:102BD00004218DF80531000E8DF8060100900EA13C
:102BE00001A800F0A5FB124C012210212046FDF7A0
:102BF00092FF002210212046FDF78DFF3223032291
:102C000041A90C48FEF752FE044601A800F0E4F882
:102C100042B0204610BD00004461632076616C75AF
:102C2000653A2025235820252358202523580A00BB
:102C300000000240088901201FB5044600200090D2
:102C400001900290039019A000F0C6F803A9204655
:102C500000F08EFA38B1052820D0042820D00228B0
:102C600022D021A01DE0284800F0B6F8274800F047
:102C7000B3F868460399FFF733FA25A000F0ACF8E3
:102C8000684600F0A9F825A000F0A6F826A000F0FC
:102C9000A3F82046039900F0B9FE1FBD28A000E06C
:102CA00037A000F099F81FBD3CA0FAE7576169749E
:102CB000696E6720666F72207468652066696C654E
:102CC00020746F2062652073656E74202E2E2E2076
:102CD0002870726573732027612720746F206162EA
:102CE0006F7274290A0D00000A0D4661696C6564F3
:102CF00020746F207265636569766520746865204D
:102D000066696C65210A0D00043B000818840120E7
:102D10000A0D2053697A653A200000002042797438
:102D200065730D0A000000002D2D2D2D2D2D2D2D4C
:102D30002D2D2D2D2D2D2D2D2D2D2D0A000000009A
:102D40000A0A0D54686520696D6167652073697AA8
:102D50006520697320686967686572207468616EB0
:102D60002074686520616C6C6F7765642073706196
:102D70006365206D656D6F7279210A0D000000009A
:102D80000A0A0D566572696669636174696F6E201F
:102D90006661696C6564210A0D0000000D0A0A4134
:102DA000626F7274656420627920757365722E0A91
:102DB0000D00000001B5074890F83910A02902D194
:102DC000202180F839106423012269460148FEF76A
:102DD000F6FE08BD60890120002201E0521C92B27B
:102DE000815C0029FAD1014664230148FEF7E7BE61
:102DF00060890120F0B5054600242A782046234644
:102E0000302A2ED16A78782A01D0582A29D1022472
:102E10001CE000BFA2F14106052E07D9A2F161070F
:102E2000052F03D91136092E04D913E0A2F130077A
:102E3000092F01D8303A04E0052E01D8373A00E0D6
:102E4000573A641C02EB03130B2C04D22A5D002AB0
:102E5000E0D103E000202A5D002A01D101200B60AF
:102E6000F0BD2A5D62B16B2A01D04B2A02D10CB1B0
:102E70009B0205E06D2A01D04D2A04D11CB11B052F
:102E800001200B600AE0A2F13006092E0CD803EBFA
:102E900083036FF02F0606EB43031344641C0B2CD3
:102EA000DED20128DDD1F0BD0020F0BDFEF758B91B
:102EB00010B592B030216846FDF7DEF914210CA858
:102EC000FDF7DAF915480024016841F080510160EE
:102ED000006800F0805011901148016821F44041D1
:102EE00041F4804101600068069400F44040119074
:102EF0000220009001200390102004906846FEF705
:102F0000A5FA0F20CDE90C040E940F9400210CA813
:102F10001094FEF7B1F912B010BD00004038024025
:102F2000007000400548016841F4700101600349E8
:102F30004FF00060803908607047000088ED00E0C5
:102F40002DE9F041044600680169E26821F440512E
:102F5000114301612169A068E26908436169114375
:102F600008432168CA6849F20C639A430243CA6065
:102F700020684169A26921F4407111434161E0690F
:102F8000192764253226B0F5004F354A35492068A7
:102F90004FF0000806D0884201D0904236D1FEF7AB
:102FA00015FA35E0884201D0904202D1FEF70EFAC0
:102FB00001E0FEF7FBF961684A18A0FB070148EB46
:102FC0000803FDF70FF90146B0FBF5F00201B1FB74
:102FD000F5F06FF01803584301EB800006EBC000DA
:102FE000B0FBF5F000F0F80002EB4002B1FBF5F0A9
:102FF000584301EB800006EBC000B0FBF5F000F099
:103000000700216810448860BDE8F081FEF7CEF922
:1030100061688B0F8A00A0FB0701FDF7E3F801460A
:10302000B0FBF5F06FF01802504301EB800006EBA7
:103030000010B0FBF5F000F0F002B1FBF5F002EB90
:103040000012B1FBF5F06FF01803584301EB80005C
:1030500006EB0010B0FBF5F000F00F00D1E7000028
:1030600000140140001001402DE9F0419846174638
:103070000E460446069D1DE0681C1BD02DB1FDF7D1
:103080004FFDA0EB0800A84214D92068C16821F4C4
:10309000D071C1602068416921F0010141612020A7
:1030A00084F8390084F83A00002084F838000320BE
:1030B000BDE8F0812068006836EA000004D00020F6
:1030C000B842D9D00020F3E70120F9E741F480713C
:1030D00041F2210240004900CB0500D5401CC3034A
:1030E00000D55040CB03F5D580B270473EB50446BD
:1030F00000686946FDF7FCF801A9A068FDF7F8F83B
:1031000002A96068FDF7F4F80C236A4643F2200137
:10311000A020FEF7A9FF3EBD10B586B004460068AA
:103120006946FDF7E5F820798DF8040060798DF89F
:1031300005000DF10601A068FDF7DAF80DF10A01AE
:10314000E068FDF7D5F80DF10E012069FDF7D0F824
:103150000DF112016069FDF7CBF816236A464FF4B2
:103160004051A020FEF780FF06B010BDFEE7000032
:103170002DE9F34F002787B03E46B9463C46DFF8BD
:1031800094B1DDF81CA0BCE04FF000084546B4E067
:103190004FF47A7204A95F48FFF738FC60B1022847
:1031A0007CD0B9F1000F00D0761C052E77D91820FD
:1031B000FFF700FE18209EE00498002670B1022858
:1031C00006D09BF80230594643450CD0152092E0BA
:1031D0005FF00600FFF7EEFD02248EE00620FFF709
:1031E000E9FD012589E0B8F1000F16D082080BF146
:1031F00004015046FDF764F9002870D01820FFF74D
:10320000D9FD1820FFF7D6FD5FF0040408F1010096
:1032100000F0FF084FF001096FE00879E8B30020E3
:103220000BF104013C4B02E01A54401C491C0A7883
:103230000AB14028F8D34FF0000C03F800C06046F4
:103240006B4601E01A54401C11F8012F202A01D0CE
:103250001028F7D303F800C006A91846FFF7CAFDE7
:1032600008980068B0F1021F11D318208DF81400DF
:103270004FF480142346012205A92848FEF79FFC3D
:103280002346012205A92548FEF799FC0524244977
:103290000798884204D1052010E019E025E029E0D4
:1032A0002049884201D1062008E01F49884201D107
:1032B000072003E01D49884202D10420FDF7A6F84B
:1032C0000898069901600620FFF774FD432009E085
:1032D0000620FFF76FFD01252F460EE0FFE704995A
:1032E00006208A44FFF766FD90E71820FFF762FD8D
:1032F00018206FE74320FFF75DFD55EA04003FF417
:1033000047AF57EA04003FF43FAF09B02046BDE89D
:10331000F08F00005884012018840120608901206A
:103320000000020800000408000006080000010870
:103330000FB4084B10B504A902AA039800F02CF8AA
:10334000044602A9002000F087F9204610BC5DF871
:1033500014FB0000593600080907090E002804DB99
:1033600000F1E02080F80014704700F00F0000F139
:10337000E02080F8141D704702E008C8121F08C141
:10338000002AFAD170477047002001E001C1121FE6
:10339000002AFBD1704700002DE9FF4F8DB09B46FE
:1033A0000F460446002606E025280BD05A460F9902
:1033B0009047641C761C20780028F5D111B0304667
:1033C000BDE8F08F0025A8460122984900E005439A
:1033D00014F8013F203B02FA03F00842F7D12078AD
:1033E0002E2817D114F8010F45F004052A280ED015
:1033F0006FF02F022078A0F1300109290AD808EBDC
:10340000880102EB410100EB0108641CF2E757F868
:10341000048B641C20786C280DD004DC4C2812D05E
:103420006A2811D104E074280DD07A280CD10AE062
:1034300045F4001507E0617845F48015814202D11A
:10344000641C05F58015641C2278692A45D008DCC7
:10345000002AB3D0582A69D0632A10D0642A08D130
:103460003BE0702A67D0732A13D0752A5CD0782A83
:103470005CD010465A460F999047761CD3E017F857
:10348000040B8DF8000000208DF80100E9460120B2
:1034900003E057F8049B4FF0FF3069074FF0000539
:1034A00001D40AE06D1C45450DDA8542FADB19F8B6
:1034B00005100029F6D106E06D1C8542FCDB19F8E9
:1034C00005100029F8D12E4404E019F8010B5A46E2
:1034D0000F9990476D1EF8D2A5E00A200021CDE992
:1034E0000801C5F3025002280DD001CFC117031EF9
:1034F00071F100030DDA4FF0000CD0EB0C006CEB17
:1035000001012D2308E0FF1D27F00707F7E802015E
:10351000EDE72B0504D52B238DF8283001233BE064
:10352000EB0739D02023F7E70A2000E01020002124
:10353000CDE9080107E01020002145F00405CDE9A0
:1035400008014FF00808C5F3025002280FD001CF40
:1035500000214FF0000A2B071FD5702A0DD0DDE99E
:1035600008C38CF0100C5CEA030C0CD015E0FF1DB6
:1035700027F00707F7E80201EBE740228DF8282043
:103580004FF0010A0BE050EA010306D030238DF81A
:1035900028308DF8292002239A46582A04D024A2E4
:1035A0000DF120090B9209E026A2F9E7DDE90823D5
:1035B000FCF718FE0B9B9B5C09F8013D50EA0102E9
:1035C000F4D1ADEB090020300890680701D44FF02A
:1035D00001080899884502DDA8EB010000E0002001
:1035E0008046002506E00AA85A46405D0F9990479C
:1035F0006D1C761C5545F6DB04E030205A460F99C9
:103600009047761CB8F10001A8F10108F5DC05E04F
:1036100019F8010B5A460F999047761C0899481ED5
:1036200008900029F4DC641CC5E6000009280100AC
:103630003031323334353637383961626364656628
:1036400000000000303132333435363738394142EA
:1036500043444546000000000A68531C0B6010708C
:1036600070472DE9F04114460D460A4606460146CC
:103670004FF000573846FCF7E6FD29463046FCF788
:103680005BFEA04202D00120BDE8F0813846FEF783
:1036900047FD0020F8E74FF0E02000218161042180
:1036A0000161704730B5CBB0FF22162144A8FCF76A
:1036B000DCFD162344AA4FF44051A020FEF7D4FCB1
:1036C000020010D00948056C01688C694B690968D3
:1036D0008DE83A0090F83D30054904A8FFF728FE30
:1036E00004A8FFF779FB4BB030BD0000B48801207F
:1036F000D43C0008FDF73CFDFCF7D6FEFFF7D8FBF5
:10370000FEF720FDFEF70AFEFEF788FDFEF7B4FD8A
:10371000FEF7E0FD094C01212046FDF7F7F90128ED
:10372000F9D100F055F8064801680A6822F0200235
:103730000A6000684068FEF70DFEFEE700200240C8
:103740006089012030B5CBB045A8FCF7CCFF020062
:103750000ED01248056C01688C694B6909688DE8C8
:103760003A0090F83D300E4905A8FFF7E1FD0FE063
:1037700047AC94E80F0001AC84E80F009DF81901F4
:1037800000909DF8183107A105A8459AFFF7D0FDD4
:1037900005A8FFF721FB4BB030BD0000B488012025
:1037A000303D000875705F7374617475733A20253D
:1037B00023582C2025752C2025752C2025752C2090
:1037C0002523582C2025752C202523580A0000007D
:1037D00030B5CDB043A8FCF76DFF3F4C08B13FA119
:1037E00020E0454D4398A84217D044A103A8FFF715
:1037F0009FFD03A8FFF7F0FA4FF00160CDE94350B9
:10380000459043A8FFF772FC08B143A05BE04EA0CF
:10381000FFF7E2FA0220FCF716FE47A8FCF763FF69
:10382000A0B14EA103A8FFF783FD03A8FFF7D4FAC8
:10383000236C2068826941698DE80E00036894F862
:103840003D204E4903A8FFF773FD3BE047984C4CE1
:10385000A84214D04BA103A8FFF76AFD03A8FFF705
:10386000BBFA21682046491C2FD04FF4C03100F02C
:10387000CDF847A8FCF737FF20B14FA11FE0206823
:10388000401C24D09DF8200188B1012822D00228B4
:103890001BD15148DDE94912FFF7E3FE002814D09F
:1038A0004EA103A8FFF744FD03A8FFF795FADDE951
:1038B0004B122046FFF7D5FE002806D04EA103A8E4
:1038C000FFF736FD03A8FFF787FA4DB030BDFFF7CD
:1038D000E9FEFAE74C48DDE7B4880120476574202B
:1038E0006C6F6720737461747573206661696C65B1
:1038F0006420310A000000005A5AA5A54C6F6720C9
:10390000737461746520697320756E696E6974697A
:10391000616C697A65640A00557064617465206C35
:103920006F6720737461747573206661696C656478
:1039300020696E207570646174655F636F6E66697F
:10394000675F646174610A0045726173696E672024
:1039500062616E6B20322E2E2E0A000047657420A5
:103960007570677261646520737461747573206625
:1039700061696C656420310A000000008C3D00081C
:10398000000002084669726D776172652073746188
:10399000746520697320756E696E697469616C69FC
:1039A0007A65642C20626F6F742066726F6D20667A
:1039B0006163746F72790A0047657420757067726D
:1039C00061646520737461747573206661696C65E8
:1039D0006420320A0000000000000608426F6F7485
:1039E000206170706C69636174696F6E20666169D3
:1039F0006C65640A00000000466174616C206572A9
:103A0000726F722121210A000000040870B505467A
:103A10001948002486B00E4685420DD11748009003
:103A20008DF804408DF80540029428460394FCF775
:103A300083FCCDE9046015E06846FCF754FE08B14C
:103A40000FA015E01B48854201D1012000E00220B3
:103A50008DF804008DF80540314628460296FCF7A3
:103A60006BFC03906846FFF757FB002802D012A0BA
:103A7000FFF7B2F906B070BD000002085A5AA5A5BA
:103A80004765742075706772616465207374617432
:103A90007573206661696C656420696E2075706459
:103AA0006174655F636F6E6669675F646174610A04
:103AB0000000000000000408557064617465207502
:103AC00070677261646520737461747573206661D8
:103AD000696C656420696E207570646174655F63EC
:103AE0006F6E6669675F646174610A0000000000C0
:103AF000000000000102030406070809000000009E
:103B0000010203040A0A0D2050726F6772616D6D25
:103B1000696E6720436F6D706C65746564205375C2
:103B2000636365737366756C6C79210A0D2D2D2D99
:103B30002D2D2D2D2D2D2D2D2D2D2D2D2D2D2D2DB5
:103B40002D2D2D2D2D2D2D2D2D2D2D2D2D0D0A20F5
:103B50004E616D653A2000000D0A3D202020202096
:103B60002020202020202020202020202020202055
:103B70002020202020202020202020202020202045
:103B80002020202020202020202020202020202035
:103B90002020202020202020202020202020203D08
:103BA000000000000D0A3D202020202020202020A1
:103BB000202020202028432920434F505952494794
:103BC00048542032303230204F2D4E6574205465D9
:103BD00063686E6F6C6F67696573202020202020FA
:103BE00020202020202020202020203D0000000038
:103BF0000D0A3D20202020202020202020202020D1
:103C000020202020202020202020202020202020B4
:103C100020202020202020202020202020202020A4
:103C20002020204279204265696A696E6720522609
:103C3000442020202020203D000000000D0A3D20CF
:103C400020202031783634204F70746963616C20F5
:103C50005377697463682050726F6772616D6D6924
:103C60006E67204170706C69636174696F6E2020AB
:103C70002856657273696F6E20302E302E332920DE
:103C80002020203D000000000D0A3D3D3D3D3D3D12
:103C90003D3D3D3D3D3D3D3D3D3D3D3D3D3D3D3D54
:103CA0003D3D3D3D3D3D3D3D3D3D3D3D3D3D3D3D44
:103CB0003D3D3D3D3D3D3D3D3D3D3D3D3D3D3D3D34
:103CC0003D3D3D3D3D3D3D3D3D3D3D3D3D3D3D3D24
:103CD000000000006572617365206661696C65644F
:103CE0002C20737461747573203D2025752C204938
:103CF00032635F5374617465203D202523582C2066
:103D0000435231203D202523582C20535231203D51
:103D1000202523582C20535232203D202523582C77
:103D200020657272436F6465203D202523580A0088
:103D30007072696E74206661696C65642C2073749E
:103D400061747573203D2025752C204932635F53C3
:103D500074617465203D202523582C204352312066
:103D60003D202523582C20535231203D2025235817
:103D70002C20535232203D202523582C206572726E
:103D8000436F6465203D202523580A004932635F54
:103D90005374617465203D202523582C20435231F3
:103DA000203D202523582C20535231203D2025230F
:103DB000582C20535232203D202523582C20657248
:103DC00072436F6465203D202523580A00000000DF
:103DD000F03D00080080012018040000783300083E
:103DE0000842000818840120A80900008833000850
:103DF00000000000963007772C610EEEBA51099949
:103E000019C46D078FF46A7035A563E9A395649EA4
:103E10003288DB0EA4B8DC791EE9D5E088D9D297C8
:103E20002B4CB609BD7CB17E072DB8E7911DBF9024
:103E30006410B71DF220B06A4871B9F3DE41BE8448
:103E40007DD4DA1AEBE4DD6D51B5D4F4C785D383A4
:103E500056986C13C0A86B647AF962FDECC9658A48
:103E60004F5C0114D96C0663633D0FFAF50D088DA4
:103E7000C8206E3B5E10694CE44160D5727167A248
:103E8000D1E4033C47D4044BFD850DD26BB50AA5A4
:103E9000FAA8B5356C98B242D6C9BBDB40F9BCACC8
:103EA000E36CD832755CDF45CF0DD6DC593DD1AB24
:103EB000AC30D9263A00DE518051D7C81661D0BF48
:103EC000B5F4B42123C4B3569995BACF0FA5BDB8A4
:103ED0009EB802280888055FB2D90CC624E90BB148
:103EE000877C6F2F114C6858AB1D61C13D2D66B6A4
:103EF0009041DC760671DB01BC20D2982A10D5EF08
:103F00008985B1711FB5B606A5E4BF9F33D4B8E863
:103F1000A2C9077834F9000F8EA8099618980EE107
:103F2000BB0D6A7F2D3D6D08976C6491015C63E663
:103F3000F4516B6B62616C1CD83065854E0062F287
:103F4000ED95066C7BA5011BC1F4088257C40FF5E3
:103F5000C6D9B06550E9B712EAB8BE8B7C88B9FC07
:103F6000DF1DDD62492DDA15F37CD38C654CD4FB63
:103F70005861B24DCE51B53A7400BCA3E230BBD407
:103F800041A5DF4AD795D83D6DC4D1A4FBF4D6D363
:103F90006AE96943FCD96E34468867ADD0B860DA07
:103FA000732D0444E51D03335F4C0AAAC97C0DDD63
:103FB0003C710550AA41022710100BBE86200CC987
:103FC00025B56857B3856F2009D466B99FE461CEE3
:103FD0000EF9DE5E98C9D9292298D0B0B4A8D7C707
:103FE000173DB359810DB42E3B5CBDB7AD6CBAC063
:103FF0002083B8EDB6B3BF9A0CE2B6039AD2B1747F
:104000003947D5EAAF77D29D1526DB048316DC73DA
:10401000120B63E3843B64943E6A6D0DA85A6A7A7E
:104020000BCF0EE49DFF099327AE000AB19E077DDA
:1040300044930FF0D2A3088768F2011EFEC20669FE
:104040005D5762F7CB67658071366C19E7066B6E5A
:10405000761BD4FEE02BD3895A7ADA10CC4ADD677E
:104060006FDFB9F9F9EFBE8E43BEB717D58EB060DA
:10407000E8A3D6D67E93D1A1C4C2D83852F2DF4F7E
:10408000F167BBD16757BCA6DD06B53F4B36B248DA
:10409000DA2B0DD84C1B0AAFF64A0336607A04417E
:1040A000C3EF60DF55DF67A8EF8E6E3179BE6946DA
:1040B0008CB361CB1A8366BCA0D26F2536E26852FE
:1040C00095770CCC03470BBBB91602222F2605555A
:1040D000BE3BBAC5280BBDB2925AB42B046AB35C7E
:1040E000A7FFD7C231CFD0B58B9ED92C1DAEDE5BDA
:1040F000B0C2649B26F263EC9CA36A750A936D02BE
:10410000A906099C3F360EEB856707721357000519
:10411000824ABF95147AB8E2AE2BB17B381BB60C3D
:104120009B8ED2920DBED5E5B7EFDC7C21DFDB0B99
:10413000D4D2D38642E2D4F1F8B3DD686E83DA1FBD
:10414000CD16BE815B26B9F6E177B06F7747B71819
:10415000E65A0888706A0FFFCA3B06665C0B0111BD
:10416000FF9E658F69AE62F8D3FF6B6145CF6C1619
:1041700078E20AA0EED20DD75483044EC2B30339BD
:10418000612667A7F71660D04D476949DB776E3E19
:104190004A6AD1AEDC5AD6D9660BDF40F03BD8373D
:1041A00053AEBCA9C59EBBDE7FCFB247E9FFB53099
:1041B0001CF2BDBD8AC2BACA3093B353A6A3B424BD
:1041C0000536D0BA9306D7CD2957DE54BF67D92319
:1041D0002E7A66B3B84A61C4021B685D942B6F2ABD
:1041E00037BE0BB4A18E0CC31BDF055A8DEF022D19
:1041F00000000000000000000100000010000000AE
:08420000000000000024F4009E
:04000005080001AD41
:00000001FF
