:020000040802F0
:10000000F8A00120C10102081F290208C526020824
:100010001D29020811150208F9310208000000002C
:10002000000000000000000000000000572C020843
:100030003D15020800000000552C0208592C02084A
:10004000DB010208DB010208DB010208DB01020818
:10005000DB010208DB010208DB010208DB01020808
:10006000DB010208DB010208DB010208DB010208F8
:10007000DB010208DB010208DB010208DB010208E8
:10008000DB010208DB010208DB010208DB010208D8
:10009000DB010208DB010208DB010208DB010208C8
:1000A000DB010208DB010208DB010208DB010208B8
:1000B000052D0208112D0208DB010208DB010208F0
:1000C000DB010208DB010208DB010208DB01020898
:1000D000DB010208013102080D31020889310208F2
:1000E000DB010208DB010208DB010208DB01020878
:1000F000DB010208DB010208DB010208DB01020868
:10010000DB010208DB010208DB010208DB01020857
:10011000DB010208DB010208DB010208DB01020847
:10012000DB010208DB010208DB010208DB01020837
:10013000DB010208DB010208DB010208DB01020827
:10014000DB010208DB010208DB010208DB01020817
:10015000DB010208DB010208DB010208DB01020807
:10016000DB010208DB010208DB010208DB010208F7
:10017000DB010208DB010208DB01020800000000CD
:10018000DB010208DB010208DB010208DB010208D7
:10019000DB010208DB010208DB010208DB010208C7
:1001A0000000000000000000DB010208DFF80CD0B6
:1001B00000F0FEFD00480047896D0208F8A001200C
:1001C0000648804706480047FEE7FEE7FEE7FEE7F1
:1001D000FEE7FEE7FEE7FEE7FEE7FEE7E92C0208A2
:1001E000AD0102082DE9F05F0546002092469B46CE
:1001F00088460646814640241BE02846414647463D
:10020000224600F0F2FA53465A46C01A914110D3E2
:1002100011461846224600F0D9FA2D1A67EB01085C
:100220004F4622460120002100F0D0FA17EB0009CA
:100230004E41201EA4F10104DFDC484631462A4627
:100240004346BDE8F09F40EA01039B0703D009E065
:1002500008C9121F08C0042AFAD203E011F8013BB2
:1002600000F8013B521EF9D27047D2B201E000F80B
:10027000012B491EFBD270470022F6E710B513464A
:100280000A4604461946FFF7F0FF204610BD421CFF
:1002900010F8011B0029FBD1801A704710B500220D
:1002A00000E0521C835C8C5CA34201D1002BF8D18E
:1002B000D8B2E1B2401A10BD034611F8012B00F884
:1002C000012B002AF9D118467047000070B50F4D78
:1002D00000B92868002412E00A4602E09E4203D0DA
:1002E000521C1378002BF9D1DAB2224305D02BB17E
:1002F00024B1002100F8011B04E00446401C0678EC
:10030000002EE9D12860204670BD00002C0D002091
:100310002DE9F0410E460546002400E0641C285DEE
:1003200000F081FA0746305D00F07DFA381A02D1FC
:10033000295D0029F2D1BDE8F0812DE9F0410546A3
:10034000002090460E46044600E0641C44450BD253
:10035000285D00F068FA0746305D00F064FA381A4C
:1003600002D1295D0029F0D1BDE8F0810FB400B5BC
:100370008DB010A909900B9000914FF0FF300A90BA
:1003800000200C9005480690054807906A4609A889
:100390000F9900F063FA0DB05DF814FB79080208BC
:1003A000970802082DE9FF5F1D464FF0FF3BD5E996
:1003B000014691465F464FF00008A9697F1C0198ED
:1003C0008847296A824688470028F6D1BAF1FF3F5C
:1003D0000CD024F4C064002E19DD600614D5BAF1E7
:1003E0002B0F09D0BAF12D0F0ED103E0584604B0FF
:1003F000BDE8F09F44F48064A9697F1C0198884798
:10040000761E8246002E02DDBAF1300F03D0B9F11C
:10041000000F26D032E0A969761E44F400747F1CD8
:10042000019888478246002E05DDBAF1780F06D084
:10043000BAF1580F03D0B9F1000F10D01EE0B9F196
:10044000000F02D0B9F1100F18D1A969761E24F45B
:1004500000747F1C019888478246102002E0082023
:1004600000E00A20814609E008FB0908A969761E18
:1004700044F400747F1C019888478246002E05DDF5
:100480004946504600F0D5F90028EDDAE9690198AF
:100490008847A00502D46FF00100A8E7E00725D146
:1004A000600613D5600502D5C8F1000000E04046A3
:1004B00029680A1D2A600968220501D5087015E01F
:1004C000220701D5088011E008600FE02868011DAF
:1004D00029600068210502D580F8008006E0210728
:1004E00002D5A0F8008001E0C0F8008038467EE721
:1004F0002DE9FF5FD2E901A74FF000089169994605
:100500001446DDF838B0464601988847054659EA52
:100510000B0005D009E0A169761C019888470546C3
:10052000216A284688470028F5D1681C03D05FEA75
:10053000CA7005D015E04FF0FF3004B0BDE8F09F61
:100540002068011D2160D0F800800AE05FEACA70CF
:1005500001D108F8015BA169761C7F1E01988847CC
:100560000546002F1ADD681C18D0B9F1000F0DD018
:10057000E81705EBD060421120F01F0059F8221057
:100580002A1A012090400142E0D107E0BBF1000FA0
:10059000DCD1216A284688470028D7D0E169019834
:1005A0008847BBF1000F07D1002E05DD5FEACA7056
:1005B00002D1002188F80010A068B84203DDBBF129
:1005C000000F03D017B16FF00100B6E73046B4E773
:1005D0002DE9F05F93460F4680460446002602F060
:1005E00031FED0F80090824614F8015B2DB100F086
:1005F0000DF90068405DC007F6D12B2D02D02D2DDE
:100600001AD0641E0021CAF800105A463946204606
:1006100000F052F9014627B13868A04201D1C7F86D
:100620000080DAF80000022809D0CAF800907005AE
:1006300005D54842BDE8F09F46F48066E2E70846EB
:10064000F8E72DE9F04D81EA030404F0004B21F0B6
:10065000004514464FF0000A23F0004150EA05021D
:1006600020D054EA01021DD0C5F30A570246C5F353
:100670001303C1F31300C1F30A5640F4801543F489
:100680008013A7EB0608101BD64608F2FD3873EB63
:10069000050002D308F1010801E092185B41B8F1AE
:1006A000000F03DA00200146BDE8F08D00204FF472
:1006B0008011064684460EE0171B73EB050705D331
:1006C000121B63EB050306434CEA010C49084FEA91
:1006D000300092185B4150EA0107EDD152EA030065
:1006E00012D082EA040083EA0501084305D0101BFA
:1006F000AB4106D20122002306E000224FF0004366
:1007000002E06FF0010253101AEB06004CEB0851A7
:1007100010EB0A0041EB0B01BDE8F04D00F0A1B970
:100720000EB5C10F80EAE0700844CA07002140F20C
:1007300033438DE80E000A460B4600F0A1F903B0E2
:1007400000BD00F0004230F000400AD0C10D01F5BC
:100750006071C0F3160042EA0151C208400711431C
:10076000704700200146704701F0004330B421F08B
:10077000004150EA010206D00A0DA2F56072C1F3F1
:100780001301002A02DC30BC00207047440F44EA09
:10079000C104C100E01830BC00EBC25000F02AB91F
:1007A00030B50B46014600202022012409E021FA41
:1007B00002F59D4205D303FA02F5491B04FA02F53E
:1007C0002844151EA2F10102F1DC30BD202A04DB11
:1007D000203A00FA02F1002070479140C2F1200354
:1007E00020FA03F3194390407047202A04DB203A93
:1007F00021FA02F00021704721FA02F3D040C2F141
:100800002002914008431946704700000048704795
:10081000407D020810B50446FFF7F8FF0068005D50
:1008200000F0010010BDA0F14101192900D82030CD
:1008300070473A2800D2303820F02002412A01D3F4
:10084000A2F13700884201D34FF0FF30704700001B
:10085000026811441378016018467047D16004495A
:1008600051610449116200211161114600F0C4BABE
:100870005108020815080208426842B1016811F8DF
:10088000013B23B1521EC0E90012184670470121F6
:10089000C160881E704742685AB1C368016843B995
:1008A00083688B4205D0491E521CC0E9001200200B
:1008B00070474FF0FF3070472DE9F05F82460078B7
:1008C000002715468B460AF10104B946302801D0AD
:1008D0009DB113E014F8010B0127782803D05828A4
:1008E00001D045B10AE00DB1102D07D10027102528
:1008F00014F8010B02E0082500E00A250026B046A6
:100900000EE005FB080005FB06F1012701EB104690
:100910001FFA80F8B6F5803F00D3B94614F8010BF2
:100920002946FFF786FF0028EBDABBF1000F05D060
:100930000FB1641E00E05446CBF80040B9F1000F3F
:1009400006D002F07FFC02210160C81EBDE8F09FC6
:1009500048EA0640FAE700000FB4002300B589B06A
:100960000CA900910B996FF00042CB601E4B0693CF
:100970001E4B07930423CDE901321D4A089202461B
:100980006B46002000F062FC09B05DF814FB70B506
:1009900086B006464FF0FF300091CDE901010020FE
:1009A00015460C4604903246694604A8FFF7D4FF6A
:1009B00002460498211825B108B1084600E02046F7
:1009C0002860049800280DD0002A02DD0098884293
:1009D00008D0081B0094CDE901043246694604A8FA
:1009E000FFF7BAFF06B070BD790802089708020841
:1009F000150802080029A8BF7047401C490008BF1D
:100A000020F00100704710B4B0FA80FC00FA0CF03E
:100A100050EA010404BF10BC704749B1CCF1200476
:100A200021FA04F411FA0CF118BF01212143084303
:100A3000A3EB0C01CB1D4FEA00614FEA102042BF2F
:100A4000002010BC704700EBC35010440029A4BF25
:100A500010BC7047401C490008BF20F0010010BCCA
:100A6000704710B5141E73F1000408DA401C41F100
:100A7000000192185B411A4301D120F0010010BD22
:100A80002DE9F04D92469B4611B1B1FA81F202E098
:100A9000B0FA80F220329046FFF798FE04460F46E7
:100AA00040EA0A0041EA0B0153465A46084313D074
:100AB000114653EA010019D0C8F140025046FFF731
:100AC00094FE05460E46504659464246FFF77EFEC6
:100AD000084305D0012004E020463946BDE8F08DEA
:100AE0000020054346EAE0762C4337430A98630525
:100AF000E40AA0EB08000022FD0A44EA47540A3049
:100B000002D500200146E9E7010510196941DDE938
:100B1000084500196941BDE8F04DA2E72DE9FE4FF7
:100B2000804681EA0300C00F0C46009021F000418E
:100B300023F00045B8EB0200A94105D2404621460A
:100B400090461C460B46024623F00040104347D017
:100B5000270DC7F30A00C3F30A510290401A01900F
:100B600040286BDAC3F3130040F4801B00989246D0
:100B700020B10023D2EB030A63EB0B0B019859461B
:100B8000C0F140025046FFF721FE06460D46504692
:100B90005946019A00F01EF910EB0800614100244B
:100BA00087EA115284EAE7731A4340D0009A62B38D
:100BB000019A012A4FEA075215DC001B61EB020182
:100BC0004FF0004202EA0752CDE90042001C41F515
:100BD000801132462B46FFF753FF03B0BDE8F08F7C
:100BE00040462146F9E7001B61EB0201001C41F57C
:100BF000801300185B412018A2F5001747EB030192
:100C000040EAD570B6196D4111E06D084FEA36061D
:100C100045EAC0754FEA0752001B61EB0201001C58
:100C200041F5801149084FEA300000195141324620
:100C30002B4603B0BDE8F04FFFF713BF0098012229
:100C400040000023D0EB020263EBE07300982146E2
:100C50004FEAE074B8EB000061EB0401E9E783F0D0
:100C600000435BE781F0004158E72DE9FE4F81EA40
:100C7000030404F0004421F0004100944FF0000B05
:100C800023F0004350EA01045ED052EA03045BD033
:100C9000C3F30A54C1F30A552C44A4F2F33401946B
:100CA000A0FB0254C1F3130141F48011C3F31303F9
:100CB00043F4801301FB024400FB034E840A970AAD
:100CC00044EA815447EA8357A4FB076802958D0ADA
:100CD00005FB07854FEA932C04FB0C542705029D66
:100CE0004FEA065847EA1637B5EB08056EEB070CD6
:100CF000870E920E47EA811742EA8312A7FB020190
:100D0000B6EB0B0164EB00042B0D43EA0C335E18C9
:100D100044EB1C50DA465146E7FB0201C5F31304CD
:100D20004FEA0B3343EA14534FEA0432019C43EA7F
:100D30000603A4F10C040294009CCDE900B4FFF773
:100D40009FFE03B0BDE8F08F00200146F9E7C1F334
:100D50000A52C1F3130140F2FF3341F480119A4269
:100D600002DA00200146704740F233439A42A2F271
:100D7000334202DC5242FFF738BDFFF727BD0000C7
:100D800030B5041E71F1000404DB4FF00044404212
:100D900064EB0101141E73F1000405DB1C464FF0E7
:100DA0000043524263EB0403994208BF904230BDB6
:100DB000064C074D06E0E06840F0010394E80700A8
:100DC00098471034AC42F6D3FFF7F4F96C80020870
:100DD0008C800208202A06DBCB17203A41FA02F069
:100DE00043EAE07306E041FA02F3D040C2F1200288
:100DF00091400843194670472DE9F34F8BB04FF0EF
:100E0000000801F10C000C464FF0010B46460DF1B5
:100E1000080A01906269012101989047051E2DD0B2
:100E2000252D2CD0216A8847C0B162690121019823
:100E30009047216A88470028F7D1411E62690198CE
:100E4000904700E0761CA1690B988847216A884783
:100E50000028F7D1E1690B988847DBE7A1690B9877
:100E600088470746A84201D1761CD3E7E1690B9871
:100E700088477F1C02D1B8F1000F6FD046E10027F0
:100E800062693D463946019890472A2804D1626933
:100E90000121019890470125DFF8849262690121C0
:100EA00001989047A0F130010A290AD24F45E5DCAC
:100EB00007EB870100EB4107303FDFD445F0100519
:100EC000ECE7E90601D46FF000476C280AD04C2803
:100ED00014D0682815D06A280DD074281CD07A2820
:100EE0001AD01DE062690121019890476C2802D058
:100EF00045F0040514E045F002050DE045F020053D
:100F00000AE06269012101989047682802D045F003
:100F1000080505E045F400656269012101989047E4
:100F2000C4E9015765283DD019DC58287AD00CDC7B
:100F3000452837D004DC252826D0412831D131E09E
:100F400046282FD047282CD12CE05B2877D0612869
:100F500028D063287CD0642823D15AE0D0E06F28C1
:100F600048D008DC66281DD067281BD0692821D00E
:100F70006E2816D127E0702845D0732868D07528D0
:100F800047D078280DD14DE0A1690B9888470546D8
:100F900025283FF469AFE1690B9888476D1C3FF441
:100FA0006AAFB3E023466A466FF001000B9900F088
:100FB0004DF99EE045F040006060A80723464FF0E1
:100FC000000236D43EE0E8077FF447AF2068011DF9
:100FD00021600068290501D506701BE7290701D5A6
:100FE000068017E7A90703D5F117C0E9006111E7EB
:100FF00006600FE745F040006060A80723464FF009
:10100000080216D41EE040F60E0125EA01006060D9
:1010100016E045F040006060A80723464FF00A0242
:1010200007D40FE045F040006060A80708D52346CC
:1010300010226FF001000B99AFF3008059E007E038
:10104000234610226FF001000B99FFF7ABF950E037
:101050004FF000094F464B46632802D05B2806D06C
:1010600040E0E80601D40120A06001273AE062696F
:101070000121019890475E2805D14FF0010962696E
:10108000494601989047216939B900210A465346DB
:1010900043F82120491C0829FADBB0B3216969B95A
:1010A000C11700EBD16253110AEB830122F01F023A
:1010B000821A01200B68904003430B606269012192
:1010C000019890475D28E8D1B9F1000F09D00020C0
:1010D000514651F82020D24341F82020401C0828D6
:1010E000F7DB02AB224600976FF001000B99FFF788
:1010F000FFF900280CDA401C08D1BBF1000F05D025
:101100004FF0FF300DB0BDE8F08FFFE74046F9E744
:10111000E90701D108F1010806444FF0000B79E618
:10112000CCCCCC0C2DE9FF4F087883B09946FF2832
:1011300005D0491C2D2804D00024002008E0002000
:101140000BE00124F9E700EB800003EB4000491CB1
:101150000B78FF2BF7D104B140420023029314789F
:1011600019461D462D2C01D02B2C04D1521C2D2CA0
:1011700013D000240294AA461478FF2C0FD00A251D
:10118000A3FB057801FB05814FF0000C03FB0C115C
:10119000521CE3194AEB0101EEE70124EAE781441E
:1011A00053EA010002D019F5C87F06DA039800213E
:1011B000C0E9001107B0BDE8F08F0025AE4E2F4604
:1011C000DFF8B882184600F05DF9CDE90001B9F109
:1011D000000002DAC9F1000400E004460023A74A37
:1011E0001AEB030B42EB045A12E0E00707D02A4641
:1011F000334638464146FFF738FD074688462A46BB
:10120000334610461946FFF730FD05460E4664107A
:10121000002CEAD1DDE90001B9F1000F5A4653462E
:1012200006DAFFF70EFA3A464346FFF70AFA05E0F8
:10123000FFF71BFD3A464346FFF717FD029A0AB136
:1012400081F00041039AC2E90001B3E72DE9FF4FA5
:101250001F468DB0D7E901464FF0FF382E20454696
:101260004FF000090B90B9696D1C0E988847396AD8
:10127000824688470028F6D1BAF1FF3F0AD024F40D
:10128000D064002E11DDBAF12B0F08D0BAF12D0F6A
:101290000BD102E0404611B08DE744F48064B96997
:1012A0006D1C0E9888478246761E6946600501D5FA
:1012B0002D2000E02B208DF8000001F1010B0DF135
:1012C000200809E0B9696D1C0E98884782460F987E
:1012D00044F40074761E0560002E02DDBAF1300F72
:1012E000F0D00B998A453ED144F0800406E00F9976
:1012F000681CA9F1010944F400740860B9696D1C07
:10130000761E0E98884782463028F0D02BE00B9945
:101310008A4505D1200603D444F08004761E18E0E7
:10132000504602F08FF808B30DF11301761E44F415
:1013300000748B4508D2AAF130000BF8010B20068F
:1013400007D5A9F1010003E0200602D409F101004C
:101350008146A00502D50F99681C0860B9696D1C0B
:101360000E9888478246002ED1DC53E0002E51DDD6
:10137000BAF1650F02D0BAF1450F4BD1A00549D59E
:10138000B9696D1C24F44074761E0E988847824615
:10139000002E0CDD2B2804D0BAF12D0F07D144F418
:1013A0008074B9696D1C0E9888478246761EE005E8
:1013B00001D52D2100E02B2108F8011BCDF82C8050
:1013C00021E00DF12901761E44F4007488450CD209
:1013D000AAF1300010F0FF0088F8000002D10B994C
:1013E000884509D908F1010806E0E00501D524483F
:1013F00001E042F20F708146B9696D1C0E98884772
:1014000082460F980560002E04DD504602F01AF85F
:101410000028D6D1F9690E988847FF208BF8000084
:1014200088F800000020069007904B466A4608A9FD
:1014300006A8FFF777FEA00502D46FF001002AE7A7
:1014400014F0240F0AD0E00714D1DDE90612386841
:10145000031D3B600068C0E900120BE0DDE90601F6
:10146000FFF782F90146E00704D13868021D3A60AF
:101470000068016028460EE7000014400000F03FBD
:10148000F1D8FFFF0EB540F2334202920022CDE9BF
:1014900000221346FFF7F4FA03B000BD70B58C18B4
:1014A00010F8015B15F0070301D110F8013B2A1178
:1014B00006D110F8012B03E010F8016B01F8016B65
:1014C0005B1EF9D12B0705D40023521E0DD401F861
:1014D000013BFAE710F8013BCB1A921C03E013F82A
:1014E000015B01F8015B521EF9D5A142D8D300205F
:1014F00070BD020E0A70020C4A70020A8A70C8702F
:1015000070470168C07809BA21F0FF0108437047AD
:10151000FEE7000030B54FF0FF330022064C07E035
:10152000855C5D40EDB2521C54F8255085EA1323CA
:101530008A42F5D3D84330BD080000207047704779
:1015400090F83510022903D08021416501207047B1
:10155000052180F835100068016821F00101016063
:101560000020704770B5044600F002F90546601C83
:1015700002D004480078044400F0FAF8401BA0426E
:10158000FAD370BD1C0D00202DE9F84F00224FF05A
:10159000010803254FF00F0E0B6808FA02F42340F0
:1015A000A3426ED14E68012E05D0022E03D0112E1B
:1015B00001D0122E12D186684FEA420C05FA0CF7C0
:1015C000BE43CF6807FA0CF7374387604668A643E7
:1015D0000C79C4F30014944034434460C668570047
:1015E00005FA07FC8C6826EA0C06BC403443C4604C
:1015F0004C68022C01D0122C13D1D40800EB8404C7
:10160000A346D4F8209054074FEAD46A0EFA0AF69B
:1016100029EA06090E6906FA0AF646EA0906CBF82F
:10162000206004680E7924EA0C0406F00306BE402C
:10163000264306604C68E4006FD53B4C266846F4B0
:1016400080462660246822F0030604F48044009457
:10165000364C3444A446D4F808489607360F0EFAA0
:1016600006F7BC43324FB84201D100272EE0314F7C
:10167000B84201D1012729E02F4FB84202D10227F9
:1016800024E04AE02D4FB84201D103271EE02C4F41
:10169000B84201D1042719E02A4FB84201D10527E9
:1016A00014E0294FB84201D106270FE0274FB84276
:1016B00001D107270AE0264FB84201D1082705E0EB
:1016C000244FB84201D1092700E00A27B740274339
:1016D000CCF80878204E34684F689C43FF0300D54F
:1016E0001C4334601C4E361D34684F689C43BF0356
:1016F00000D51C433460184E083634684F689C434C
:10170000FF0200D51C433460134E0C3634684F681A
:101710009C43BF0200D51C433460521C102AFFF4C6
:101720003BAFBDE8F88F0000443802400030014074
:10173000000002400004024000080240000C024089
:10174000001002400014024000180240001C024039
:101750000020024000240240003C01400069084093
:1017600000D0012070470AB1816170470904FBE78E
:1017700001488068704700001C0D00200248816805
:1017800002781144816070471C0D00200B4810B591
:10179000016841F400710160016841F480610160F9
:1017A000016841F480710160032000F06FF80020AF
:1017B00000F006F800F024F8002010BD003C0240C4
:1017C00070B50D4D04464FF47A712878B1FBF0F0F6
:1017D0000A490968B1FBF0F000F03CFB48B9102C55
:1017E00007D200222146501E00F030F800206C6025
:1017F00070BD012070BD00001C0D0020280D0020D0
:101800000A4808B5016841F480410160006800F4AD
:10181000804000900548001F016841F08051016040
:10182000006800F08050009008BD0000443802407D
:10183000002809DB00F01F020121914040098000CF
:1018400000F1E020C0F8001170470000F0B40E4B2A
:101850001B680C46C3F30223C3F10705042D00D90E
:101860000425191D072901D2002300E0DB1E0126F3
:1018700006FA05F1491E214099409E40761E164009
:101880003143F0BC01F0CEBC0CED00E0064900F0A5
:10189000070208684FF6FF03184040EA0220034A97
:1018A00010430860704700000CED00E00000FA05EE
:1018B0002DE9F8431748016841F080510160006844
:1018C000154F00F08050012600903E64FFF750FF56
:1018D00005464FF47A78114C05E000BFFFF748FF4A
:1018E000401B40450DD86068C003F7D57E64FFF704
:1018F0003FFF0546464607E0FFF73AFF401BB04270
:1019000002D90320BDE8F88360688003F4D5002085
:10191000F8E700004038024000000E42007000402E
:101920002DE9F0470E46050065D0DFF81481D8F8A0
:101930000000F7B200F00F00B04207D288F8007044
:10194000D8F8000000F00F00B04254D128683D4C98
:10195000810712D5400703D5206840F4E05020608D
:101960002878000703D5206840F460402060206894
:10197000A96820F0F000084320602878C0072DD027
:10198000304968680839012812D0022813D003288A
:1019900011D00968890700292DDA216821F0030197
:1019A00001432160FFF7E4FE814641F2883A0EE0F0
:1019B00009688903EFE709688901ECE7FFF7D8FEBA
:1019C000A0EB0901514502D90320BDE8F08720684A
:1019D000696800F00C00B0EB810FEFD1D8F800106F
:1019E000404601F00F01B14207D90770006800F0CE
:1019F0000F00B04201D00120E7E72878400705D565
:101A00002068E96820F4E050084320602878000747
:101A100006D52068296920F4604040EAC1002060B2
:101A200000F038F82168084AC1F30311515CC8403E
:101A30000649086006480068FFF7C2FE0020C4E7B8
:101A4000003C024008380240A47C0208280D002017
:101A5000200D00200448054900680968044AC1F3C4
:101A60008221515CC8407047280D00200838024090
:101A7000B47C02080448054900680968044AC1F3B7
:101A80004231515CC8407047280D002008380240A0
:101A9000B47C0208154810B5006810F00C02144818
:101AA00013D01449042A0FD0082A0ED10F4C241F3A
:101AB0002268236802F03F025B0207D52068C0F36A
:101AC0008810A0FB010106E0084610BD2168C1F3A3
:101AD0008811A1FB00010023FEF784FB2168C1F3FC
:101AE0000141491C4900B0FBF1F010BD083802402B
:101AF0000024F400002D31012DE9F84F040076D0C8
:101B00002078DFF838A3CE4DC00749D0DAF80010AE
:101B10005046C1F38101012908D00068C0F381005B
:101B200002280AD1281D0068400206D528688003D3
:101B300036D560680028E2D032E06068B0F5803FBA
:101B400010D0B0F5A02F286810D020F48030286085
:101B5000286820F4802028606068A0B1FFF708FEA4
:101B600006460CE0286840F48030F4E740F480201A
:101B70002860F7E7FFF7FCFD801B642873D828680E
:101B80008003F7D50CE0FFF7F3FD064605E000BF44
:101B9000FFF7EEFD801B6428F0D828688003F7D497
:101BA0002078DFF8A08280074FF000093ED5DAF8F0
:101BB0000010504611F00C0F09D00068C0F38100EE
:101BC00002280BD19D48001F0068400206D42868F7
:101BD000800715D5E068012809D111E0E068B8B1A7
:101BE0000120C8F80000FFF7C3FD064605E020E12C
:101BF000FFF7BEFD801B0228C0D828688007F7D5F4
:101C00002868216920F0F80040EAC10028600DE052
:101C1000C8F80090FFF7ACFD064604E0FFF7A8FD0A
:101C2000801B02281FD828688007F7D42078000777
:101C300022D5824E844861696C3671B10121016000
:101C4000FFF796FD074604E0FFF792FDC01B022850
:101C500009D830688007F7D50EE0C0F80090FFF78C
:101C600087FD074605E082E0FFF782FDC01B0228E2
:101C70007DD830688007F7D42078400768D5DFF832
:101C8000BCB100270BF1380BDBF80000C0000BD40F
:101C9000DBF8001041F08051CBF80010DBF80000B9
:101CA000012700F080500090684E3068C00510D4C5
:101CB000306840F480703060FFF75AFD009005E016
:101CC000FFF756FD0099401A022850D83068C00529
:101CD000F6D55A4EA068683601280FD0052830681E
:101CE00010D020F001003060306820F00400306037
:101CF000A068B8B1FFF73CFD00900FE0306840F0FD
:101D00000100F4E740F004003060F7E7FFF730FD32
:101D10000099411A41F28830814266D830688007C4
:101D2000F4D50EE0FFF724FD009007E0FFF720FD5B
:101D30000099411A41F28830814256D830688007B4
:101D4000F4D42FB1DBF8001021F08051CBF8001053
:101D5000A069D0B3DAF800205146C2F38102022A0A
:101D60004AD00228484607D0C8F8600000E03CE0AE
:101D7000FFF7FEFC04463BE04746C8F86000FFF76B
:101D8000F7FC064605E000BFFFF7F2FC801B0228C7
:101D90002BD828688001F7D4D4E907010843A16A49
:101DA0002B4A490802EB0141626A41EA8211084369
:101DB00094F82C1040EA01612048001F01600120C6
:101DC0003866FFF7D5FC044605E034E0FFF7D0FCA9
:101DD000001B022809D828688001F7D52BE000BF36
:101DE000FFF7C6FC001B022802D90320BDE8F88FCC
:101DF00028688001F4D41EE00128F7D00868E26961
:101E000000F48001914214D1226A00F03F01914216
:101E10000FD147F6C071626A0140914209D1A26AAE
:101E200000F44031914204D1E16A00F070608842D0
:101E300001D00120DAE70020D8E70000083802408E
:101E40000038024000004742800E474200700040C8
:101E50000000FFFF10B5401EB0F1807F01D30120CC
:101E600010BD4FF0E02460610F21601701F0DAF936
:101E70000020A06107202061002010BD704770473E
:101E800070B590F83C20012A32D0012480F83C4003
:101E9000022280F83D2003685A689D6822F070068F
:101EA0000A6832435A60134B02689A4214D0B2F166
:101EB000804F11D0104B9A420ED0104B9A420BD04B
:101EC0000F4B9A4208D00F4B9A4205D00E4B9A42C4
:101ED00002D00E4B9A4204D1496825F08003194381
:101EE000916080F83D40002180F83C10084670BDAC
:101EF000022070BD000001400004004000080040C6
:101F0000000C004000040140004001400018004067
:101F100010B5040003D094F83D0010B107E0012093
:101F200010BD002084F83C00204600F00DF802208F
:101F300084F83D00211D206800F0F0FE012084F8A7
:101F40003D00002010BD000008B501681448B1F143
:101F5000804F14D0134A914220D1016841F0020110
:101F600001600068002200F00200009011461D2070
:101F7000FFF76CFC1D20BDE80840FFF759BC016865
:101F800041F0010101600068002200F001000090B2
:101F900011461C20FFF75AFC1C20ECE708BD00008E
:101FA000403802400004004070B5044690F83C0000
:101FB000012817D0012584F83C50022084F83D0008
:101FC0002068826822F0770222F47F4282600868EB
:101FD000502830D00DDC20284DD005DC98B31028D7
:101FE0003BD148E0022070BD302844D0402834D195
:101FF00039E0602828D0702806D0B0F5805F2CD05A
:10200000B0F5005F29D10AE0CB68D1E90121206851
:1020100000F0E8FE2068816841F0770109E0CB68B4
:10202000D1E90121206800F0DDFE2068816841F4DB
:102030008041816011E0CA684968206800F0E4FED0
:102040005021206807E016E0CA684968206800F05F
:10205000ECFE6021206800F0CFFE84F83D500020A7
:1020600084F83C0070BDCA684968206800F0CCFE66
:1020700040212068EFE7226801461046EBE77047F1
:1020800070B50446006801694FF00005C94389072F
:1020900015D4C168C943890711D4E91E0161012023
:1020A0002077206880698007204602D0FFF7E7FF8D
:1020B00004E000F098F8204600F096F825772068B4
:1020C0000169C943490717D4C168C943490713D4F3
:1020D0006FF004010161022020772068806910F40C
:1020E000407F204602D0FFF7CAFF04E000F07BF8F3
:1020F000204600F079F8257720680169C94309076F
:1021000016D4C168C943090712D46FF008010161F0
:10211000042020772068C0698007204602D0FFF79E
:10212000AEFF04E000F05FF8204600F05DF8257790
:1021300020680169C943C90617D4C168C943C906E3
:1021400013D46FF010010161082020772068C06966
:1021500010F4407F204602D0FFF791FF04E000F02A
:1021600042F8204600F040F8257720680169C9430D
:10217000C90708D1C168C943C90704D1891E0161D3
:10218000204600F032F820680169C943090609D4E5
:10219000C168C943090605D46FF08001016120467A
:1021A000FFF76CFE20680169C943490609D4C1687C
:1021B000C943490605D46FF040010161204600F093
:1021C00015F820680169C94389060BD4C168C94361
:1021D000890607D46FF0200101612046BDE87040F8
:1021E000FFF74DBE70BD704770477047704770472E
:1021F00070B5026804461068D168536910F00F0F7B
:1022000052D003F0010501F490762E435FD0C2074F
:1022100005D0CA0503D5E26B42F00102E263420732
:1022200005D5DA0703D0E26B42F00202E2638207CF
:1022300005D5DA0703D0E26B42F00402E26302073D
:1022400007D501F020022A4303D0E26B42F00802D6
:10225000E263E26B002A33D0800604D5880602D5FB
:10226000204600F00AFE20684069E16BC0F3801050
:10227000090700D428B3204600F0F1FD2068416929
:1022800049061AD5416921F040014161606BA0B156
:102290001B490165606BFFF753F9002810D0606B94
:1022A000016DBDE870400847830610D58B060ED53A
:1022B0002046BDE8704000F0E0BD2046FFF797FFE4
:1022C00070BD2046FFF793FF0020E06370BD03065A
:1022D00006D50B0604D52046BDE8704000F0ACBE24
:1022E0004006F3D54806F1D5D168204621F04001DB
:1022F000D160202184F8391000F0E3F970BD0000AE
:102300004F2E020870B5040004D094F8390000255F
:1023100010B106E0012070BD84F83850204600F06E
:1023200023F8242084F839002068C16821F4005182
:10233000C160204600F0ECFD2068016921F4904165
:1023400001612068416921F02A0141612068C1686A
:1023500041F40051C160E563202084F8390084F81D
:102360003A00002070BD0000F0B587B0044614218B
:102370006846FDF781FF3D4B276800223C49022457
:10238000032507263B489F4221D1394B14331F6850
:1023900047F010071F601B6803F0100305930B68DC
:1023A00043F001030B60096802AB01F001010591E4
:1023B0006902CDE9001483E864006946FFF7E4F898
:1023C000002211462520FFF741FA252024E0284B62
:1023D000DFF8A4C01033674522D11F6847F40037E7
:1023E0001F601B6803F4003305930B6843F001037F
:1023F0000B60096802AF01F0010105910C21CDE9E4
:10240000001487E864006946FFF7BEF80022114611
:102410002620FFF71BFA2620FFF70AFA07B0F0BDC7
:1024200016488742FAD1186840F48020186018686E
:1024300000F480200590086840F0020008600868F9
:1024400002AF00F0020005904FF44060CDE90004B7
:1024500087E8640069460A48FFF796F800221146AB
:102460002720FFF7F3F92720D6E7000000100140EE
:102470003038024000000240004400400048004064
:10248000000402402DE9F843044690F83A009946CA
:1024900016460D46202852D1BDB1B6B194F8380089
:1024A00001284CD0012084F838000027E76322205F
:1024B00084F83A002C34FFF75BF924F8026B80466D
:1024C00024F80A6B04F8387931E00120BDE8F8837C
:1024D000E08D401EE085A0684346B0F5805F4FF078
:1024E00000024FF020012046CDF8009004D000F00B
:1024F000D4FD98B10320E9E700F0CFFD0028F9D121
:10250000206900282068406803D0C1B225F8011B6B
:102510000DE0C0F3080125F8021B08E0206900283F
:102520002068406801D000F07F0005F8010BE08DC5
:102530000028CDD1202084F83A000020C6E70220F0
:10254000C4E790F83A30202B22D1F9B1F2B190F8DB
:102550003830012B1CD081628285C2850021C16385
:10256000222280F83A2080F838100168CA6842F4C4
:102570008072CA6001684A6942F001024A610068DB
:10258000C16841F02001C160002070470120704700
:102590000220704719490068096888422DD11848FF
:1025A00001680868C2888388521C9A4205D0C38893
:1025B000028993420DD182885AB983880268D25C1D
:1025C000828803899A4201D1002201E08288521C4C
:1025D000828008680B49C38809780268D154C18891
:1025E0000289914201D1002101E0C188491CC180CA
:1025F000012204490148FFF7A4BF7047A09C0120B5
:10260000180D00200C0500202DE9F843044690F831
:1026100039001F4616460D46202850D1B5B1AEB13F
:1026200094F8380001284AD0012084F838004FF08F
:102630000008C4F83C80212084F83900FFF798F89E
:10264000A6848146E68484F8388026E00120BDE82F
:10265000F883E08C401EE084A0684B46B0F5805FB4
:102660004FF000024FF080012046009703D000F0A9
:1026700014FDE8B90DE000F010FDC8B92888216804
:10268000C0F308004860206908B16D1C05E0AD1C6E
:1026900003E0216815F8010B4860E08C0028D8D1D0
:1026A0004B46002240212046009700F0F6FC08B17E
:1026B0000320CCE7202084F839000020C7E702205F
:1026C000C5E77047FEE700002DE9F04186B0142110
:1026D0006846FDF7D1FD30480024016841F480715F
:1026E0000160016801F480710591016841F0010108
:1026F0000160016801F001010591016841F080016C
:102700000160016801F080010591016841F002015A
:1027100001600068214F00F00200059000221121A5
:102720003846FFF720F8DFF8788000224FF47F5119
:102730004046FFF718F801251120CDE90005CDE945
:10274000025469463846FEF71FFF0226CDE90064B1
:10275000694638460294FEF717FF4FF44050CDE922
:102760000005CDE9025469464046FEF70DFFA80377
:10277000CDE90004694640460294FEF705FF4FF498
:102780007C6003948DE8610069464046FEF7FCFEDC
:1027900006B0BDE8F0810000303802400020024061
:1027A000001C024010B586B0002417480094019424
:1027B0000294039404944FF08041059401604AF61A
:1027C000C771C0E901144FF47A71C0E90314802184
:1027D0008161FFF79DFB08B1FEF7B1FE4FF4805019
:1027E000009069460848FFF7DFFB08B1FEF7A7FE37
:1027F000049404A904480594FFF742FB002801D083
:10280000FEF79DFE06B010BDA09B012010B586B05E
:1028100000241748009401940294039404941349EB
:10282000059401604AF6C771C0E901140121C0E9AD
:10283000031480218161FFF76BFB08B1FEF77FFE77
:102840004FF48050009069460948FFF7ADFB08B18E
:10285000FEF775FE049404A905480594FFF710FBE4
:10286000002801D0FEF76BFE06B010BD000400404A
:10287000E09B01200C4810B50A4901604FF4E1319A
:102880004160002181600C22C160C0E904128161B5
:10289000C161FFF737FD002803D0BDE81040FEF707
:1028A0004EBE10BD00100140209C01200C4810B508
:1028B0000A4901604FF4E1314160002181600C223E
:1028C000C160C0E904128161C161FFF71BFD0028EE
:1028D00003D0BDE81040FEF732BE10BD00440040FA
:1028E000609C01200C4810B50A4901604FF4E131A9
:1028F0004160002181600C22C160C0E90412816145
:10290000C161FFF7FFFC002803D0BDE81040FEF7CF
:1029100016BE10BD00480040A09C0120FEE7704795
:102920002DE9F0410F46044616464BA1554800F0EC
:1029300065FC554D28780028524806D0FDF7A7FCC5
:102940000146504804F050FE07E0FDF7A0FC82B2BB
:10295000FF234C494D48FFF757FE22464CA14948FA
:1029600000F04CFC28780028464806D0FDF78FFC84
:102970000146444804F038FE07E0FDF788FC82B2C7
:10298000FF2340494148FFF73FFE002447E0A006EF
:102990001AD10A20FEF7E6FDA2093FA1394800F04E
:1029A0002DFC28780028374806D0FDF770FC01463A
:1029B000344804F019FE07E0FDF769FC82B2FF23FA
:1029C00030493248FFF720FEA006B0F17C4F02D01C
:1029D000701E844201D132A300E029A33A5D0A2A85
:1029E00002D00D2A02D002E04E2200E052222DA198
:1029F000244800F003FC28780028224806D0FDF780
:102A000046FC01461F4804F0EFFD07E0FDF73FFCE0
:102A100082B2FF231B491D48FFF7F6FD641CB44238
:102A2000B5D30DA1174800F0E9FB28780028154818
:102A300007D0FDF72CFCBDE8F0410146114804F039
:102A4000D3BDFDF724FCBDE8F04182B2FF230D4960
:102A50000E48FFF7D9BD00002A2A2A2A2A2A2A2A44
:102A60002A2A2A2A2A205052494E542043484152A9
:102A7000202A2A2A2A2A2A2A2A2A2A2A2A2A0D0AFD
:102A800000000000F09501200D050020A09C012011
:102A900025733A0D0A00000025303858203A2000EE
:102AA0000D0A000025632573000000002DE9F041A8
:102AB0000F460446164647A1504800F09FFB504D74
:102AC000287800284D4806D0FDF7E1FB01464B4829
:102AD00004F08AFD07E0FDF7DAFB82B2FF234749E5
:102AE0004848FFF791FD224647A1444800F086FB85
:102AF00028780028414806D0FDF7C9FB01463F4829
:102B000004F072FD07E0FDF7C2FB82B2FF233B49F0
:102B10003C48FFF779FD00243FE020071AD10A2046
:102B2000FEF720FD22093AA1344800F067FB28781F
:102B30000028324806D0FDF7AAFB01462F4804F0D2
:102B400053FD07E0FDF7A3FB82B2FF232B492D487D
:102B5000FFF75AFD2007B0F1704F02D0701E84427B
:102B600001D12DA300E02DA33A5D2DA1234800F053
:102B700045FB28780028214806D0FDF788FB014650
:102B80001E4804F031FD07E0FDF781FB82B2FF2310
:102B90001A491C48FFF738FD641CB442BDD323A179
:102BA000164800F02BFB28780028144807D0FDF7C2
:102BB0006EFBBDE8F0410146104804F015BDFDF77D
:102BC00066FBBDE8F04182B2FF230C490D48FFF7D8
:102BD0001BBD00002A2A2A2A2A2A2A2A2A2A2A2A25
:102BE0002A205052494E5420484558202A2A2A2A41
:102BF0002A2A2A2A2A2A2A2A2A0D0A00F09501209E
:102C00000D050020A09C012025733A0D0A0000004C
:102C100025303858203A20000D0A0000200000001E
:102C20003078253032582573000000002A2A2A2ADD
:102C30002A2A2A2A2A2A2A2A2A205052494E54204D
:102C4000454E44202A2A2A2A2A2A2A2A2A2A2A2A95
:102C50002A0D0A0070477047FEF790BD30B593B05B
:102C600030216846FDF708FB14210CA8FDF704FB92
:102C70001B480025016841F080510160006800F0A8
:102C8000805011901748016841F44041016000688C
:102C9000022400F4404011900120009000040190B3
:102CA0008001CDE90640142008904FF4B470CDE9BE
:102CB000090404200B906846FEF71EFFFEF7F8FD9E
:102CC0000CA90F2081E831004FF4A0500F90E002D2
:102CD000109005210CA8FEF723FE13B030BD0000B4
:102CE00040380240007000400448016841F470011F
:102CF00001600249024880390860704788ED00E0B1
:102D0000000002080148FFF7BBB90000A09B0120AA
:102D10000148FFF7B5B90000E09B0120F0B502685B
:102D2000254C264D264E274F274B4FF0804CA04276
:102D300009D0604507D0A84205D0B04203D0B842C0
:102D400001D0984204D122F0700E4A6842EA0E0285
:102D5000A0421BD0604519D0A84217D0B04215D070
:102D6000B84213D0984211D0184DA8420ED0184D39
:102D7000A8420BD0174DA84208D0174DA84205D045
:102D8000164DA84202D0164DA84203D122F4407538
:102D9000CA682A434D6922F080022A4302608A6889
:102DA000C2620A688262A04201D0984201D10969D8
:102DB000016301214161F0BD0000014000040040B9
:102DC00000080040000C00400004014000400140A9
:102DD000004401400048014000180040001C004031
:102DE0000020004010B5846842EA032224F47F44A6
:102DF0000A432243826010BD826822F070020A43B7
:102E000042F007018160704710B5036A046A24F03C
:102E100001040462846924F0F00444EA021423F0FB
:102E20000A020A438461026210BD10B5036A23F0EE
:102E3000100303628369046A23F4704343EA023295
:102E400024F0A00343EA01118261016210BD10B5B4
:102E5000806B0021C185C184FFF7C9F910BD0168ED
:102E6000CA6822F49072CA6001684A6922F00102BD
:102E70004A61202180F83A10704710B590F83A1056
:102E8000222901D0022010BD8168B1F5805F11D0E8
:102E90000169002901681FD0496801F07F03816A38
:102EA0004A1C82620B70C18D491E0904090CC18540
:102EB00018D02BE00269816A002A0268526805D0A6
:102EC000D2B20A80816A491C8162ECE7C2F308022F
:102ED0000A80816A891CF7E74A68816A4B1C836211
:102EE0000A70E0E70168CA6822F02002CA6001683F
:102EF000CA6822F48072CA6001684A6922F001023D
:102F00004A61202180F83A10FFF744FB002010BDF1
:102F10002DE9F041044600680169E26821F440515E
:102F2000114301612169A068E269084361691143A5
:102F300008432168CA6849F20C639A430243CA6095
:102F400020684169A26921F4407111434161E0693F
:102F5000192764253226B0F5004F354A35492068D7
:102F60004FF0000806D0884201D0904236D1FEF7DB
:102F700081FD35E0884201D0904202D1FEF77AFD12
:102F800001E0FEF767FD61684A18A0FB070148EB06
:102F90000803FDF727F90146B0FBF5F00201B1FB8C
:102FA000F5F06FF01803584301EB800006EBC0000A
:102FB000B0FBF5F000F0F80002EB4002B1FBF5F0D9
:102FC000584301EB800006EBC000B0FBF5F000F0C9
:102FD0000700216810448860BDE8F081FEF73AFDE3
:102FE00061688B0F8A00A0FB0701FDF7FBF8014623
:102FF000B0FBF5F06FF01802504301EB800006EBD8
:103000000010B0FBF5F000F0F002B1FBF5F002EBC0
:103010000012B1FBF5F06FF01803584301EB80008C
:1030200006EB0010B0FBF5F000F00F00D1E7000058
:10303000001401400010014090F83910212901D0FE
:10304000022070478168B1F5805F016A0BD04A1C8D
:103050000262026809785160C18C491E0904090C9A
:10306000C1840ED017E009880268C1F308015160DD
:1030700001690029016A02D0491C0162ECE7891C40
:10308000FBE70168CA6822F08002CA600068C16874
:1030900041F04001C160002070472DE9F0419846A1
:1030A00017460E460446069D1DE0681C1BD02DB138
:1030B000FEF75EFBA0EB0800A84214D92068C168A7
:1030C00021F4D071C1602068416921F001014161A2
:1030D000202084F8390084F83A00002084F8380071
:1030E0000320BDE8F0812068006836EA000004D0C3
:1030F0000020B842D9D00020F3E70120F9E7000012
:103100000148FFF775B80000209C012070B51A4CEB
:103110001A4920680968884228D11949097829B3D1
:10312000C168184D890608D50168890605D540682B
:10313000C1B22868006804F004FA2068C168090672
:103140000CD50068000609D52868406804F0F1F93C
:1031500028B12068C16821F08001C16070BD286875
:10316000406804F00EFA2168486070BDBDE8704008
:103170000248FFF73DB80000A09C0120609C0120A0
:103180000D050020180D002070B51848007838B3E0
:10319000174D2868C168174C890608D5016889064B
:1031A00005D54068C1B22068006804F0CAF92868F3
:1031B000C16809060CD50068000609D5206840687A
:1031C00004F0B7F928B12868C16821F08001C16016
:1031D00070BD2068406804F0D4F92968486070BD6B
:1031E000BDE870400248FFF703B800000D0500205D
:1031F000A09C0120180D0020FEE700000FB4084B32
:1032000010B504A902AA039800F024F9044602A903
:10321000002000F0B6FC204610BC5DF814FB000056
:10322000833B02080907090E002804DB00F1E020B7
:1032300080F80014704700F00F0000F1E02080F8E3
:10324000141D704700487047300D0020000000003A
:1032500030B583B0044600F017F89FED090B054622
:103260008DED000B002221466846FDF790FB2846B5
:1032700000F020F89DED000B03B030BD0000000011
:1032800000000000000000000148006870470000D6
:10329000300D002002E008C8121F08C1002AFAD130
:1032A00070477047002001E001C1121F002AFBD1C6
:1032B000704700000149086070470000300D002091
:1032C0002DE9FF5F82B00021DDE90430020DDDF859
:1032D00040B0034318D044F61050A2F2FF324243EC
:1032E0001514119801281FD0A5EB0B00401C5FEAB4
:1032F000000A4FF000064E4FDFF83891B0465046B6
:1033000015D5CAF1000413E0119801244AA301283D
:1033100001D16FEA0B010298119AC0E90031C0E9AE
:10332000024206B0BDE8F09FCBF10000DFE70446A3
:103330000021404A491842EB0450CDE9001012E048
:10334000E00707D032463B4640464946FDF78DFC34
:103350008046894632463B4610461946FDF785FCB5
:1033600006460F466410002CEAD1DDE90401DDE9D0
:103370000023BAF1000F06DAFDF777FC42464B4610
:10338000FDF773FC05E0FDF75CF942464B46FDF79F
:1033900058F904460E460022284BFDF7F1FC03D8ED
:1033A0004FF0FF30014607E00022254B2046314612
:1033B000FDF7B4FBFDF7CBFC102409E0002C0ADB81
:1033C0000A220023FCF70EFF039B30321A55641EBD
:1033D00050EA0102F2D1641C039AC4F111031444AF
:1033E000119A012A03D0012208430DD10AE00843B3
:1033F00004D000204FF0110B119072E7A3EB0B05E6
:103400006D1E0DE05B4504DD4FF0000205F1010586
:1034100004E003DA4FF00002A5F10105002AECD028
:1034200002981199C0E90231C0E9004579E700002E
:10343000000014400000F03F300000000000F043A6
:103440000000E03F30380A2801D2012070470020F8
:10345000704700002DE9FF4F95B09B468946064610
:1034600000250FE2252877D100242746F84A0121BC
:10347000059400E0044316F8013F203B01FA03F0F5
:103480001042F7D130782A2811D06FF02F0330780E
:10349000A0F13002092A16D8059A44F0020402EB82
:1034A000820203EB42021044761C0590EFE759F8C4
:1034B000042B0592002A03DA504244F4005405908C
:1034C00044F00204761C30782E2816D116F8010F2D
:1034D00044F004042A280DD06FF02F023078A0F1B8
:1034E0003003092B09D807EB870302EB4303C71806
:1034F000761CF3E759F8047B761C30786C280FD0E3
:1035000006DC4C2817D068280DD06A2814D104E0B6
:10351000742810D07A280FD10DE044F400140AE08A
:1035200044F4801401E044F440147278824202D1E1
:1035300004F58014761C761C307866280BD013DCDA
:10354000582877D009DC002875D04528F6D04628C1
:10355000F4D047281AD19DE118E0632835D06428BB
:1035600079D0652812D195E1702873D008DC6728DE
:10357000F1D069286FD06E280DD06F2806D1B5E044
:1035800073282CD0752875D0782874D05A4617998E
:1035900090476D1C75E1C4F30250022809D003283E
:1035A0000DD0D9F8001004280DD00D6009F10409E0
:1035B00067E1D9F80010EA17C1E90052F6E7D9F837
:1035C00000100D80F2E70D70F0E719F8041B8DF87C
:1035D000001000208DF80100EA46012003E059F8B0
:1035E00004AB4FF0FF3061074FF0000102D40DE053
:1035F00008F101018846B9420FDA8045F8DB1AF874
:1036000008100029F4D108E008F101018846814240
:10361000FADB1AF808100029F6D105985B46A0EBF2
:10362000080721463846179A00F094FA284400EB20
:10363000080507E04DE029E10DE01AF8010B5A46B4
:1036400017999047B8F10108F7D25B4621463846F2
:10365000179A13E142E00A220092C4F302524FF09B
:10366000000A022A08D059F804CB032A4FEAEC7169
:103670000AD00DE029E02AE009F1070121F0070254
:10368000F2E802C1914609E00FFA8CFC4FEAEC71B6
:10369000042A03D14FFA8CFC4FEAEC71002907DAB7
:1036A0000A460021DCF1000C61EB02012D2202E050
:1036B000220504D52B228DF80420012203E0E20725
:1036C00001D02022F7E7904659E00A2102E01022BB
:1036D0000DE010214FF0000A00910BE010224FF096
:1036E000000A44F004040827009203E008224FF087
:1036F000000A0092C4F30252022A05D059F804CB02
:103700000021032A08D009E009F1070121F007028E
:10371000F2E802C1914605E01FFA8CFC042A01D1AF
:103720000CF0FF0C4FF00008220728D5702806D0B7
:10373000009B83F0100353EA0A0305D00EE04022F9
:103740008DF80420012208E05CEA010206D0302254
:103750008DF804208DF8050002229046009B83F02E
:10376000080353EA0A030AD15CEA010201D16207A5
:1037700005D530228DF804204FF001087F1E58280F
:1037800004D034A003900EA802900DE036A0F9E713
:1037900053466046009AFCF725FD84460398825CF8
:1037A0000298401E029002705CEA0100F0D102987B
:1037B00006A9081A00F1200A600702D524F4803413
:1037C00000E00127574502DDA7EB0A0000E00020DA
:1037D00000EB0A01009005984144401A0590E0036F
:1037E00006D45B462146179A059800F0B3F90544C4
:1037F000002706E001A85A46C05D179990476D1C46
:103800007F1C4745F6DBE0030CD55B462146179A43
:10381000059800F09FF9054404E030205A461799B6
:1038200090476D1C0099481E00900029F5DC08E0C7
:10383000029802995A460078491C029117999047BC
:103840006D1CBAF10001AAF1010AF1DC65E100008A
:103850000928010030313233343536373839616266
:10386000636465660000000030313233343536372A
:1038700038394142434445460000000000F058F901
:103880000544761C307800287FF4ECAD19B028464A
:10389000BDE8F08F620700D4062709F1070222F085
:1038A000070CFCE80223E14603F000485FEA080C3D
:1038B00002D00FF2702C0DE05FEA045C02D50FF22B
:1038C000682C07E05FEAC47C02D00FF2602C01E0B4
:1038D000AFF2700C4FF0FF3823F00043CDF850C02A
:1038E00065280CD006DC452809D046281DD047287D
:1038F0003DD13DE0662818D067287ED138E0002110
:10390000112F01DB112000E0781CCDE9000106A990
:103910000EA8FFF7D5FCDDE90F010E9A03910021F7
:10392000009207F1010A04914DE04FF0004000972A
:10393000CDE9011006A90EA8FFF7C2FCDDE90F02D0
:1039400003920E9B11990022DDF80CA000930492C3
:1039500011B9791C00EB010AB7EB0A0004D4C0F1DD
:10396000FF3007F1010A0490AAEB0700019044E040
:10397000012F00DA01270021112F01DD112000E0C5
:103980003846CDE9000106A90EA8FFF799FCDDE94C
:103990000F010E9A0391002104910092BA4621076B
:1039A0000CD40399514500DA8A46BAF1010F05DDBE
:1039B000009AAAF10101515C302908D0B84202DA1C
:1039C00010F1040F06DA0121CDE9011015E0AAF18A
:1039D0000101E9E7002805DC049901440491AAEB00
:1039E000000102E0411C514500DD8A460499401A5D
:1039F000401C01904FF000400290200704D4019831
:103A0000504501DBCDF8048000208DF84F0002986E
:103A10000DF14F07B0F1004F25D02B200E900298EA
:103A20004FF0020800280CDA404202902D200E9040
:103A300007E00A210298FCF7B3FE3031029007F844
:103A4000011DB8F10001A8F10108F2DC029800287C
:103A5000EFD1791E0E980870307800F0200040F009
:103A6000450007F8020D12A8C01B00F107081498C2
:103A7000007800B1012000EB0A01019801EBE07130
:103A800005984144401A401E0590E00306D45B4669
:103A90002146179A059800F05DF8054414980078BF
:103AA00018B15A46179990476D1CE00324D55B4620
:103AB0002146179A059800F04DF805441CE004983B
:103AC000002807DBDDE90301884203DD0098405C44
:103AD000179901E0179930205A469047049805F14C
:103AE0000105401C04900198401E019004D12E2035
:103AF0005A46179990476D1CBAF10001AAF1010AC4
:103B0000DDDC05E017F8010B5A46179990476D1C4C
:103B1000B8F10001A8F10108F4DC5B462146179AD0
:103B20000598ABE62D0000002B00000020000000EF
:103B30002DE9F041044600251E461746880404D4AA
:103B400005E039462020B0476D1C641EF9D5284693
:103B5000BDE8F0812DE9F041044600251E4690465F
:103B6000C80301D5302700E02027880404D505E0EC
:103B700041463846B0476D1C641EF9D52846BDE85D
:103B8000F0810A68531C0B6010707047F0B52DED82
:103B9000028B83B0012807D9086800F0BBFA002027
:103BA00003B0BDEC028BF0BD2C4800212D4B01630E
:103BB00041632B480090082203F59661772003F0BB
:103BC000CFFA0500ECD128A12C48FFF717FB2C4EAB
:103BD00030780028294806D0FCF759FB01462748D1
:103BE00003F002FD07E0FCF752FB82B2FF232349FA
:103BF0002448FEF709FD1B4F9FED238A002400BFD8
:103C000007EB84000930FDF77CFC00EE100AF8EEAB
:103C1000C00A80EE880A10EE100AFCF792FDCDE98A
:103C20000001621C19A11548FFF7E8FA3078002856
:103C3000124806D0FCF72BFB0146104803F0D4FCD9
:103C400007E0FCF724FB82B2FF230C490D48FEF786
:103C5000DBFC641C402CD3D32846A1E7B49101209F
:103C600004000020348D0120496E73657274696F01
:103C70006E204C6F73733A0D0A000000F09501201E
:103C80000D050020A09C01200000C84225752C25B0
:103C90002E32660D0A00000038B5012804D90868E4
:103CA00000F038FA002038BD194800211A4B016392
:103CB000416318480090082203F59661602003F0E4
:103CC0004FFA0400EFD114480930FDF71AFC134DE8
:103CD00018B1A52803D012A102E016A100E01CA192
:103CE0002248FFF78BFA28780028204806D0FCF7F6
:103CF000CEFA01461D4803F077FC07E0FCF7C7FA4F
:103D000082B2FF2319491A48FEF77EFC204638BDCF
:103D1000B491012004000020348D01200D05002005
:103D2000556E6B6E6F776E207374617475730D0AC8
:103D30000000000044657669636520696E206E6F3F
:103D4000726D616C207374617475730D0A000000EC
:103D500044657669636520696E206572726F7220B2
:103D60007374617475730D0A00000000F0950120F2
:103D7000A09C012070B50C460546052806D0032DF1
:103D800015D0042D29D0052D05D24FE071A1606812
:103D9000FCF7BEFA28B170A16068FCF7B9FAC8B3A5
:103DA00046E021462846BDE8704001F0C5B86BA149
:103DB0006068FCF7ADFA50B169A16068FCF7A8FA39
:103DC00010B36AA16068FCF7A3FA48B330E021465B
:103DD0002846BDE8704000F059BE66A16068FCF757
:103DE00097FA28B164A16068FCF792FA30B11FE03D
:103DF00021462846BDE8704002F0B4BA2146284664
:103E0000BDE8704001F0A8BE21462846BDE87040DC
:103E100002F026BA21462846BDE8704000F060BF97
:103E200021462846BDE8704001F062B9032D08D351
:103E300052A16068FCF76CFA30B1032D0AD0052D51
:103E40001ED0022D3FD05CE021462846BDE87040E0
:103E500001F03CBD4BA16068FCF75AFA20B94AA1B9
:103E6000A068FCF755FA28B149A16068FCF750FA40
:103E7000C0B11CE021462846BDE8704001F092BF69
:103E800040A16068FCF744FA00283AD141A1A0683B
:103E9000FCF73EFA002834D1D4E90301BDE87040B4
:103EA00002F00ABC38A1A068FCF732FA28B13BA1A5
:103EB0006068FCF72DFAA8B323E021462846BDE848
:103EC000704001F053BF38A16068FCF721FAE8B1F7
:103ED00037A16068FCF71CFAF0B137A16068FCF705
:103EE00017FA28B337A16068FCF712FA30B33BA188
:103EF0006068FCF70DFA28B33FA16068FCF708FA88
:103F000020B3206800F006F9002070BD2146284645
:103F1000BDE8704001F0AEBD21462846BDE87040C6
:103F200000F0CEBF21462846BDE8704001F002BF38
:103F300021462846BDE8704001F050BFBDE8704002
:103F400002F06CBBBDE8704002F0E2BABDE8704020
:103F500001F03CBD6461630063616C0061646300F7
:103F60007377697463685F696F00000064756D70D2
:103F7000000000007461670070696E006565707212
:103F80006F6D00006C6F67007265736574000000F0
:103F90006677000077726974650000007072696E60
:103FA000745F6865780000006D6F6E69746F7200F1
:103FB000637263333200000073656E645F68657816
:103FC00000000000757067726164655F626F6F74F6
:103FD0006C6F616465725F6D6F64650075706772A8
:103FE0006164655F626F6F746C6F616465725F6955
:103FF0006E7374616C6C0000696E7465725F6578D5
:10400000700000002DE9F04786B02022102101A8A1
:10401000FCF72BF90024DFF8C8900DF1040A314DAC
:10402000314F56E004EB840605EB86082FA1D8F843
:104030000C00FCF733F900284AD055F82600FCF7AD
:1040400026F9C0F10C0100220AF801202AA12C480F
:10405000FFF7D4F899F800000028294806D0FCF7AB
:1040600016F90146264803F0BFFA07E0FCF70FF9FE
:1040700082B2FF2322492348FEF7C6FAD8F8080087
:10408000009055F8262001AB1FA11D48FFF7B6F898
:1040900099F8000000281A4806D0FCF7F8F8014605
:1040A000174803F0A1FA07E0FCF7F1F882B2FF230A
:1040B00013491448FEF7A8FA55F82600FCF7E7F86C
:1040C000C0F10C0120220AF801201E20FDF74AFA57
:1040D000641C38688442A5D306B00020BDE8F08790
:1040E0000D05002008040020A07C0208494E54451C
:1040F000524E414C00000000636D643A2000000005
:10410000F0950120A09C0120257325732D20257397
:104110000D0A00002DE9F04107460026534D544C8E
:1041200009E000BF06EB8600394655F82000FCF791
:10413000EFF830B1761C20688642F3D30020BDE84A
:10414000F0814CA14D48FFF759F84D4C20780028DC
:104150004A4806D0FCF79BF80146484803F044FA69
:1041600007E0FCF794F882B2FF2344494548FEF784
:104170004BFA06EB860644A155F826203F48FFF788
:104180003DF8207800283D4806D0FCF780F801462D
:104190003A4803F029FA07E0FCF779F882B2FF23E6
:1041A00036493848FEF730FA39A13448FFF726F887
:1041B00020780028314806D0FCF769F801462F48DE
:1041C00003F012FA07E0FCF762F882B2FF232B49F2
:1041D0002C48FEF719FA05EB86052BA12748EA685B
:1041E000FFF70CF820780028244806D0FCF74FF899
:1041F0000146224803F0F8F907E0FCF748F882B2DC
:10420000FF231E491F48FEF7FFF925A11B48FEF7B3
:10421000F5FF20780028194806D0FCF738F8014649
:10422000164803F0E1F907E0FCF731F882B2FF230A
:1042300012491448FEF7E8F913A110482A69FEF75D
:10424000DDFF207800280D4806D0FCF720F8014655
:104250000A4803F0C9F971E7FCF719F882B2FF23A5
:1042600006490848FEF7D0F968E700000804002076
:10427000A07C0208636D643A20000000F0950120E4
:104280000D050020A09C012025730D0A00000000F0
:10429000202020202075736167653A2020200000CF
:1042A00020202020206578616D706C653A20000028
:1042B00010B50C46022802D0042809D00DE00CA14C
:1042C0006068FCF725F840B9BDE8104002F00EBD6B
:1042D00009A16068FCF71CF820B12068FFF71AFFFD
:1042E000002010BDD4E90201BDE8104002F020BC5E
:1042F0007061636B657473006765740038B501287D
:1043000004D90868FFF706FF002038BD32480021B5
:10431000334B0163416331480090082203F59661F5
:10432000E02002F01DFF0500EFD12D480D30FDF714
:10433000E8F802462BA13148FEF760FF304C2078A8
:1043400000282E4806D0FBF7A2FF01462B4803F0B9
:104350004BF907E0FBF79BFF82B2FF23274929486F
:10436000FEF752F91E481130FDF7CBF8024626A1A0
:104370002248FEF743FF20780028204806D0FBF7AC
:1043800086FF01461D4803F02FF907E0FBF77FFF8A
:1043900082B2FF2319491B48FEF736F91048153041
:1043A000FDF7AFF802461EA11448FEF727FF20785C
:1043B0000028124806D0FBF76AFF01460F4803F0B9
:1043C00013F907E0FBF763FF82B2FF230B490D48A7
:1043D000FEF71AF9284638BDB491012004000020E8
:1043E000348D01204572726F7220436F64652031F5
:1043F000203A202523580D0A00000000F0950120E6
:104400000D050020A09C01204572726F7220436F41
:1044100064652032203A202523580D0A0000000050
:104420004572726F7220436F64652033203A2025F5
:1044300023580D0A00000000F8B500260C4602289B
:104440000FD151A16068FBF763FF514D70B151A1CD
:104450006068FBF75DFFA0B150A16068FBF758FFF3
:10446000E8B12068FFF756FE0020F8BD00220121C8
:104470002846FDF778F90120FDF774F8012211466E
:1044800009E0002210212846FDF76DF90120FDF713
:1044900069F8012210212846FDF765F972E04148CC
:1044A0000021424B016341633F480090082203F51D
:1044B0009661402002F054FE0600D6D13CA140484F
:1044C000FEF79CFE3F4D287800283D4806D0FBF7BC
:1044D000DEFE01463A4803F087F807E0FBF7D7FE17
:1044E00082B2FF2336493848FEF78EF82F4C37A1A9
:1044F000313422463248FEF781FE287800283048C1
:1045000006D0FBF7C4FE01462D4803F06DF807E026
:10451000FBF7BDFE82B2FF2329492B48FEF774F852
:10452000253422462FA12648FEF768FE2878002869
:10453000234806D0FBF7ABFE0146214803F054F8B0
:1045400007E0FBF7A4FE82B2FF231D491E48FEF7D9
:104550005BF804F114022BA11948FEF74FFE2878EE
:104560000028174806D0FBF792FE0146144803F0D6
:104570003BF807E0FBF78BFE82B2FF23104912489D
:10458000FEF742F83046F8BD686172640000000032
:10459000002002406D61737465720000736F667471
:1045A00000000000B491012004000020348D01209F
:1045B000526573657420737563636573730D0A00C8
:1045C000F09501200D050020A09C01204669726D28
:1045D000776172652056657273696F6E3A20257334
:1045E0000D0A0000417373656D626C79205365722A
:1045F00069616C204E756D6265723A2025730D0AF3
:104600000000000046696C74657220536572696130
:104610006C204E756D6265723A2025730D0A00009C
:1046200070B50C460546032802D002280BD00FE0D7
:104630000CA16068FBF76CFE50B921462846BDE826
:10464000704003F09FB809A16068FBF761FE20B1DC
:104650002068FFF75FFD002070BDBDE8704002F0EC
:10466000A1B800007772697465000000726561642A
:104670000000000038B5012804D90868FFF74AFD9A
:10468000002038BD1C4800211D4B016341631B48BD
:104690000090082203F59661502002F061FD0400AD
:1046A000EFD117480930FCF72CFFFCF739F89FEDE4
:1046B000151B53EC112BFBF7C4FF41EC100B13A19E
:1046C00053EC102B1748FEF799FD17480078002887
:1046D000144806D0FBF7DBFD0146124802F084FFC8
:1046E00007E0FBF7D4FD82B2FF230E490F48FDF728
:1046F0008BFF204638BD0000B4910120040000204B
:10470000348D0120000000000000244054656D70CD
:10471000657261747572653A20252E316C66430DA1
:104720000A000000F09501200D050020A09C01204A
:1047300010B50C46082802D002280CD010E00DA1BC
:104740006068FBF7E5FD58B904F10801BDE81040C9
:10475000062002F095BF08A16068FBF7D9FD20B1E3
:104760002068FFF7D7FC002010BDBDE8104001F025
:10477000D7BF0000736574006765740010B50C4600
:10478000022802D0032814D02AE01CA16068FBF79D
:10479000BFFD50B11BA16068FBF7BAFDC8B11BA1FA
:1047A0006068FBF7B5FD20B31AE0BDE8104003F0E8
:1047B0008BB912A16068FBF7ABFD28B111A160684D
:1047C000FBF7A6FD38B10BE0A068BDE8104003F090
:1047D000C5B9012009E00FA1A068FBF799FD20B140
:1047E0002068FFF797FC002010BDBDE8104002F0E4
:1047F000E7BFBDE8104003F021BA0000696E69749C
:104800000000000066696C6500000000696E73744A
:10481000616C6C006E6F5F7665726966790000008E
:10482000F8B50C4659490022594F0A63594D4A635D
:10483000022806D001282DD92068FFF76BFC002044
:10484000F8BD55A16068FBF763FD0028F4D141F283
:104850008734534B082203F596613020009702F00D
:104860007FFC060014D022464EA185E0FBF70FFD29
:1048700001464F4802F0B8FE08E000BFFBF707FD15
:1048800082B2FF234A494B48FDF7BEFE3046F8BDD1
:10489000641EDED2424B082203F596613020009759
:1048A00002F05EFC0600F2D13D4C43A11D342246CD
:1048B0003F48FEF7A3FC287800283D4806D0FBF7C8
:1048C000E6FC01463A4802F08FFE07E0FBF7DFFC0A
:1048D00082B2FF2336493748FDF796FE0A34224656
:1048E0003BA13348FEF78AFC28780028304806D0E0
:1048F000FBF7CDFC01462E4802F076FE07E0FBF701
:10490000C6FC82B2FF232A492A48FDF77DFE0A34FD
:10491000224635A12648FEF771FC28780028244855
:1049200006D0FBF7B4FC0146214802F05DFE07E02B
:10493000FBF7ADFC82B2FF231D491E48FDF764FE64
:10494000253422462EA11A48FEF758FC2878002864
:10495000174806D0FBF79BFC0146154802F044FEC1
:1049600007E0FBF794FC82B2FF2311491148FDF7E1
:104970004BFE04F114022AA10D48FEF73FFC2878F3
:1049800000280B483FF47AAF70E70000B491012093
:10499000040000200D050020726570656174000040
:1049A000348D012069203D2025750D0A000000008E
:1049B000F0950120A09C012050726F6475637420F3
:1049C0004E756D6265723A2025730D0A0000000075
:1049D0004D616E75666163747572652044617465BE
:1049E0003A2025730D0A00004669726D7761726581
:1049F0002056657273696F6E3A2025730D0A0000A8
:104A0000417373656D626C792053657269616C20C6
:104A10004E756D6265723A2025730D0A0000000024
:104A200046696C7465722053657269616C204E75BD
:104A30006D6265723A2025730D0A000010B50C46B0
:104A4000022802D0032809D012E00EA16068FBF70B
:104A50005FFC68B9BDE8104001F0ECBE09A16068D8
:104A6000FBF756FC20B908A1A068FBF751FC20B168
:104A70002068FFF74FFB002010BDBDE8104001F09B
:104A800077BF000067657400746872002DE9F84F05
:104A90000C468868022267A1FBF74FFC664E00288F
:104AA000DFF898A1664F674DA06806F108086FF01F
:104AB000004BA6F2A7490BD0032263A1FBF73DFCF4
:104AC000002863D02068FFF725FB0020BDE8F88FA1
:104AD0000A220021801CFBF77BFD0346401E0728AD
:104AE00018D35AA15F48FEF789FB287800285D4853
:104AF00006D0FBF7CCFB01465A4802F075FD07E0F3
:104B0000FBF7C5FB82B2FF2356495748FDF77CFDF2
:104B10000120DBE748495046FCF7EBFC311D022041
:104B2000FCF7E7FC41461846FCF7E3FC4F4B0C2230
:104B300041495846009702F013FB0400C6D148468D
:104B4000FCF7DFFC83B2020C49A14648FEF756FB96
:104B500028780028434806D0FBF799FB01464148D6
:104B600002F042FD07E0FBF792FB82B2FF233D49D2
:104B70003D48FDF749FD3D480D30FCF7C2FC83B2CE
:104B8000020C44A13748FEF739FB3EE0A0680A2238
:104B90000021C01CFBF71CFD0346072818D946A1BD
:104BA0003048FEF72BFB287800282E4806D0FBF76C
:104BB0006EFB01462B4802F017FD07E0FBF767FB91
:104BC00082B2FF2327492848FDF71EFD02207DE71A
:104BD00019495046FCF78DFC311D0320FCF789FC78
:104BE00041461846FCF785FC204B0C2212495846DA
:104BF000009702F0B5FA04008BD14846FCF781FC1F
:104C000082B233A11748FEF7F9FA28780028154830
:104C100006D0FBF73CFB0146124802F0E5FC07E03A
:104C2000FBF735FB82B2FF230E490F48FDF7ECFC82
:104C300020464BE773770000E4910120A5A55A5A5E
:104C4000040000200D050020766F6C005377697416
:104C50006368206E756D62657220696E76616C693D
:104C6000640D0A00F0950120A09C0120348D0120E4
:104C7000506F7369746976652078203D2025752C06
:104C8000204E656761746976652078203D20257522
:104C90000D0A0000506F7369746976652079203DB4
:104CA0002025752C204E6567617469766520792012
:104CB0003D2025750D0A0000414443206E756D624C
:104CC000657220696E76616C69640D0A00000000EF
:104CD00056616C7565203D2025750D0A00000000A9
:104CE0002DE9FE4F634DDFF890B1644E0C4605F19F
:104CF000080905F10C08052802D006282AD02FE063
:104D00005FA1A068FBF704FB30B15EA1A068FBF7D0
:104D1000FFFA00287DD023E00A220021E068FBF79B
:104D200057FC07462069FEF793FA51EC100BFBF78E
:104D30001BFD00EE100ADFED540A4E49584620EEE6
:104D4000200ABDEEC00A8DED010AFCF7D2FB291D39
:104D5000072081E002224DA1A068FBF7EEFA28B1FE
:104D60002068FFF7D7F90020BDE8FE8FA0680A226F
:104D70000021801CFBF72CFC0746401E072819D396
:104D800043A14948FEF73AFA4848007800284648C7
:104D900006D0FBF77CFA0146434802F025FC07E009
:104DA000FBF775FA82B2FF233F494148FDF72CFC1F
:104DB0000120D9E70A220021E068FBF709FC8246BE
:104DC00001AA3CA12069FBF7D1FA02AA39A16069C6
:104DD000FBF7CCFA27495846FCF78BFB291D062028
:104DE000FCF787FB49463846FCF783FB41465046B3
:104DF000FCF77FFB1F4901981031FCF77AFB1D4936
:104E000002981431FCF775FB2B4B182200961949B8
:104E100000E004E06FF0004002F0A2F9A4E70A22EB
:104E20000021E068FBF7D4FB07462069FEF710FA83
:104E300051EC100BFBF798FC00EE100ADFED1F0A97
:104E40000C49584620EE200ABDEEC00A8DED010A3D
:104E5000FCF74FFB291D0820FCF74BFB4946384661
:104E6000FCF747FB41460198FCF743FB124B10222D
:104E70000096CCE7E4910120A5A55A5A0400002031
:104E8000696C0000746872000000C842737700000B
:104E9000537769746368206E756D62657220696E00
:104EA00076616C69640D0A00F09501200D05002003
:104EB000A09C012025640000348D012000007A446C
:104EC0001CB512A1D1E90001CDE900010821684615
:104ED000FCF720FB02460FA11448FEF78FF9144897
:104EE00000780028114806D0FBF7D1F901460F4899
:104EF00002F07AFB07E0FBF7CAF982B2FF230B4905
:104F00000C48FDF781FB00201CBD0000313233341A
:104F100035363738435243333220726573756C74BB
:104F2000206973202523580D0A000000F095012008
:104F30000D050020A09C01202DE9FE430C46886849
:104F400050A1FBF7E5F9504E58B102224FA1A068DD
:104F5000FBF7F3F938B12068FFF7DCF80020BDE873
:104F6000FE83002522E0A0680A220021801CFBF7B6
:104F70002FFB0546401E072818D345A14A48FEF7D7
:104F80003DF930780028484806D0FBF780F9014603
:104F9000454802F029FB07E0FBF779F982B2FF23CD
:104FA00041494248FDF730FB0120D8E701AA40A162
:104FB000E068FBF7DBF9DFF8FC800198404503DD92
:104FC0004FF48047B84218DB3BA13748FEF716F98B
:104FD00030780028344806D0FBF759F901463248AA
:104FE00002F002FB07E0FBF752F982B2FF232E49E1
:104FF0002E48FDF709FB0220B1E702AA2CA1206987
:10500000FBF7B4F90298404501DDB84218DB2FA147
:105010002548FEF7F3F830780028234806D0FBF740
:1050200036F90146204802F0DFFA07E0FBF72FF9D6
:1050300082B2FF231C491D48FDF7E6FA03208EE7E4
:1050400027492848FCF755FA25490120091DFCF796
:1050500050FA234928460831FCF74BFA20490198B9
:105060000C31FCF746FA1E4902981031FCF741FA60
:105070001D4800901D4B142219496FF0004002F0AA
:105080006FF86CE7616C6C000D0500207377000011
:10509000537769746368206E756D62657220696EFE
:1050A00076616C69640D0A00F0950120A09C0120D6
:1050B0002564000000C0FFFF56616C7565207820F4
:1050C000696E76616C69640D0A00000056616C754A
:1050D00065207920696E76616C69640D0A000000B4
:1050E000E4910120A5A55A5A04000020348D012026
:1050F0002DE9F0412DED048B0C4682B08868FEA1AD
:10510000FBF706F9FD4DA0B10222FDA1A068FBF757
:1051100014F90028A0680ED0FAA1FBF7F9F890B3B3
:105120002068FEF7F7FF002002B0BDEC048BBDE85D
:10513000F08100242DE00A220021801CFBF748FAB0
:105140000446401E072818D3EFA1F548FEF756F88D
:1051500028780028F24806D0FBF799F80146F04875
:1051600002F042FA07E0FBF792F882B2FF23EC4923
:10517000EC48FDF749FA0120D6E7012C04D0072CB2
:1051800004D00B2705E003E0062702E0092700E032
:105190000824E549E548FCF7ACF9E3490920091D75
:1051A000FCF7A7F9E04920460831FCF7A2F9E048EE
:1051B0000090E04B0C22DC496FF0004001F0D0FF82
:1051C0000600B1D1DFF86C8384B1082C7AD2DAA161
:1051D000D348FEF713F828780028D1484BD0FBF7C6
:1051E00056F80146CE4802F0FFF94CE0D5A1CC4874
:1051F000FEF704F828780028C94806D0FBF747F8DE
:105200000146C74802F0F0F907E0FBF740F882B228
:10521000FF23C349C348FDF7F7F900249FEDCE8B68
:105220004FEA080707EB84000930FCF76AF9FBF73F
:1052300077FA53EC182BFBF704FACDE90001621C56
:10524000C7A1B748FDF7DAFF28780028B44806D090
:10525000FBF71DF80146B24802F0C6F907E0FBF77C
:1052600016F882B2FF23AE49AE48FDF7CDF9641CB3
:10527000402CD7D3BEE2FBF70AF882B2FF23A8493D
:10528000A848FDF7C1F9002426E000BF08EBC402DE
:1052900002F10900FCF735F9034602F10D00FCF7B5
:1052A00030F90090621CB1A19D48FDF7A7FF287856
:1052B00000289B4807D0FAF7EAFF0146984802F019
:1052C00093F908E00BE0FAF7E2FF82B2FF2394497A
:1052D0009448FDF799F9641CBC42D7D38AE2C9D13E
:1052E00094480930FCF70DF9FBF71AFA9FEDA28BF1
:1052F00053EC182BFBF7A5F941EC190B8D480D3039
:10530000FCF7FFF8FBF70CFA53EC182BFBF799F9B5
:10531000CDE9000153EC192B99A18148FDF76EFFEF
:10532000287800287E4806D0FAF7B1FF01467C486D
:1053300002F05AF907E0FAF7AAFF82B2FF23784990
:105340007848FDF761F97B481130FCF7DAF8FBF794
:10535000E7F953EC182BFBF774F941EC190B75487E
:105360001530FCF7CEF8FBF7DBF953EC182BFBF705
:1053700068F9CDE9000153EC192B8AA16848FDF7C3
:105380003DFF28780028664806D0FAF780FF0146DE
:10539000634802F029F907E0FAF779FF82B2FF23A8
:1053A0005F496048FDF730F962481930FCF7A9F809
:1053B000FBF7B6F953EC182BFBF743F941EC190B4B
:1053C0005C481D30FCF79DF8FBF7AAF953EC182B4D
:1053D000FBF737F9CDE9000153EC192B7AA15048BE
:1053E000FDF70CFF287800284D4806D0FAF74FFF4C
:1053F00001464B4802F0F8F807E0FAF748FF82B29E
:10540000FF2347494748FDF7FFF84A482130FCF79A
:1054100078F8FBF785F953EC182BFBF712F941EC00
:10542000190B44482530FCF76CF8FBF779F953EC7D
:10543000182BFBF706F9CDE9000153EC192B6BA1F2
:105440003748FDF7DBFE28780028354806D0FAF704
:105450001EFF0146324802F0C7F807E0FAF717FFCF
:1054600082B2FF232E492F48FDF7CEF8314829306C
:10547000FCF747F8FBF754F953EC182BFBF7E1F86E
:1054800041EC190B2B482D30FCF73BF8FBF748F9A2
:1054900053EC182BFBF7D5F8CDE9000153EC192B91
:1054A0005BA11F48FDF7AAFE287800281C4806D0FB
:1054B000FAF7EDFE01461A4802F096F807E0FAF70F
:1054C000E6FE82B2FF2316491648FDF79DF81948FB
:1054D0003130FCF716F8FBF723F953EC182BFBF7E8
:1054E000B0F841EC190B13483530FCF70AF8FBF71C
:1054F00017F953EC182B9DE0696C00000D05002096
:105500007377000074687200537769746368206E63
:10551000756D62657220696E76616C69640D0A0052
:10552000F0950120A09C0120E4910120A5A55A5AE4
:1055300004000020348D01205377697463683A0DAC
:105540000A000000496E73657274696F6E204C6FBB
:1055500073733A0D0A00000000000000000059407B
:1055600025752C252E32660D0A00000025752C2588
:10557000642C25640D0A00000000000000408F40EC
:10558000322E355620486967682054687265736802
:105590006F6C643A20252E336C662C20252E336CDC
:1055A000660D0A00322E3556204C6F7720546872F3
:1055B0006573686F6C643A20252E336C662C202549
:1055C0002E336C660D0A0000332E3356204869676F
:1055D00068205468726573686F6C643A20252E33B6
:1055E0006C662C20252E336C660D0A00332E335644
:1055F000204C6F77205468726573686F6C643A2032
:10560000252E336C662C20252E336C660D0A000087
:10561000352E305620486967682054687265736873
:105620006F6C643A20252E336C662C20252E336C4B
:10563000660D0A00FBF705F8CDE9000153EC192BC4
:105640006DA17648FDF7DAFD28780028734806D06A
:10565000FAF71DFE0146714801F0C6FF07E0FAF7B0
:1056600016FE82B2FF236D496D48FCF7CDFF6D48F1
:10567000FBF747FFFBF754F853EC182BFAF7E1FF61
:1056800041EC190B6748001DFBF73BFFFBF748F89F
:1056900053EC182BFAF7D5FFCDE9000153EC192B89
:1056A00061A15E48FDF7AAFD287800285B4806D076
:1056B000FAF7EDFD0146594801F096FF07E0FAF7C9
:1056C000E6FD82B2FF2355495548FCF79DFF55483A
:1056D0000830FBF716FFFBF723F853EC182BFAF70B
:1056E000B0FF41EC190B4F480C30FBF70AFFFBF7FA
:1056F00017F853EC182BFAF7A4FFCDE9000153EC8F
:10570000192B53A14548FDF779FD28780028434817
:1057100006D0FAF7BCFD0146404801F065FF07E0FE
:10572000FAF7B5FD82B2FF233C493D48FCF76CFF18
:105730003C481030FBF7E5FEFAF7F2FF53EC182B6C
:10574000FAF77FFF41EC190B36481430FBF7D9FE0E
:10575000FAF7E6FF53EC182BFAF773FFCDE90001D7
:1057600053EC192B43A12D48FDF748FD287800285C
:105770002A4806D0FAF78BFD0146284801F034FF8D
:1057800007E0FAF784FD82B2FF2324492448FCF79E
:105790003BFF24481830FBF7B4FEFAF7C1FF53EC87
:1057A000182BFAF74EFF41EC190B1E481C30FBF783
:1057B000A8FEFAF7B5FF53EC182BFAF742FFCDE934
:1057C000000153EC192B36A11448FDF717FD28787A
:1057D0000028124806D0FAF75AFD01460F4801F09A
:1057E00003FF07E0FAF753FD82B2FF230B490C4891
:1057F000FCF70AFF304697E4352E3056204C6F7781
:10580000205468726573686F6C643A20252E336C7F
:10581000662C20252E336C660D0A0000F0950120C1
:10582000A09C01206D8D012036342E305620486911
:105830006768205468726573686F6C643A20252E1F
:10584000336C662C20252E336C660D0A0000000098
:1058500036342E3056204C6F77205468726573684A
:105860006F6C643A20252E336C662C20252E336C09
:10587000660D0A0054656D706572617475726520FD
:1058800048696768205468726573686F6C643A2071
:10589000252E336C662C20252E336C660D0A0000F5
:1058A00054656D7065726174757265204C6F7720F8
:1058B0005468726573686F6C643A20252E336C6689
:1058C0002C20252E336C660D0A00000038B50C46DE
:1058D000052804D12DA1A068FAF71AFD20B120688F
:1058E000FEF718FC002038BD00221146E068FAF7E8
:1058F0006FFE0546002211462069FAF769FE04464C
:10590000280C02D1B4F5806F19D922A12548FDF7E2
:1059100075FC254800780028224806D0FAF7B7FC25
:105920000146204801F060FE07E0FAF7B0FC82B2C1
:10593000FF231C491D48FCF767FE012038BD1C49A8
:105940001C48FBF7D6FD1A490A20091DFBF7D1FDBB
:10595000174928460831FBF7CCFD154920460C3184
:10596000FBF7C7FD14480090144B102210496FF04C
:10597000004001F0F5FB0500E0D12CB10F492246B3
:1059800009310FA0FDF792F8284638BD72656164B1
:10599000000000004172677320696E76616C696473
:1059A0000D0A0000F09501200D050020A09C0120AB
:1059B000E4910120A5A55A5A04000020348D01204D
:1059C000454550524F4D2044554D500038B519496A
:1059D0001948FBF78EFD1749FF20091DFBF789FDCC
:1059E00016480090164B082212496FF0004001F053
:1059F000B7FB04001DD112480930FBF782FD0246B7
:105A000010A11948FDF7FAFB18480078002816483D
:105A100006D0FAF73CFC0146134801F0E5FD07E02B
:105A2000FAF735FC82B2FF230F491148FCF7ECFD71
:105A3000204638BDE4910120A5A55A5A0400002053
:105A4000348D0120496E7465726E616C20457863F7
:105A5000657074696F6E20436F64652069732025DB
:105A600023580D0A00000000F09501200D050020CC
:105A7000A09C012070B502212248FBF76FFE05466D
:105A80004FF480412048FBF769FE0446012D10D0F9
:105A90001EA21FA12448FDF7B1FB244D2878002841
:105AA000214808D0FAF7F3FB01461F4801F09CFD9E
:105AB00009E01FA2EDE7FAF7EAFB82B2FF231A49D9
:105AC0001D48FCF7A1FD012C0FD010A21BA1164808
:105AD000FDF794FB28780028134808D0FAF7D7FB85
