:020000040802F0
:10000000F8A00120C101020837280208DD250208F6
:1000100035280208291402080D31020800000000EA
:100020000000000000000000000000006B2B020830
:100030005514020800000000692B02086D2B02080D
:10004000DB010208DB010208DB010208DB01020818
:10005000DB010208DB010208DB010208DB01020808
:10006000DB010208DB010208DB010208DB010208F8
:10007000DB010208DB010208DB010208DB010208E8
:10008000DB010208DB010208DB010208DB010208D8
:10009000DB010208DB010208DB010208DB010208C8
:1000A000DB010208DB010208DB010208DB010208B8
:1000B000192C0208252C0208DB010208DB010208CA
:1000C000DB010208DB010208DB010208DB01020898
:1000D000DB01020815300208213002089D300208B9
:1000E000DB010208DB010208DB010208DB01020878
:1000F000DB010208DB010208DB010208DB01020868
:10010000DB010208DB010208DB010208DB01020857
:10011000DB010208DB010208DB010208DB01020847
:10012000DB010208DB010208DB010208DB01020837
:10013000DB010208DB010208DB010208DB01020827
:10014000DB010208DB010208DB010208DB01020817
:10015000DB010208DB010208DB010208DB01020807
:10016000DB010208DB010208DB010208DB010208F7
:10017000DB010208DB010208DB01020800000000CD
:10018000DB010208DB010208DB010208DB010208D7
:10019000DB010208DB010208DB010208DB010208C7
:1001A0000000000000000000DB010208DFF80CD0B6
:1001B00000F08AFD00480047FD5F0208F8A001201A
:1001C0000648804706480047FEE7FEE7FEE7FEE7F1
:1001D000FEE7FEE7FEE7FEE7FEE7FEE7FD2B02088F
:1001E000AD0102082DE9F05F0546002092469B46CE
:1001F00088460646814640241BE02846414647463D
:10020000224600F07EFA53465A46C01A914110D356
:1002100011461846224600F065FA2D1A67EB0108D0
:100220004F4622460120002100F05CFA17EB00093E
:100230004E41201EA4F10104DFDC484631462A4627
:100240004346BDE8F09F40EA01039B0703D009E065
:1002500008C9121F08C0042AFAD203E011F8013BB2
:1002600000F8013B521EF9D27047D2B201E000F80B
:10027000012B491EFBD270470022F6E710B513464A
:100280000A4604461946FFF7F0FF204610BD421CFF
:1002900010F8011B0029FBD1801A704710B500220D
:1002A00000E0521C835C8C5CA34201D1002BF8D18E
:1002B000D8B2E1B2401A10BD034611F8012B00F884
:1002C000012B002AF9D118467047000070B50F4D78
:1002D00000B92868002412E00A4602E09E4203D0DA
:1002E000521C1378002BF9D1DAB2224305D02BB17E
:1002F00024B1002100F8011B04E00446401C0678EC
:10030000002EE9D12860204670BD00002C0D002091
:100310002DE9F0410E460546002400E0641C285DEE
:1003200000F00DFA0746305D00F009FA381A02D1E4
:10033000295D0029F2D1BDE8F0812DE9F0410546A3
:10034000002090460E46044600E0641C44450BD253
:10035000285D00F0F4F90746305D00F0F0F9381A36
:1003600002D1295D0029F0D1BDE8F0810FB400B5BC
:100370008DB010A909900B9000914FF0FF300A90BA
:1003800000200C9005480690054807906A4609A889
:100390000F9900F0EFF90DB05DF814FB910702081A
:1003A000AF0702082DE9FF5F1D464FF0FF3BD5E97F
:1003B000014691465F464FF00008A9697F1C0198ED
:1003C0008847296A824688470028F6D1BAF1FF3F5C
:1003D0000CD024F4C064002E19DD600614D5BAF1E7
:1003E0002B0F09D0BAF12D0F0ED103E0584604B0FF
:1003F000BDE8F09F44F48064A9697F1C0198884798
:10040000761E8246002E02DDBAF1300F03D0B9F11C
:10041000000F26D032E0A969761E44F400747F1CD8
:10042000019888478246002E05DDBAF1780F06D084
:10043000BAF1580F03D0B9F1000F10D01EE0B9F196
:10044000000F02D0B9F1100F18D1A969761E24F45B
:1004500000747F1C019888478246102002E0082023
:1004600000E00A20814609E008FB0908A969761E18
:1004700044F400747F1C019888478246002E05DDF5
:100480004946504600F061F90028EDDAE969019823
:100490008847A00502D46FF00100A8E7E00725D146
:1004A000600613D5600502D5C8F1000000E04046A3
:1004B00029680A1D2A600968220501D5087015E01F
:1004C000220701D5088011E008600FE02868011DAF
:1004D00029600068210502D580F8008006E0210728
:1004E00002D5A0F8008001E0C0F8008038467EE721
:1004F0002DE9F05F93460F4680460446002602F041
:100500002BFED0F80090824614F8015B2DB100F06C
:1005100009F90068405DC007F6D12B2D02D02D2DC2
:100520001AD0641E0021CAF800105A4639462046E7
:1005300000F04EF9014627B13868A04201D1C7F852
:100540000080DAF80000022809D0CAF8009070058F
:1005500005D54842BDE8F09F46F48066E2E70846CC
:10056000F8E72DE9F04D81EA030404F0004B21F097
:10057000004514464FF0000A23F0004150EA0502FE
:1005800020D054EA01021DD0C5F30A570246C5F334
:100590001303C1F31300C1F30A5640F4801543F46A
:1005A0008013A7EB0608101BD64608F2FD3873EB44
:1005B000050002D308F1010801E092185B41B8F18F
:1005C000000F03DA00200146BDE8F08D00204FF453
:1005D0008011064684460EE0171B73EB050705D312
:1005E000121B63EB050306434CEA010C49084FEA72
:1005F000300092185B4150EA0107EDD152EA030046
:1006000012D082EA040083EA0501084305D0101BDA
:10061000AB4106D20122002306E000224FF0004346
:1006200002E06FF0010253101AEB06004CEB085188
:1006300010EB0A0041EB0B01BDE8F04D00F09DB955
:100640000EB540F2334102910021CDE900110A4676
:100650000B4600F0A1F903B000BD00F0004230F0FD
:1006600000400AD0C10D01F56071C0F3160042EAE6
:100670000151C208400711437047002001467047EE
:1006800001F0004330B421F0004150EA010206D0ED
:100690000A0DA2F56072C1F31301002A02DC30BC1E
:1006A00000207047440F44EAC104C100E01830BC88
:1006B00000EBC25000F02AB930B50B4601460020CD
:1006C0002022012409E021FA02F59D4205D303FA14
:1006D00002F5491B04FA02F52844151EA2F1010295
:1006E000F1DC30BD202A04DB203A00FA02F10020C0
:1006F00070479140C2F1200320FA03F31943904060
:100700007047202A04DB203A21FA02F000217047CA
:1007100021FA02F3D040C2F1200291400843194669
:100720007047000000487047BC6E020810B50446D0
:10073000FFF7F8FF0068005D00F0010010BDA0F1B8
:100740004101192900D8203070473A2800D23038AA
:1007500020F02002412A01D3A2F13700884201D3C0
:100760004FF0FF30704700000268114413780160B9
:1007700018467047D1600449516104491162002153
:100780001161114600F0C4BA690702082D0702087A
:10079000426842B1016811F8013B23B1521EC0E921
:1007A0000012184670470121C160881E70474268D8
:1007B0005AB1C368016843B983688B4205D0491EAA
:1007C000521CC0E90012002070474FF0FF30704704
:1007D0002DE9F05F82460078002715468B460AF126
:1007E0000104B946302801D09DB113E014F8010B83
:1007F0000127782803D0582801D045B10AE00DB16F
:10080000102D07D10027102514F8010B02E0082550
:1008100000E00A250026B0460EE005FB080005FBB7
:1008200006F1012701EB10461FFA80F8B6F5803F6C
:1008300000D3B94614F8010B2946FFF786FF0028BC
:10084000EBDABBF1000F05D00FB1641E00E0544697
:10085000CBF80040B9F1000F06D002F07DFC022178
:100860000160C81EBDE8F09F48EA0640FAE70000B4
:100870000FB4002300B589B00CA900910B996FF05B
:100880000042CB601E4B06931E4B07930423CDE919
:1008900001321D4A089202466B46002000F062FCBD
:1008A00009B05DF814FB70B586B006464FF0FF3016
:1008B0000091CDE90101002015460C460490324616
:1008C000694604A8FFF7D4FF02460498211825B111
:1008D00008B1084600E020462860049800280DD0A2
:1008E000002A02DD0098884208D0081B0094CDE958
:1008F00001043246694604A8FFF7BAFF06B070BD8E
:1009000091070208AF0702082D0702080029A8BFB7
:100910007047401C490008BF20F00100704710B428
:10092000B0FA80FC00FA0CF050EA010404BF10BCDD
:10093000704749B1CCF1200421FA04F411FA0CF10A
:1009400018BF012121430843A3EB0C01CB1D4FEA43
:1009500000614FEA102042BF002010BC704700EB3E
:10096000C35010440029A4BF10BC7047401C49006C
:1009700008BF20F0010010BC704710B5141E73F1C1
:10098000000408DA401C41F1000192185B411A434F
:1009900001D120F0010010BD2DE9F04D92469B469B
:1009A00011B1B1FA81F202E0B0FA80F22032904641
:1009B000FFF798FE04460F4640EA0A0041EA0B01A1
:1009C00053465A46084313D0114653EA010019D042
:1009D000C8F140025046FFF794FE05460E465046C9
:1009E00059464246FFF77EFE084305D0012004E049
:1009F00020463946BDE8F08D0020054346EAE07602
:100A00002C4337430A986305E40AA0EB0800002250
:100A1000FD0A44EA47540A3002D500200146E9E7BE
:100A2000010510196941DDE9084500196941BDE872
:100A3000F04DA2E72DE9FE4F804681EA0300C00F8A
:100A40000C46009021F0004123F00045B8EB020075
:100A5000A94105D24046214690461C460B46024617
:100A600023F00040104347D0270DC7F30A00C3F31B
:100A70000A510290401A019040286BDAC3F3130028
:100A800040F4801B0098924620B10023D2EB030A69
:100A900063EB0B0B01985946C0F140025046FFF73B
:100AA00021FE06460D4650465946019A00F01EF9B1
:100AB00010EB08006141002487EA115284EAE773D1
:100AC0001A4340D0009A62B3019A012A4FEA0752B2
:100AD00015DC001B61EB02014FF0004202EA0752F5
:100AE000CDE90042001C41F5801132462B46FFF74C
:100AF00053FF03B0BDE8F08F40462146F9E7001BE5
:100B000061EB0201001C41F5801300185B412018C5
:100B1000A2F5001747EB030140EAD570B6196D4105
:100B200011E06D084FEA360645EAC0754FEA0752F4
:100B3000001B61EB0201001C41F5801149084FEADE
:100B400030000019514132462B4603B0BDE8F04F4A
:100B5000FFF713BF0098012240000023D0EB0202F0
:100B600063EBE073009821464FEAE074B8EB0000B5
:100B700061EB0401E9E783F000435BE781F00041AA
:100B800058E72DE9FE4F81EA030404F0004421F008
:100B9000004100944FF0000B23F0004350EA0104A1
:100BA0005ED052EA03045BD0C3F30A54C1F30A5582
:100BB0002C44A4F2F3340194A0FB0254C1F31301BA
:100BC00041F48011C3F3130343F4801301FB024487
:100BD00000FB034E840A970A44EA815447EA83578C
:100BE000A4FB076802958D0A05FB07854FEA932C45
:100BF00004FB0C542705029D4FEA065847EA1637B6
:100C0000B5EB08056EEB070C870E920E47EA8117CD
:100C100042EA8312A7FB0201B6EB0B0164EB00046E
:100C20002B0D43EA0C335E1844EB1C50DA46514658
:100C3000E7FB0201C5F313044FEA0B3343EA1453F5
:100C40004FEA0432019C43EA0603A4F10C04029427
:100C5000009CCDE900B4FFF79FFE03B0BDE8F08F24
:100C600000200146F9E7C1F30A52C1F3130140F233
:100C7000FF3341F480119A4202DA002001467047A6
:100C800040F233439A42A2F2334202DC5242FFF76F
:100C900038BDFFF727BD000030B5041E71F1000418
:100CA00004DB4FF00044404264EB0101141E73F179
:100CB000000405DB1C464FF00043524263EB040383
:100CC000994208BF904230BD064C074D06E0E068EF
:100CD00040F0010394E8070098471034AC42F6D383
:100CE000FFF768FAE871020808720208202A06DB9A
:100CF000CB17203A41FA02F043EAE07306E041FAEA
:100D000002F3D040C2F120029140084319467047D7
:100D10002DE9F34F8BB04FF0000801F10C000C46A9
:100D20004FF0010B46460DF1080A0190626901215E
:100D300001989047051E2DD0252D2CD0216A88477B
:100D4000C0B16269012101989047216A8847002853
:100D5000F7D1411E62690198904700E0761CA169B5
:100D60000B988847216A88470028F7D1E1690B98DA
:100D70008847DBE7A1690B9888470746A84201D15D
:100D8000761CD3E7E1690B9888477F1C02D1B8F144
:100D9000000F6FD046E1002762693D463946019851
:100DA00090472A2804D162690121019890470125C2
:100DB000DFF884926269012101989047A0F1300127
:100DC0000A290AD24F45E5DC07EB870100EB410712
:100DD000303FDFD445F01005ECE7E90601D46FF0B1
:100DE00000476C280AD04C2814D0682815D06A28EF
:100DF0000DD074281CD07A281AD01DE06269012118
:100E0000019890476C2802D045F0040514E045F0A5
:100E100002050DE045F020050AE062690121019814
:100E20009047682802D045F0080505E045F40065C4
:100E30006269012101989047C4E9015765283DD0B6
:100E400019DC58287AD00CDC452837D004DC25285A
:100E500026D0412831D131E046282FD047282CD147
:100E60002CE05B2877D0612828D063287CD06428C8
:100E700023D15AE0D0E06F2848D008DC66281DD086
:100E800067281BD0692821D06E2816D127E070284A
:100E900045D0732868D0752847D078280DD14DE00B
:100EA000A1690B988847054625283FF469AFE16999
:100EB0000B9888476D1C3FF46AAFB3E023466A463F
:100EC0006FF001000B9900F04DF99EE045F04000F5
:100ED0006060A80723464FF0000236D43EE0E807E2
:100EE0007FF447AF2068011D21600068290501D506
:100EF00006701BE7290701D5068017E7A90703D568
:100F0000F117C0E9006111E706600FE745F0400006
:100F10006060A80723464FF0080216D41EE040F692
:100F20000E0125EA0100606016E045F040006060B7
:100F3000A80723464FF00A0207D40FE045F040000F
:100F40006060A80708D5234610226FF001000B99B6
:100F5000AFF3008059E007E0234610226FF0010054
:100F60000B99FFF71FFA50E04FF000094F464B4630
:100F7000632802D05B2806D040E0E80601D40120B7
:100F8000A06001273AE062690121019890475E283C
:100F900005D14FF0010962694946019890472169DE
:100FA00039B900210A46534643F82120491C082933
:100FB000FADBB0B3216969B9C11700EBD1625311F3
:100FC0000AEB830122F01F02821A01200B68904075
:100FD00003430B6062690121019890475D28E8D1C5
:100FE000B9F1000F09D00020514651F82020D2431A
:100FF00041F82020401C0828F7DB02AB224600976E
:101000006FF001000B99AFF3008000280CDA401C50
:1010100008D1BBF1000F05D04FF0FF300DB0BDE897
:10102000F08FFFE74046F9E7E90701D108F1010831
:1010300006444FF0000B79E6CCCCCC0C2DE9FF4FE9
:10104000087883B09946FF2805D0491C2D2804D084
:101050000024002008E000200BE00124F9E700EB69
:10106000800003EB4000491C0B78FF2BF7D104B143
:10107000404200230293147819461D462D2C01D0BE
:101080002B2C04D1521C2D2C13D000240294AA46E0
:101090001478FF2C0FD00A25A3FB057801FB0581EE
:1010A0004FF0000C03FB0C11521CE3194AEB010139
:1010B000EEE70124EAE7814453EA010002D019F582
:1010C000C87F06DA03980021C0E9001107B0BDE827
:1010D000F08F0025AE4E2F46DFF8B882184600F09C
:1010E0005DF9CDE90001B9F1000002DAC9F10004AF
:1010F00000E004460023A74A1AEB030B42EB045A14
:1011000012E0E00707D02A46334638464146FFF74B
:1011100038FD074688462A46334610461946FFF7EB
:1011200030FD05460E466410002CEAD1DDE90001D1
:10113000B9F1000F5A46534606DAFFF712FA3A465B
:101140004346FFF70EFA05E0FFF71BFD3A4643461C
:10115000FFF717FD029A0AB181F00041039AC2E934
:101160000001B3E72DE9FF4F1F468DB0D7E90146D7
:101170004FF0FF382E2045464FF000090B90B9691B
:101180006D1C0E988847396A824688470028F6D138
:10119000BAF1FF3F0AD024F4D064002E11DDBAF179
:1011A0002B0F08D0BAF12D0F0BD102E0404611B041
:1011B0008DE744F48064B9696D1C0E9888478246B7
:1011C000761E6946600501D52D2000E02B208DF8A4
:1011D000000001F1010B0DF1200809E0B9696D1C57
:1011E0000E98884782460F9844F40074761E056076
:1011F000002E02DDBAF1300FF0D00B998A453ED1B6
:1012000044F0800406E00F99681CA9F1010944F438
:1012100000740860B9696D1C761E0E988847824676
:101220003028F0D02BE00B998A4505D1200603D455
:1012300044F08004761E18E0504602F08BF808B3A4
:101240000DF11301761E44F400748B4508D2AAF107
:1012500030000BF8010B200607D5A9F1010003E0CF
:10126000200602D409F101008146A00502D50F999C
:10127000681C0860B9696D1C0E9888478246002E6C
:10128000D1DC53E0002E51DDBAF1650F02D0BAF186
:10129000450F4BD1A00549D5B9696D1C24F44074A4
:1012A000761E0E9888478246002E0CDD2B2804D02F
:1012B000BAF12D0F07D144F48074B9696D1C0E98F2
:1012C00088478246761EE00501D52D2100E02B21BE
:1012D00008F8011BCDF82C8021E00DF12901761EC4
:1012E00044F4007488450CD2AAF1300010F0FF00DD
:1012F00088F8000002D10B99884509D908F1010846
:1013000006E0E00501D5244801E042F20F70814675
:10131000B9696D1C0E98884782460F980560002EAB
:1013200004DD504602F016F80028D6D1F9690E986F
:101330008847FF208BF8000088F800000020069006
:1013400007904B466A4608A906A8FFF777FEA00556
:1013500002D46FF001002AE714F0240F0AD0E0074E
:1013600014D1DDE906123868031D3B600068C0E94E
:1013700000120BE0DDE90601FFF782F90146E00704
:1013800004D13868021D3A600068016028460EE703
:10139000000014400000F03FF1D8FFFF0EB540F20E
:1013A000334202920022CDE900221346FFF7F4FAFD
:1013B00003B000BD70B58C1810F8015B15F0070381
:1013C00001D110F8013B2A1106D110F8012B03E0DE
:1013D00010F8016B01F8016B5B1EF9D12B0705D4E6
:1013E0000023521E0DD401F8013BFAE710F8013B2F
:1013F000CB1A921C03E013F8015B01F8015B521E4B
:10140000F9D5A142D8D3002070BD020E0A70020C9B
:101410004A70020A8A70C87070470168C07809BAB9
:1014200021F0FF0108437047FEE7000030B54FF0A0
:10143000FF330022064C07E0855C5D40EDB2521C94
:1014400054F8255085EA13238A42F5D3D84330BD9A
:10145000080000207047704790F83510022903D02B
:101460008021416501207047052180F83510006812
:10147000016821F0010101600020704770B5044649
:1014800000F002F90546601C02D0044800780444CC
:1014900000F0FAF8401BA042FAD370BD1C0D0020EA
:1014A0002DE9F84F00224FF0010803254FF00F0EF1
:1014B0000B6808FA02F42340A3426ED14E68012E55
:1014C00005D0022E03D0112E01D0122E12D1866823
:1014D0004FEA420C05FA0CF7BE43CF6807FA0CF747
:1014E000374387604668A6430C79C4F300149440E0
:1014F00034434460C668570005FA07FC8C6826EA46
:101500000C06BC403443C4604C68022C01D0122C41
:1015100013D1D40800EB8404A346D4F820905407D8
:101520004FEAD46A0EFA0AF629EA06090E6906FAA3
:101530000AF646EA0906CBF8206004680E7924EA28
:101540000C0406F00306BE40264306604C68E40027
:101550006FD53B4C266846F480462660246822F00E
:10156000030604F480440094364C3444A446D4F872
:1015700008489607360F0EFA06F7BC43324FB842BA
:1015800001D100272EE0314FB84201D1012729E0D7
:101590002F4FB84202D1022724E04AE02D4FB84233
:1015A00001D103271EE02C4FB84201D1042719E0D6
:1015B0002A4FB84201D1052714E0294FB84201D182
:1015C00006270FE0274FB84201D107270AE0264F30
:1015D000B84201D1082705E0244FB84201D10927BC
:1015E00000E00A27B7402743CCF80878204E34683B
:1015F0004F689C43FF0300D51C4334601C4E361DCE
:1016000034684F689C43BF0300D51C433460184EB8
:10161000083634684F689C43FF0200D51C43346091
:10162000134E0C3634684F689C43BF0200D51C43F0
:101630003460521C102AFFF43BAFBDE8F88F000065
:1016400044380240003001400000024000040240E3
:1016500000080240000C024000100240001402404A
:1016600000180240001C02400020024000240240FA
:10167000003C01400069084000D0012070470AB1D9
:10168000816170470904FBE70148806870470000EA
:101690001C0D002002488168027811448160704767
:1016A0001C0D00200B4810B5016841F40071016069
:1016B000016841F480610160016841F4807101605A
:1016C000032000F06FF8002000F006F800F024F886
:1016D000002010BD003C024070B50D4D04464FF493
:1016E0007A712878B1FBF0F00A490968B1FBF0F093
:1016F00000F03CFB48B9102C07D200222146501EB6
:1017000000F030F800206C6070BD012070BD00005A
:101710001C0D0020280D00200A4808B5016841F47E
:1017200080410160006800F4804000900548001F7F
:10173000016841F080510160006800F08050009025
:1017400008BD000044380240002809DB00F01F02F9
:10175000012191404009800000F1E020C0F8001113
:1017600070470000F0B40E4B1B680C46C3F3022315
:10177000C3F10705042D00D90425191D072901D23D
:10178000002300E0DB1E012606FA05F1491E214078
:1017900099409E40761E16403143F0BC01F0CCBC0F
:1017A0000CED00E0064900F0070208684FF6FF0361
:1017B000184040EA0220034A1043086070470000C6
:1017C0000CED00E00000FA052DE9F8431748016828
:1017D00041F0805101600068154F00F080500126F3
:1017E00000903E64FFF750FF05464FF47A78114CA5
:1017F00005E000BFFFF748FF401B40450DD860687B
:10180000C003F7D57E64FFF73FFF0546464607E075
:10181000FFF73AFF401BB04202D90320BDE8F8832E
:1018200060688003F4D50020F8E7000040380240EB
:1018300000000E42007000402DE9F0470E46050002
:1018400065D0DFF81481D8F80000F7B200F00F007F
:10185000B04207D288F80070D8F8000000F00F00FE
:10186000B04254D128683D4C810712D5400703D5BA
:10187000206840F4E05020602878000703D52068F5
:1018800040F4604020602068A96820F0F000084320
:1018900020602878C0072DD03049686808390128B1
:1018A00012D0022813D0032811D009688907002913
:1018B0002DDA216821F0030101432160FFF7E4FEE6
:1018C000814641F2883A0EE009688903EFE709682A
:1018D0008901ECE7FFF7D8FEA0EB0901514502D9D9
:1018E0000320BDE8F0872068696800F00C00B0EBC9
:1018F000810FEFD1D8F80010404601F00F01B1423E
:1019000007D90770006800F00F00B04201D0012035
:10191000E7E72878400705D52068E96820F4E0501B
:10192000084320602878000706D52068296920F43C
:10193000604040EAC100206000F038F82168084AA1
:10194000C1F30311515CC8400649086006480068AD
:10195000FFF7C2FE0020C4E7003C02400838024006
:10196000206E0208280D0020200D002004480549A3
:1019700000680968044AC1F38221515CC84070477D
:10198000280D002008380240306E0208044805493E
:1019900000680968044AC1F34231515CC84070478D
:1019A000280D002008380240306E0208154810B596
:1019B000006810F00C02144813D01449042A0FD008
:1019C000082A0ED10F4C241F2268236802F03F0220
:1019D0005B0207D52068C0F38810A0FB010106E078
:1019E000084610BD2168C1F38811A1FB0001002346
:1019F000FEF7F8FB2168C1F30141491C4900B0FB27
:101A0000F1F010BD083802400024F400002D31012F
:101A10002DE9F84F040076D02078DFF838A3CE4DBA
:101A2000C00749D0DAF800105046C1F381010129FE
:101A300008D00068C0F3810002280AD1281D006880
:101A4000400206D52868800336D560680028E2D0B9
:101A500032E06068B0F5803F10D0B0F5A02F286864
:101A600010D020F480302860286820F4802028607E
:101A70006068A0B1FFF708FE06460CE0286840F455
:101A80008030F4E740F480202860F7E7FFF7FCFDA2
:101A9000801B642873D828688003F7D50CE0FFF713
:101AA000F3FD064605E000BFFFF7EEFD801B64284E
:101AB000F0D828688003F7D42078DFF8A082800768
:101AC0004FF000093ED5DAF80010504611F00C0F27
:101AD00009D00068C0F3810002280BD19D48001F87
:101AE0000068400206D42868800715D5E068012800
:101AF00009D111E0E068B8B10120C8F80000FFF793
:101B0000C3FD064605E020E1FFF7BEFD801B02286D
:101B1000C0D828688007F7D52868216920F0F80028
:101B200040EAC10028600DE0C8F80090FFF7ACFD66
:101B3000064604E0FFF7A8FD801B02281FD828688E
:101B40008007F7D42078000722D5824E8448616947
:101B50006C3671B101210160FFF796FD074604E084
:101B6000FFF792FDC01B022809D830688007F7D51F
:101B70000EE0C0F80090FFF787FD074605E082E021
:101B8000FFF782FDC01B02287DD830688007F7D49C
:101B90002078400768D5DFF8BCB100270BF1380B7F
:101BA000DBF80000C0000BD4DBF8001041F08051DE
:101BB000CBF80010DBF80000012700F08050009007
:101BC000684E3068C00510D4306840F480703060D2
:101BD000FFF75AFD009005E0FFF756FD0099401A07
:101BE000022850D83068C005F6D55A4EA06868362D
:101BF00001280FD00528306810D020F00100306097
:101C0000306820F004003060A068B8B1FFF73CFDF8
:101C100000900FE0306840F00100F4E740F004006D
:101C20003060F7E7FFF730FD0099411A41F2883044
:101C3000814266D830688007F4D50EE0FFF724FDB6
:101C4000009007E0FFF720FD0099411A41F288302B
:101C5000814256D830688007F4D42FB1DBF80010E9
:101C600021F08051CBF80010A069D0B3DAF8002041
:101C70005146C2F38102022A4AD00228484607D0C0
:101C8000C8F8600000E03CE0FFF7FEFC04463BE0E3
:101C90004746C8F86000FFF7F7FC064605E000BFBE
:101CA000FFF7F2FC801B02282BD828688001F7D4AC
:101CB000D4E907010843A16A2B4A490802EB014114
:101CC000626A41EA8211084394F82C1040EA0161EB
:101CD0002048001F016001203866FFF7D5FC04464C
:101CE00005E034E0FFF7D0FC001B022809D8286883
:101CF0008001F7D52BE000BFFFF7C6FC001B0228D0
:101D000002D90320BDE8F88F28688001F4D41EE0D2
:101D10000128F7D00868E26900F48001914214D1EB
:101D2000226A00F03F0191420FD147F6C071626A0A
:101D30000140914209D1A26A00F44031914204D19C
:101D4000E16A00F07060884201D00120DAE70020EB
:101D5000D8E700000838024000380240000047423F
:101D6000800E4742007000400000FFFF10B5401E8B
:101D7000B0F1807F01D3012010BD4FF0E0246061FD
:101D80000F21601701F0D8F90020A0610720206121
:101D9000002010BD7047704770B590F83C20012AB4
:101DA00032D0012480F83C40022280F83D200368B4
:101DB0005A689D6822F070060A6832435A60134BD5
:101DC00002689A4214D0B2F1804F11D0104B9A425F
:101DD0000ED0104B9A420BD00F4B9A4208D00F4BAB
:101DE0009A4205D00E4B9A4202D00E4B9A4204D131
:101DF000496825F080031943916080F83D40002137
:101E000080F83C10084670BD022070BD0000014003
:101E10000004004000080040000C004000040140A5
:101E2000004001400018004010B5040003D094F8B1
:101E30003D0010B107E0012010BD002084F83C00F7
:101E4000204600F00DF8022084F83D00211D206896
:101E500000F0EEFE012084F83D00002010BD0000DF
:101E600008B501681448B1F1804F14D0134A91426B
:101E700020D1016841F0020101600068002200F0F9
:101E80000200009011461D20FFF76CFC1D20BDE8EC
:101E90000840FFF759BC016841F00101016000688A
:101EA000002200F00100009011461C20FFF75AFCB0
:101EB0001C20ECE708BD0000403802400004004050
:101EC00070B5044690F83C00012817D0012584F82D
:101ED0003C50022084F83D002068826822F077029E
:101EE00022F47F4282600868502830D00DDC202820
:101EF0004DD005DC98B310283BD148E0022070BDDE
:101F0000302844D0402834D139E0602828D07028C7
:101F100006D0B0F5805F2CD0B0F5005F29D10AE083
:101F2000CB68D1E90121206800F0E6FE20688168D5
:101F300041F0770109E0CB68D1E90121206800F088
:101F4000DBFE2068816841F48041816011E0CA684D
:101F50004968206800F0E2FE5021206807E016E0A2
:101F6000CA684968206800F0EAFE6021206800F035
:101F7000CDFE84F83D50002084F83C0070BDCA6856
:101F80004968206800F0CAFE40212068EFE7226817
:101F900001461046EBE7704770B5044600680169DA
:101FA0004FF00005C943890715D4C168C9438907A3
:101FB00011D4E91E01610120207720688069800723
:101FC000204602D0FFF7E7FF04E000F098F8204633
:101FD00000F096F8257720680169C943490717D4AE
:101FE000C168C943490713D46FF00401016102209D
:101FF00020772068806910F4407F204602D0FFF7E8
:10200000CAFF04E000F07BF8204600F079F825775D
:1020100020680169C943090716D4C168C943090783
:1020200012D46FF008010161042020772068C06994
:102030008007204602D0FFF7AEFF04E000F05FF813
:10204000204600F05DF8257720680169C943C9067C
:1020500017D4C168C943C90613D46FF010010161D8
:10206000082020772068C06910F4407F204602D005
:10207000FFF791FF04E000F042F8204600F040F83E
:10208000257720680169C943C90708D1C168C943D8
:10209000C90704D1891E0161204600F032F820688A
:1020A0000169C943090609D4C168C943090605D4B1
:1020B0006FF0800101612046FFF76CFE2068016926
:1020C000C943490609D4C168C943490605D46FF01C
:1020D00040010161204600F015F820680169C943FC
:1020E00089060BD4C168C943890607D46FF0200163
:1020F00001612046BDE87040FFF74DBE70BD7047DE
:10210000704770477047704770B5026804461068A2
:10211000D168536910F00F0F52D003F0010501F49C
:1021200090762E435FD0C20705D0CA0503D5E26B77
:1021300042F00102E263420705D5DA0703D0E26B01
:1021400042F00202E263820705D5DA0703D0E26BB0
:1021500042F00402E263020707D501F020022A439D
:1021600003D0E26B42F00802E263E26B002A33D054
:10217000800604D5880602D5204600F008FE2068B7
:102180004069E16BC0F38010090700D428B32046F2
:1021900000F0EFFD2068416949061AD5416921F038
:1021A00040014161606BA0B11B490165606BFFF7A5
:1021B00053F9002810D0606B016DBDE870400847EE
:1021C000830610D58B060ED52046BDE8704000F082
:1021D000DEBD2046FFF797FF70BD2046FFF793FF57
:1021E0000020E06370BD030606D50B0604D520462B
:1021F000BDE8704000F0AABE4006F3D54806F1D510
:10220000D168204621F04001D160202184F83910A6
:1022100000F0E3F970BD0000632D020870B5040002
:1022200004D094F83900002510B106E0012070BDFB
:1022300084F83850204600F023F8242084F8390030
:102240002068C16821F40051C160204600F0EAFD19
:102250002068016921F4904101612068416921F001
:102260002A0141612068C16841F40051C160E56301
:10227000202084F8390084F83A00002070BD000066
:10228000F0B587B0044614216846FDF7F5FF3D4BD5
:10229000276800223C490224032507263B489F4229
:1022A00021D1394B14331F6847F010071F601B689A
:1022B00003F0100305930B6843F001030B600968FA
:1022C00002AB01F0010105916902CDE9001483E838
:1022D00064006946FFF7E4F8002211462520FFF765
:1022E00041FA252024E0284BDFF8A4C010336745CD
:1022F00022D11F6847F400371F601B6803F40033C6
:1023000005930B6843F001030B60096802AF01F00D
:10231000010105910C21CDE9001487E864006946AC
:10232000FFF7BEF8002211462620FFF71BFA2620F1
:10233000FFF70AFA07B0F0BD16488742FAD11868CD
:1023400040F480201860186800F480200590086828
:1023500040F002000860086802AF00F0020005903B
:102360004FF44060CDE9000487E8640069460A48FC
:10237000FFF796F8002211462720FFF7F3F92720F0
:10238000D6E7000000100140303802400000024053
:102390000044004000480040000402402DE9F8439A
:1023A000044690F83A00994616460D46202852D128
:1023B000BDB1B6B194F8380001284CD0012084F8A2
:1023C00038000027E763222084F83A002C34FFF716
:1023D0005BF924F8026B804624F80A6B04F838791C
:1023E00031E00120BDE8F883E08D401EE085A06863
:1023F0004346B0F5805F4FF000024FF020012046C9
:10240000CDF8009004D000F0D2FD98B10320E9E7A8
:1024100000F0CDFD0028F9D120690028206840682F
:1024200003D0C1B225F8011B0DE0C0F3080125F867
:10243000021B08E0206900282068406801D000F0F5
:102440007F0005F8010BE08D0028CDD1202084F815
:102450003A000020C6E70220C4E790F83A30202B6B
:1024600022D1F9B1F2B190F83830012B1CD0816241
:102470008285C2850021C163222280F83A2080F83B
:1024800038100168CA6842F48072CA6001684A69FB
:1024900042F001024A610068C16841F02001C16058
:1024A00000207047012070470220704719490068DA
:1024B000096888422DD1184801680868C288838855
:1024C000521C9A4205D0C388028993420DD182885A
:1024D0005AB983880268D25C828803899A4201D102
:1024E000002201E08288521C828008680B49C38860
:1024F00009780268D154C1880289914201D1002132
:1025000001E0C188491CC180012204490148FFF74C
:10251000A4BF7047A09C0120180D00200C050020CE
:102520002DE9F843044690F839001F4616460D463B
:10253000202850D1B5B1AEB194F8380001284AD066
:10254000012084F838004FF00008C4F83C802120B6
:1025500084F83900FFF798F8A6848146E68484F869
:10256000388026E00120BDE8F883E08C401EE0843E
:10257000A0684B46B0F5805F4FF000024FF080013D
:102580002046009703D000F012FDE8B90DE000F0FE
:102590000EFDC8B928882168C0F30800486020698A
:1025A00008B16D1C05E0AD1C03E0216815F8010BB6
:1025B0004860E08C0028D8D14B46002240212046BC
:1025C000009700F0F4FC08B10320CCE7202084F849
:1025D00039000020C7E70220C5E77047FEE700008A
:1025E0002DE9F04186B014216846FDF745FE3048DC
:1025F0000024016841F480710160016801F4807178
:102600000591016841F001010160016801F00101DB
:102610000591016841F080010160016801F08001CD
:102620000591016841F0020101600068214F00F04E
:1026300002000590002211213846FFF720F8DFF84C
:10264000788000224FF47F514046FFF718F80125AB
:102650001120CDE90005CDE9025469463846FEF760
:102660001FFF0226CDE90064694638460294FEF752
:1026700017FF4FF44050CDE90005CDE902546946FB
:102680004046FEF70DFFA803CDE900046946404629
:102690000294FEF705FF4FF47C6003948DE861001F
:1026A00069464046FEF7FCFE06B0BDE8F08100003A
:1026B0003038024000200240001C024010B586B0B5
:1026C00000241748009401940294039404944FF05A
:1026D0008041059401604AF6C771C0E901144FF4C6
:1026E0007A71C0E9031480218161FFF79DFB08B175
:1026F000FEF7B1FE4FF48050009069460848FFF79E
:10270000DFFB08B1FEF7A7FE049404A90448059472
:10271000FFF742FB002801D0FEF79DFE06B010BD7A
:10272000A09B012010B586B00024174800940194A6
:102730000294039404941349059401604AF6C77106
:10274000C0E901140121C0E9031480218161FFF770
:102750006BFB08B1FEF77FFE4FF480500090694696
:102760000948FFF7ADFB08B1FEF775FE049404A914
:1027700005480594FFF710FB002801D0FEF76BFE1B
:1027800006B010BD00040040E09B01200C4810B5CD
:102790000A4901604FF4E1314160002181600C225F
:1027A000C160C0E904128161C161FFF737FD0028F3
:1027B00003D0BDE81040FEF74EBE10BD0010014032
:1027C000209C01200C4810B50A4901604FF4E1310A
:1027D0004160002181600C22C160C0E90412816166
:1027E000C161FFF71BFD002803D0BDE81040FEF7D4
:1027F00032BE10BD00440040609C01200C4810B562
:102800000A4901604FF4E1314160002181600C22EE
:10281000C160C0E904128161C161FFF7FFFC0028BB
:1028200003D0BDE81040FEF716BE10BD00480040C2
:10283000A09C0120FEE770472DE9F0410F460446B9
:1028400016464BA1544800F063FC544D28780028EC
:10285000514806D0FDF71BFD01464F4803F0AAFF83
:1028600007E0FDF714FD82B2FF234B494C48FFF708
:1028700057FE22464BA1484800F04AFC2878002821
:10288000454806D0FDF703FD0146434803F092FF9B
:1028900007E0FDF7FCFC82B2FF233F494048FFF709
:1028A0003FFE002447E0A00617D1A2093FA13A4805
:1028B00000F02EFC28780028374806D0FDF7E7FC0A
:1028C0000146354803F076FF07E0FDF7E0FC82B2F1
:1028D000FF2331493248FFF723FEA006B0F17C4FB9
:1028E00002D0701E844201D132A300E02EA33A5DD3
:1028F0000A2A02D00D2A02D002E04E2200E0522223
:102900002DA1254800F004FC28780028224806D094
:10291000FDF7BDFC0146204803F04CFF07E0FDF742
:10292000B6FC82B2FF231C491D48FFF7F9FD0520C4
:10293000FEF7A4FD641CB442B5D30DA1164800F007
:10294000E7FB28780028144807D0FDF7A0FCBDE875
:10295000F0410146104803F02DBFFDF798FCBDE89B
:10296000F04182B2FF230C490D48FFF7D9BD0000AA
:102970002A2A2A2A2A2A2A2A2A2A2A2A2A20505273
:10298000494E542043484152202A2A2A2A2A2A2AD8
:102990002A2A2A2A2A2A0A00F09501200D05002059
:1029A000A09C012025733A0A000000002530385809
:1029B000203A20000A000000256325730000000073
:1029C0002DE9F0410F460446164647A1504800F055
:1029D0009FFB504D287800284D4806D0FDF757FC46
:1029E00001464B4803F0E6FE07E0FDF750FC82B2DB
:1029F000FF2347494848FFF793FD224647A1444833
:102A000000F086FB28780028414806D0FDF73FFCFF
:102A100001463F4803F0CEFE07E0FDF738FC82B2E6
:102A2000FF233B493C48FFF77BFD00243FE02007A4
:102A300017D122093BA1364800F06AFB287800280C
:102A4000334806D0FDF723FC0146314803F0B2FEBF
:102A500007E0FDF71CFC82B2FF232D492E48FFF74B
:102A60005FFD2007B0F1704F02D0701E844201D18B
:102A70002EA300E02EA33A5D2EA1254800F048FBCE
:102A800028780028224806D0FDF701FC014620489E
:102A900003F090FE07E0FDF7FAFB82B2FF231C492A
:102AA0001D48FFF73DFD0520FEF7E8FC641CB4421D
:102AB000BDD323A1164800F02BFB2878002814482A
:102AC00007D0FDF7E4FBBDE8F0410146104803F0F4
:102AD00071BEFDF7DCFBBDE8F04182B2FF230C497B
:102AE0000D48FFF71DBD00002A2A2A2A2A2A2A2A71
:102AF0002A2A2A2A2A205052494E54204845582032
:102B00002A2A2A2A2A2A2A2A2A2A2A2A2A0A000099
:102B1000F09501200D050020A09C012025733A0AA4
:102B20000000000025303858203A20000A0000003C
:102B30002000000030782530325825730000000056
:102B40002A2A2A2A2A2A2A2A2A2A2A2A2A205052A1
:102B5000494E5420454E44202A2A2A2A2A2A2A2A23
:102B60002A2A2A2A2A0A000070477047FEF792BDD7
:102B700030B593B030216846FDF77EFB14210CA8D8
:102B8000FDF77AFB1B480025016841F08051016088
:102B9000006800F0805011901748016841F44041EE
:102BA00001600068022400F4404011900120009070
:102BB000000401908001CDE90640142008904FF4F4
:102BC000B470CDE9090404200B906846FEF720FF9D
:102BD000FEF7FAFD0CA90F2081E831004FF4A05058
:102BE0000F90E002109005210CA8FEF725FE13B00F
:102BF00030BD0000403802400070004004480168C9
:102C000041F4700101600249024880390860704750
:102C100088ED00E0000002080148FFF7BDB90000A0
:102C2000A09B01200148FFF7B7B90000E09B0120FD
:102C3000F0B50268254C264D264E274F274B4FF006
:102C4000804CA04209D0604507D0A84205D0B042D0
:102C500003D0B84201D0984204D122F0700E4A68E5
:102C600042EA0E02A0421BD0604519D0A84217D0FC
:102C7000B04215D0B84213D0984211D0184DA84296
:102C80000ED0184DA8420BD0174DA84208D0174DB2
:102C9000A84205D0164DA84202D0164DA84203D135
:102CA00022F44075CA682A434D6922F080022A4303
:102CB00002608A68C2620A688262A04201D09842B9
:102CC00001D10969016301214161F0BD00000140AA
:102CD0000004004000080040000C004000040140D7
:102CE00000400140004401400048014000180040FD
:102CF000001C00400020004010B5846842EA032216
:102D000024F47F440A432243826010BD826822F08B
:102D100070020A4342F007018160704710B5036AF0
:102D2000046A24F001040462846924F0F00444EA93
:102D3000021423F00A020A438461026210BD10B536
:102D4000036A23F0100303628369046A23F4704367
:102D500043EA023224F0A00343EA011182610162D6
:102D600010BD10B5806B0021C185C184FFF7CBF980
:102D700010BD0168CA6822F49072CA6001684A698D
:102D800022F001024A61202180F83A10704710B504
:102D900090F83A10222901D0022010BD8168B1F5C7
:102DA000805F11D00169002901681FD0496801F0D6
:102DB0007F03816A4A1C82620B70C18D491E09041F
:102DC000090CC18518D02BE00269816A002A0268CB
:102DD000526805D0D2B20A80816A491C8162ECE750
:102DE000C2F308020A80816A891CF7E74A68816A8F
:102DF0004B1C83620A70E0E70168CA6822F0200277
:102E0000CA600168CA6822F48072CA6001684A69AF
:102E100022F001024A61202180F83A10FFF746FBB8
:102E2000002010BD2DE9F041044600680169E26808
:102E300021F44051114301612169A068E26908430E
:102E40006169114308432168CA6849F20C639A43D7
:102E50000243CA6020684169A26921F440711143AC
:102E60004161E069192764253226B0F5004F354AE3
:102E7000354920684FF0000806D0884201D09042C2
:102E800036D1FEF783FD35E0884201D0904202D171
:102E9000FEF77CFD01E0FEF769FD61684A18A0FBC2
:102EA000070148EB0803FDF79DF90146B0FBF5F07B
:102EB0000201B1FBF5F06FF01803584301EB8000FD
:102EC00006EBC000B0FBF5F000F0F80002EB4002AA
:102ED000B1FBF5F0584301EB800006EBC000B0FBFE
:102EE000F5F000F00700216810448860BDE8F0812B
:102EF000FEF73CFD61688B0F8A00A0FB0701FDF720
:102F000071F90146B0FBF5F06FF01802504301EB88
:102F1000800006EB0010B0FBF5F000F0F002B1FB12
:102F2000F5F002EB0012B1FBF5F06FF01803584317
:102F300001EB800006EB0010B0FBF5F000F00F0095
:102F4000D1E70000001401400010014090F8391052
:102F5000212901D0022070478168B1F5805F016AA4
:102F60000BD04A1C0262026809785160C18C491E6C
:102F70000904090CC1840ED017E009880268C1F366
:102F80000801516001690029016A02D0491C0162EF
:102F9000ECE7891CFBE70168CA6822F08002CA607E
:102FA0000068C16841F04001C160002070472DE910
:102FB000F041984617460E460446069D1DE0681CE3
:102FC0001BD02DB1FEF760FBA0EB0800A84214D97E
:102FD0002068C16821F4D071C1602068416921F086
:102FE00001014161202084F8390084F83A00002072
:102FF00084F838000320BDE8F0812068006836EAD4
:10300000000004D00020B842D9D00020F3E701200E
:10301000F9E700000148FFF777B80000209C012085
:1030200070B51A4C1A4920680968884228D1194994
:10303000097829B3C168184D890608D50168890641
:1030400005D54068C1B22868006803F060FB2068BD
:10305000C16809060CD50068000609D528684068D3
:1030600003F04DFB28B12068C16821F08001C160E8
:1030700070BD2868406803F06AFB2168486070BD35
:10308000BDE870400248FFF73FB80000A09C012057
:10309000609C01200D050020180D002070B5184817
:1030A000007838B3174D2868C168174C890608D5D1
:1030B0000168890605D54068C1B22068006803F040
:1030C00026FB2868C16809060CD50068000609D5EA
:1030D0002068406803F013FB28B12868C16821F01C
:1030E0008001C16070BD2068406803F030FB296832
:1030F000486070BDBDE870400248FFF705B80000A9
:103100000D050020A09C0120180D0020FEE7000006
:103110000FB4084B10B504A902AA039800F022F9D5
:10312000044602A9002000F0B4FC204610BC5DF863
:1031300014FB0000933A02080907090E002804DB7B
:1031400000F1E02080F80014704700F00F0000F15B
:10315000E02080F8141D704700487047300D0020B3
:1031600030B583B0044600F017F89FED090B054613
:103170008DED000B002221466846FDF794FB2846A2
:1031800000F020F89DED000B03B030BD0000000002
:1031900000000000000000000148006870470000C7
:1031A000300D002002E008C8121F08C1002AFAD121
:1031B00070477047002001E001C1121F002AFBD1B7
:1031C000704700000149086070470000300D002082
:1031D0002DE9FF5F82B00021DDE90430020DDDF84A
:1031E00040B0034318D044F61050A2F2FF324243DD
:1031F0001514119801281FD0A5EB0B00401C5FEAA5
:10320000000A4FF000064E4FDFF83891B0465046A6
:1032100015D5CAF1000413E0119801244AA301282E
:1032200001D16FEA0B010298119AC0E90031C0E99F
:10323000024206B0BDE8F09FCBF10000DFE7044694
:103240000021404A491842EB0450CDE9001012E039
:10325000E00707D032463B4640464946FDF791FC21
:103260008046894632463B4610461946FDF789FCA2
:1032700006460F466410002CEAD1DDE90401DDE9C1
:103280000023BAF1000F06DAFDF77BFC42464B46FD
:10329000FDF777FC05E0FDF764F942464B46FDF784
:1032A00060F904460E460022284BFDF7F5FC03D8D2
:1032B0004FF0FF30014607E00022254B2046314603
:1032C000FDF7B8FBFDF7CFFC102409E0002C0ADB6A
:1032D0000A220023FCF786FF039B30321A55641E36
:1032E00050EA0102F2D1641C039AC4F111031444A0
:1032F000119A012A03D0012208430DD10AE00843A4
:1033000004D000204FF0110B119072E7A3EB0B05D6
:103310006D1E0DE05B4504DD4FF0000205F1010577
:1033200004E003DA4FF00002A5F10105002AECD019
:1033300002981199C0E90231C0E9004579E700001F
:10334000000014400000F03F300000000000F04397
:103350000000E03F30380A2801D2012070470020E9
:10336000704700002DE9FF4F95B09B468946064601
:1033700000250FE2252877D100242746F84A0121AD
:10338000059400E0044316F8013F203B01FA03F0E6
:103390001042F7D130782A2811D06FF02F033078FF
:1033A000A0F13002092A16D8059A44F0020402EB73
:1033B000820203EB42021044761C0590EFE759F8B5
:1033C000042B0592002A03DA504244F4005405907D
:1033D00044F00204761C30782E2816D116F8010F1E
:1033E00044F004042A280DD06FF02F023078A0F1A9
:1033F0003003092B09D807EB870302EB4303C718F7
:10340000761CF3E759F8047B761C30786C280FD0D3
:1034100006DC4C2817D068280DD06A2814D104E0A7
:10342000742810D07A280FD10DE044F400140AE07B
:1034300044F4801401E044F440147278824202D1D2
:1034400004F58014761C761C307866280BD013DCCB
:10345000582877D009DC002875D04528F6D04628B2
:10346000F4D047281AD19DE118E0632835D06428AC
:1034700079D0652812D195E1702873D008DC6728CF
:10348000F1D069286FD06E280DD06F2806D1B5E035
:1034900073282CD0752875D0782874D05A4617997F
:1034A00090476D1C75E1C4F30250022809D003282F
:1034B0000DD0D9F8001004280DD00D6009F10409D1
:1034C00067E1D9F80010EA17C1E90052F6E7D9F828
:1034D00000100D80F2E70D70F0E719F8041B8DF86D
:1034E000001000208DF80100EA46012003E059F8A1
:1034F00004AB4FF0FF3061074FF0000102D40DE044
:1035000008F101018846B9420FDA8045F8DB1AF864
:1035100008100029F4D108E008F101018846814231
:10352000FADB1AF808100029F6D105985B46A0EBE3
:10353000080721463846179A00F094FA284400EB11
:10354000080507E04DE029E10DE01AF8010B5A46A5
:1035500017999047B8F10108F7D25B4621463846E3
:10356000179A13E142E00A220092C4F302524FF08C
:10357000000A022A08D059F804CB032A4FEAEC715A
:103580000AD00DE029E02AE009F1070121F0070245
:10359000F2E802C1914609E00FFA8CFC4FEAEC71A7
:1035A000042A03D14FFA8CFC4FEAEC71002907DAA8
:1035B0000A460021DCF1000C61EB02012D2202E041
:1035C000220504D52B228DF80420012203E0E20716
:1035D00001D02022F7E7904659E00A2102E01022AC
:1035E0000DE010214FF0000A00910BE010224FF087
:1035F000000A44F004040827009203E008224FF078
:10360000000A0092C4F30252022A05D059F804CBF2
:103610000021032A08D009E009F1070121F007027F
:10362000F2E802C1914605E01FFA8CFC042A01D1A0
:103630000CF0FF0C4FF00008220728D5702806D0A8
:10364000009B83F0100353EA0A0305D00EE04022EA
:103650008DF80420012208E05CEA010206D0302245
:103660008DF804208DF8050002229046009B83F01F
:10367000080353EA0A030AD15CEA010201D1620796
:1036800005D530228DF804204FF001087F1E582800
:1036900004D034A003900EA802900DE036A0F9E704
:1036A00053466046009AFCF79DFD84460398825C71
:1036B0000298401E029002705CEA0100F0D102986C
:1036C00006A9081A00F1200A600702D524F4803404
:1036D00000E00127574502DDA7EB0A0000E00020CB
:1036E00000EB0A01009005984144401A0590E00360
:1036F00006D45B462146179A059800F0B3F90544B5
:10370000002706E001A85A46C05D179990476D1C36
:103710007F1C4745F6DBE0030CD55B462146179A34
:10372000059800F09FF9054404E030205A461799A7
:1037300090476D1C0099481E00900029F5DC08E0B8
:10374000029802995A460078491C029117999047AD
:103750006D1CBAF10001AAF1010AF1DC65E100007B
:103760000928010030313233343536373839616257
:10377000636465660000000030313233343536371B
:1037800038394142434445460000000000F058F9F2
:103790000544761C307800287FF4ECAD19B028463B
:1037A000BDE8F08F620700D4062709F1070222F076
:1037B000070CFCE80223E14603F000485FEA080C2E
:1037C00002D00FF2702C0DE05FEA045C02D50FF21C
:1037D000682C07E05FEAC47C02D00FF2602C01E0A5
:1037E000AFF2700C4FF0FF3823F00043CDF850C01B
:1037F00065280CD006DC452809D046281DD047286E
:103800003DD13DE0662818D067287ED138E0002100
:10381000112F01DB112000E0781CCDE9000106A981
:103820000EA8FFF7D5FCDDE90F010E9A03910021E8
:10383000009207F1010A04914DE04FF0004000971B
:10384000CDE9011006A90EA8FFF7C2FCDDE90F02C1
:1038500003920E9B11990022DDF80CA000930492B4
:1038600011B9791C00EB010AB7EB0A0004D4C0F1CE
:10387000FF3007F1010A0490AAEB0700019044E031
:10388000012F00DA01270021112F01DD112000E0B6
:103890003846CDE9000106A90EA8FFF799FCDDE93D
:1038A0000F010E9A0391002104910092BA4621075C
:1038B0000CD40399514500DA8A46BAF1010F05DDAF
:1038C000009AAAF10101515C302908D0B84202DA0D
:1038D00010F1040F06DA0121CDE9011015E0AAF17B
:1038E0000101E9E7002805DC049901440491AAEBF1
:1038F000000102E0411C514500DD8A460499401A4E
:10390000401C01904FF000400290200704D4019821
:10391000504501DBCDF8048000208DF84F0002985F
:103920000DF14F07B0F1004F25D02B200E900298DB
:103930004FF0020800280CDA404202902D200E9031
:1039400007E00A210298FCF7B7FE3031029007F831
:10395000011DB8F10001A8F10108F2DC029800286D
:10396000EFD1791E0E980870307800F0200040F0FA
:10397000450007F8020D12A8C01B00F107081498B3
:10398000007800B1012000EB0A01019801EBE07121
:1039900005984144401A401E0590E00306D45B465A
:1039A0002146179A059800F05DF8054414980078B0
:1039B00018B15A46179990476D1CE00324D55B4611
:1039C0002146179A059800F04DF805441CE004982C
:1039D000002807DBDDE90301884203DD0098405C35
:1039E000179901E0179930205A469047049805F13D
:1039F0000105401C04900198401E019004D12E2026
:103A00005A46179990476D1CBAF10001AAF1010AB4
:103A1000DDDC05E017F8010B5A46179990476D1C3D
:103A2000B8F10001A8F10108F4DC5B462146179AC1
:103A30000598ABE62D0000002B00000020000000E0
:103A40002DE9F041044600251E461746880404D49B
:103A500005E039462020B0476D1C641EF9D5284684
:103A6000BDE8F0812DE9F041044600251E46904650
:103A7000C80301D5302700E02027880404D505E0DD
:103A800041463846B0476D1C641EF9D52846BDE84E
:103A9000F0810A68531C0B6010707047F0B52DED73
:103AA000028B83B0012807D9086800F01FFA0020B4
:103AB00003B0BDEC028BF0BD2C4800212D4B0163FF
:103AC00041632B480090082203F59661772002F0AD
:103AD00073FC0500ECD128A12C48FFF719FB2C4EF4
:103AE00030780028294806D0FCF7D1FB014627484A
:103AF00002F060FE07E0FCF7CAFB82B2FF23234915
:103B00002448FEF70DFD1B4F9FED238A002400BFC4
:103B100007EB84000930FDF780FC00EE100AF8EE98
:103B2000C00A80EE880A10EE100AFCF796FDCDE977
:103B30000001621C19A11548FFF7EAFA3078002845
:103B4000124806D0FCF7A3FB0146104802F032FEF3
:103B500007E0FCF79CFB82B2FF230C490D48FEF7FF
:103B6000DFFC641C402CD3D32846A1E7B49101208C
:103B700004000020348D0120496E73657274696FF2
:103B80006E204C6F73733A0A00000000F09501201C
:103B90000D050020A09C01200000C84225752C25A1
:103BA0002E32660A0000000038B5012804D90868E2
:103BB00000F09CF9002038BD194800211A4B016320
:103BC000416318480090082203F59661602002F0D6
:103BD000F3FB0400EFD114480930FDF71EFC134D30
:103BE00018B1A52803D012A102E015A100E01BA185
:103BF0002048FFF78DFA287800281E4806D0FCF7E9
:103C000046FB01461B4802F0D5FD07E0FCF73FFBF1
:103C100082B2FF2317491848FEF782FC204638BDC0
:103C2000B491012004000020348D01200D050020F6
:103C3000556E6B6E6F776E207374617475730A00C6
:103C400044657669636520696E206E6F726D616C84
:103C5000207374617475730A00000000446576690E
:103C6000636520696E206572726F7220737461746F
:103C700075730A00F0950120A09C012070B50C46D8
:103C80000546052806D0032D15D0042D29D0052D75
:103C900005D24FE040A16068FCF73AFB28B13FA194
:103CA0006068FCF735FBC8B346E021462846BDE80E
:103CB000704000F0EFBF3AA16068FCF729FB50B1FB
:103CC00038A16068FCF724FB10B339A16068FCF7E9
:103CD0001FFB48B330E021462846BDE8704000F0A5
:103CE000C1BD35A16068FCF713FB28B133A1606842
:103CF000FCF70EFB30B11FE021462846BDE87040BE
:103D000001F0D4BD21462846BDE8704001F006BD53
:103D100021462846BDE8704001F070BD2146284686
:103D2000BDE8704000F0C6BE21462846BDE87040A0
:103D300001F090B8032D06D321A16068FCF7E8FAE2
:103D400020B1032D08D0022D16D01AE021462846B6
:103D5000BDE8704001F0F2BB1BA16068FCF7D8FA27
:103D600078B91AA1A068FCF7D3FA50B921462846C1
:103D7000BDE8704001F026BD16A16068FCF7C8FAE6
:103D800020B1206800F0B2F8002070BD214628461E
:103D9000BDE8704001F052BC6461630063616C0077
:103DA000616463007377697463685F696F00000022
:103DB00064756D70000000007461670070696E00CA
:103DC000656570726F6D00006C6F6700726573657A
:103DD000740000006D6F6E69746F72002DE9F0471A
:103DE00086B02022102101A8FCF73FFA0024DFF85A
:103DF000C8900DF1040A314D314F56E004EB8406B2
:103E000005EB86082FA1D8F80C00FCF747FA00282C
:103E10004AD055F82600FCF73AFAC0F10C0100220E
:103E20000AF801202AA12C48FFF772F999F800003E
:103E30000028294806D0FCF72AFA0146264802F055
:103E4000B9FC07E0FCF723FA82B2FF23224923489A
:103E5000FEF766FBD8F80800009055F8262001AB65
:103E60001FA11D48FFF754F999F8000000281A48CF
:103E700006D0FCF70CFA0146174802F09BFC07E05D
:103E8000FCF705FA82B2FF2313491448FEF748FBFA
:103E900055F82600FCF7FBF9C0F10C0120220AF8C6
:103EA00001201E20FDF7EAFA641C38688442A5D37D
:103EB00006B00020BDE8F0870D05002008040020B2
:103EC0001C6E0208494E5445524E414C0000000001
:103ED000636D643A20000000F0950120A09C012051
:103EE000257325732D2025730A0000002DE9F0416C
:103EF00007460026534D544C09E000BF06EB8600F0
:103F0000394655F82000FCF703FA30B1761C2068DA
:103F10008642F3D30020BDE8F0814CA14D48FFF765
:103F2000F7F84D4C207800284A4806D0FCF7AFF946
:103F30000146484802F03EFC07E0FCF7A8F982B2CF
:103F4000FF2344494548FEF7EBFA06EB860644A1F9
:103F500055F826203F48FFF7DBF8207800283D4839
:103F600006D0FCF794F901463A4802F023FC07E03A
:103F7000FCF78DF982B2FF2336493848FEF7D0FAB4
:103F800038A13448FFF7C4F820780028314806D01B
:103F9000FCF77DF901462F4802F00CFC07E0FCF726
:103FA00076F982B2FF232B492C48FEF7B9FA05EBCC
:103FB00086052BA12748EA68FFF7AAF82078002891
:103FC000244806D0FCF763F90146224802F0F2FBD0
:103FD00007E0FCF75CF982B2FF231E491F48FEF799
:103FE0009FFA24A11B48FFF793F82078002819486E
:103FF00006D0FCF74CF90146164802F0DBFB07E05F
:10400000FCF745F982B2FF2312491448FEF788FAFB
:1040100013A110482A69FFF77BF8207800280D4883
:1040200006D0FCF734F901460A4802F0C3FB71E7F9
:10403000FCF72DF982B2FF2306490848FEF770FA13
:1040400068E70000080400201C6E0208636D643AF3
:1040500020000000F09501200D050020A09C01200B
:1040600025730A00202020202075736167653A209F
:104070002020000020202020206578616D706C6574
:104080003A20000010B50C46022802D0042809D0BE
:104090000DE00CA16068FCF73BF940B9BDE81040A9
:1040A00001F05EBF09A16068FCF732F920B1206819
:1040B000FFF71CFF002010BDD4E90201BDE810404D
:1040C00001F0D4BE7061636B657473006765740042
:1040D00038B5012804D90868FFF708FF002038BD6B
:1040E00040480021414B016341633F480090082252
:1040F00003F59661E02002F05FF90500EFD13B483F
:104100000D30FDF78AF9024639A13E48FFF700F865
:104110003D4C207800283B4806D0FCF7B8F8014613
:10412000384802F047FB07E0FCF7B1F882B2FF2302
:1041300034493648FEF7F4F92C481130FDF76DF993
:10414000024633A12F48FEF7E3FF207800282D48D0
:1041500006D0FCF79CF801462A4802F02BFB07E04A
:10416000FCF795F882B2FF2326492848FEF7D8F9D4
:104170001E481530FDF751F902462AA12148FEF7E5
:10418000C7FF207800281F4806D0FCF780F80146BA
:104190001C4802F00FFB07E0FCF779F882B2FF231E
:1041A00018491A48FEF7BCF910481930FDF735F9DF
:1041B000024621A11348FEF7ABFF207800281148E2
:1041C00006D0FCF764F801460E4802F0F3FA07E067
:1041D000FCF75DF882B2FF230A490C48FEF7A0F90C
:1041E000284638BDB491012004000020348D012000
:1041F0004572726F7220436F64652031203A20252A
:1042000023580A00F09501200D050020A09C0120F4
:104210004572726F7220436F64652032203A202508
:1042200023580A004572726F7220436F6465203311
:10423000203A202523580A004572726F7220436F7E
:1042400064652034203A202523580A00F8B500265A
:104250000C4602280FD151A16068FCF759F8514D66
:1042600070B151A16068FCF753F8A0B150A160682B
:10427000FCF74EF8E8B12068FFF738FE0020F8BDE3
:10428000002201212846FDF7FAF90120FDF7F6F892
:104290000122114609E0002210212846FDF7EFF91E
:1042A0000120FDF7EBF8012210212846FDF7E7F980
:1042B00072E041480021424B016341633F48009056
:1042C000082203F59661402002F076F80600D6D168
:1042D0003CA14048FEF71CFF3F4D287800283D4890
:1042E00006D0FBF7D4FF01463A4802F063FA07E034
:1042F000FBF7CDFF82B2FF2336493848FEF710F9AD
:104300002F4C37A1313422463248FEF701FF28787E
:104310000028304806D0FBF7BAFF01462D4802F0CE
:1043200049FA07E0FBF7B3FF82B2FF2329492B4884
:10433000FEF7F6F8253422462FA12648FEF7E8FEC0
:1043400028780028234806D0FBF7A1FF0146214822
:1043500002F030FA07E0FBF79AFF82B2FF231D4913
:104360001E48FEF7DDF804F114022AA11948FEF7F1
:10437000CFFE28780028174806D0FBF788FF0146B3
:10438000144802F017FA07E0FBF781FF82B2FF231F
:1043900010491248FEF7C4F83046F8BD68617264EF
:1043A00000000000002002406D617374657200001F
:1043B000736F667400000000B491012004000020B7
:1043C000348D012052657365742073756363657362
:1043D000730A0000F09501200D050020A09C01202B
:1043E0004669726D776172652056657273696F6E8A
:1043F0003A2025730A000000417373656D626C7981
:104400002053657269616C204E756D6265723A2049
:1044100025730A0046696C74657220536572696180
:104420006C204E756D6265723A2025730A0000009B
:1044300070B50C460546032802D002280BD00FE0C9
:104440000CA16068FBF764FF50B921462846BDE81F
:10445000704002F07DBA09A16068FBF759FF20B1F6
:104460002068FFF743FD002070BDBDE8704001F0FB
:1044700037BB000077726974650000007265616483
:104480000000000038B5012804D90868FFF72EFDA8
:10449000002038BD1C4800211D4B016341631B48AF
:1044A0000090082203F59661502001F085FF04007A
:1044B000EFD117480930FCF7B0FFFCF7C1F89FEDCA
:1044C000151B53EC112BFCF74CF841EC100B13A10E
:1044D00053EC102B1648FEF71BFE164800780028F8
:1044E000134806D0FBF7D3FE0146114802F062F9EB
:1044F00007E0FBF7CCFE82B2FF230D490E48FEF722
:104500000FF8204638BD0000B491012004000020BF
:10451000348D0120000000000000244054656D70BF
:10452000657261747572653A20252E316C660A00D9
:10453000F09501200D050020A09C012010B50C462F
:10454000082802D002280CD010E00DA16068FBF70B
:10455000DFFE58B904F10801BDE81040062002F062
:1045600075B908A16068FBF7D3FE20B12068FFF79A
:10457000BDFC002010BDBDE8104001F06FBA000086
:10458000736574006765740010B50C46022802D08C
:10459000032814D018E015A16068FBF7B9FE50B1EC
:1045A00014A16068FBF7B4FEC0B114A16068FBF70A
:1045B000AFFEB8B108E0BDE8104002F04FBB0BA160
:1045C0006068FBF7A5FE20B12068FFF78FFC002094
:1045D00010BDA068BDE8104002F088BBBDE81040E7
:1045E00002F0D4B9BDE8104002F0EEBB696E697408
:1045F0000000000066696C6500000000696E73745D
:10460000616C6C00F8B50C4659490022594F0A6399
:10461000594D4A63022806D001282DD92068FFF79A
:1046200065FC0020F8BD55A16068FBF771FE00280D
:10463000F4D141F28734534B082203F596613020C0
:10464000009701F0B9FE060014D022464EA185E085
:10465000FBF71DFE01464E4802F0ACF808E000BF33
:10466000FBF715FE82B2FF2349494A48FDF758FF80
:104670003046F8BD641EDED2424B082203F5966137
:104680003020009701F098FE0600F2D13D4C42A187
:104690001D3422463E48FEF73BFD287800283C4862
:1046A00006D0FBF7F4FD0146394802F083F807E035
:1046B000FBF7EDFD82B2FF2335493648FDF730FFA9
:1046C0000A34224639A13248FEF722FD2878002814
:1046D0002F4806D0FBF7DBFD01462D4802F06AF8B3
:1046E00007E0FBF7D4FD82B2FF2329492948FDF7F3
:1046F00017FF0A34224633A12548FEF709FD287822
:104700000028234806D0FBF7C2FD0146204802F0EE
:1047100051F807E0FBF7BBFD82B2FF231C491D489F
:10472000FDF7FEFE253422462CA11948FEF7F0FCC9
:1047300028780028164806D0FBF7A9FD0146144842
:1047400002F038F807E0FBF7A2FD82B2FF23104920
:104750001048FDF7E5FE04F1140227A10C48FEF70E
:10476000D7FC287800280A483FF47AAF70E70000A9
:10477000B4910120040000200D05002072657065D1
:1047800061740000348D012069203D2025750A00E8
:10479000F0950120A09C012050726F647563742015
:1047A0004E756D6265723A2025730A004D616E7513
:1047B0006661637475726520446174653A2025737F
:1047C0000A0000004669726D776172652056657255
:1047D00073696F6E3A2025730A0000004173736598
:1047E0006D626C792053657269616C204E756D62E3
:1047F00065723A2025730A0046696C74657220530D
:10480000657269616C204E756D6265723A20257320
:104810000A00000010B50C46022802D0032809D077
:1048200012E00EA16068FBF773FD68B9BDE81040A7
:1048300001F09EB909A16068FBF76AFD20B908A1E3
:10484000A068FBF765FD20B12068FFF74FFB002053
:1048500010BDBDE8104001F029BA00006765740082
:10486000746872002DE9F84F0C468868022268A12E
:10487000FBF763FD674E0028DFF89CA1674F684D8A
:10488000A06806F108086FF0004BA6F2A7490BD00C
:10489000032264A1FBF751FD002864D02068FFF7D4
:1048A00025FB0020BDE8F88F0A220021801CFBF7C1
:1048B0001FFE0346401E072819D35BA16048FEF780
:1048C00027FC287800285E4806D0FBF7E0FC01466C
:1048D0005B4801F06FFF07E0FBF7D9FC82B2FF23D2
:1048E00057495848FDF71CFE4FF0FF30DAE74949B9
:1048F0005046FCF78AFD311D0220FCF786FD41463B
:104900001846FCF782FD504B0C224249584600974E
:1049100001F052FD0400C5D14846FCF77EFD83B28C
:10492000020C4AA14648FEF7F3FB287800284448C9
:1049300006D0FBF7ACFC0146414801F03BFF07E025
:10494000FBF7A5FC82B2FF233D493E48FDF7E8FD99
:104950003D480D30FCF761FD83B2020C44A138489C
:10496000FEF7D6FB3FE0A0680A220021C01CFBF73F
:10497000BFFD0346072819D946A13148FEF7C8FBF9
:10498000287800282E4806D0FBF781FC01462C48E9
:1049900001F010FF07E0FBF77AFC82B2FF23284901
:1049A0002848FDF7BDFD6FF001007BE7194950462F
:1049B000FCF72BFD311D0320FCF727FD414618466F
:1049C000FCF723FD204B0C2212495846009701F0BA
:1049D000F3FC04008AD14846FCF71FFD82B232A1E5
:1049E0001748FEF795FB28780028154806D0FBF7F6
:1049F0004EFC0146124801F0DDFE07E0FBF747FCE4
:104A000082B2FF230E490F48FDF78AFD204649E791
:104A100073770000E4910120A5A55A5A04000020F4
:104A20000D050020766F6C00537769746368206E03
:104A3000756D62657220696E76616C69640A00004A
:104A4000F0950120A09C0120348D0120506F7369E6
:104A5000746976652078203D2025752C204E656789
:104A600061746976652078203D2025750A00000074
:104A7000506F7369746976652079203D2025752C07
:104A8000204E656761746976652079203D20257523
:104A90000A000000414443206E756D626572206912
:104AA0006E76616C69640A0056616C7565203D2004
:104AB00025750A002DE9FE4F644DDFF894B1654E6F
:104AC0000C4605F1080905F10C08052802D0062856
:104AD0002AD02FE060A1A068FBF71AFC30B15FA1DB
:104AE000A068FBF715FC00287ED023E00A220021F5
:104AF000E068FBF7FDFC07462069FEF731FB51EC4F
:104B0000100BFBF7BDFD00EE100ADFED550A4F4913
:104B1000584620EE200ABDEEC00A8DED010AFCF7D2
:104B200074FC291D072082E002224EA1A068FBF739
:104B300004FC28B12068FFF7D9F90120BDE8FE8FF9
:104B4000A0680A220021801CFBF7D2FC0746401E09
:104B500007281AD344A14A48FEF7DAFA49480078F0
:104B60000028474806D0FBF792FB0146444801F075
:104B700021FE07E0FBF78BFB82B2FF23404942484E
:104B8000FDF7CEFC4FF0FF30D8E70A220021E068A5
:104B9000FBF7AEFC824601AA3CA12069FBF7E6FBCD
:104BA00002AA3AA16069FBF7E1FB28495846FCF7E5
:104BB0002CFC291D0620FCF728FC49463846FCF74A
:104BC00024FC41465046FCF720FC20490198103156
:104BD000FCF71BFC1D4902981431FCF716FC2C4B0A
:104BE00018220096194900E004E06FF0004001F03F
:104BF000E3FBA3E70A220021E068FBF779FC074604
:104C00002069FEF7ADFA51EC100BFBF739FD00EE11
:104C1000100AF2EE040A0D4920EE200A5846BDEEB5
:104C2000C00A8DED010AFCF7F0FB291D0820FCF7F6
:104C3000ECFB49463846FCF7E8FB41460198FCF797
:104C4000E4FB134B10220096CCE70000E491012016
:104C5000A5A55A5A04000020696C0000746872000F
:104C60000000C84273770000537769746368206E50
:104C7000756D62657220696E76616C69640A000008
:104C8000F09501200D050020A09C01202564000066
:104C9000348D01202DE9FE430C46886852A1FBF7B4
:104CA00037FB524E58B1022251A1A068FBF745FBD9
:104CB00038B12068FFF71AF90020BDE8FE8300250F
:104CC00023E0A0680A220021801CFBF711FC0546A6
:104CD000401E072819D347A14C48FEF719FA30782F
:104CE00000284A4806D0FBF7D2FA0146474801F0AF
:104CF00061FD07E0FBF7CBFA82B2FF23434944484A
:104D0000FDF70EFC4FF0FF30D7E701AA41A1E068A4
:104D1000FBF72CFBDFF800810198404503DD4FF4E1
:104D20008047B84219DB3DA13848FEF7F1F93078E9
:104D30000028364806D0FBF7AAFA0146334801F0AE
:104D400039FD07E0FBF7A3FA82B2FF232F49304871
:104D5000FDF7E6FB6FF00100AFE702AA2DA1206985
:104D6000FBF704FB0298404501DDB84219DB30A196
:104D70002648FEF7CDF930780028244806D0FBF706
:104D800086FA0146214801F015FD07E0FBF77FFA9E
:104D900082B2FF231D491E48FDF7C2FB6FF00200DF
:104DA0008BE728492848FCF730FB26490120091DDC
:104DB000FCF72BFB234928460831FCF726FB214949
:104DC00001980C31FCF721FB1E4902981031FCF7C9
:104DD0001CFB1E4800901E4B14221A496FF0004025
:104DE00001F0EAFA69E70000616C6C000D05002033
:104DF00073770000537769746368206E756D626520
:104E00007220696E76616C69640A0000F095012079
:104E1000A09C01202564000000C0FFFF56616C7556
:104E200065207820696E76616C69640A0000000074
:104E300056616C7565207920696E76616C69640ACB
:104E400000000000E4910120A5A55A5A04000020AA
:104E5000348D01202DE9F0412DED028B0C46886840
:104E600082B0FEA1FBF754FAFD4DA0B10222FDA1D4
:104E7000A068FBF762FA0028A0680ED0FAA1FBF741
:104E800047FA98B32068FFF731F8012002B0BDEC73
:104E9000028BBDE8F08100242EE00A220021801C54
:104EA000FBF726FB0446401E072819D3EFA1F5485F
:104EB000FEF72EF928780028F24806D0FBF7E7F92C
:104EC0000146F04801F076FC07E0FBF7E0F982B21A
:104ED000FF23EC49EC48FDF723FB4FF0FF30D5E70B
:104EE000012C04D0072C04D00B2705E003E0062793
:104EF00002E0092700E00824E449E548FCF785FAC8
:104F0000E2490920091DFCF780FAE04920460831F2
:104F1000FCF77BFADF480090DF4B0C22DB496FF097
:104F2000004001F049FA0600B0D1DFF86C8384B18B
:104F3000082C7DD2D9A1D348FEF7EAF828780028BA
:104F4000D0484ED0FBF7A3F90146CE4801F032FC21
:104F50004FE0D5A1CB48FEF7DBF828780028C948F8
:104F600006D0FBF794F90146C64801F023FC07E0A0
:104F7000FBF78DF982B2FF23C249C348FDF7D0FA8F
:104F800000249FEDCE8A474607EB84000930FCF7EA
:104F900044FA00EE100AF8EEC00A80EE880A10EE1D
:104FA000100AFBF75AFBCDE90001621CC4A1B54809
:104FB000FEF7AEF828780028B24806D0FBF767F96C
:104FC0000146B04801F0F6FB07E0FBF760F982B25A
:104FD000FF23AC49AC48FDF7A3FA641C402CD3D3A3
:104FE00063E2FBF754F982B2FF23A649A648FDF716
:104FF00097FA002426E000BF08EBC40202F1090082
:10500000FCF70BFA034602F10D00FCF706FA0090DC
:10501000621CAEA19B48FEF77BF8287800289948CF
:1050200007D0FBF734F90146964801F0C3FB08E0CE
:105030000BE0FBF72CF982B2FF2392499248FDF76F
:105040006FFA641CBC42D7D32FE2C9D19248093011
:10505000FCF7E3F900EE100AB2EE048AF8EEC00A9B
:1050600080EE880A10EE100AFBF7F7FA41EC100BFD
:1050700099A153EC102B8348FEF74AF828780028B2
:10508000804806D0FBF703F901467E4801F092FB09
:1050900007E0FBF7FCF882B2FF237A497A48FDF774
:1050A0003FFA7D480D30FCF7B8F900EE100AF8EE33
:1050B000C00A80EE880A10EE100AFBF7CEFA41EC27
:1050C000100B8CA153EC102B6E48FEF721F82878BA
:1050D00000286C4806D0FBF7DAF80146694801F071
:1050E00069FB07E0FBF7D3F882B2FF236549664806
:1050F000FDF716FA68481130FCF78FF900EE100A38
:10510000F8EEC00A80EE880A10EE100AFBF7A5FA46
:1051100041EC100B7EA153EC102B5A48FDF7F8FF21
:1051200028780028574806D0FBF7B1F801465548C3
:1051300001F040FB07E0FBF7AAF882B2FF235149D8
:105140005148FDF7EDF954481530FCF766F900EECB
:10515000100AF8EEC00A80EE880A10EE100AFBF77B
:105160007CFA41EC100B71A153EC102B4548FDF774
:10517000CFFF28780028434806D0FBF788F801467F
:10518000404801F017FB07E0FBF781F882B2FF23EC
:105190003C493D48FDF7C4F93F481930FCF73DF95B
:1051A00000EE100AF8EEC00A80EE880A10EE100A2F
:1051B000FBF753FA41EC100B63A153EC102B314871
:1051C000FDF7A6FF287800282E4806D0FBF75FF8E9
:1051D00001462C4801F0EEFA07E0FBF758F882B2DE
:1051E000FF2328492848FDF79BF92B481D30FCF781
:1051F00014F900EE100AF8EEC00A80EE880A10EEEC
:10520000100AFBF72AFA41EC100B56A153EC102BB5
:105210001C48FDF77DFF287800281A4806D0FBF7C8
:1052200036F80146174801F0C5FA07E0FBF72FF8FA
:1052300082B2FF2313491448FDF772F91648213052
:10524000FCF7EBF800EE100AF8EEC00A80EE880AD0
:1052500010EE100AFBF701FA92E00000696C000002
:105260000D0500207377000074687200537769742D
:105270006368206E756D62657220696E76616C6917
:10528000640A0000F0950120A09C0120E491012017
:10529000A5A55A5A04000020348D01205377697463
:1052A00063683A0A00000000496E73657274696FA2
:1052B0006E204C6F73733A0A000000000000C84271
:1052C00025752C252E32660A0000000025752C2538
:1052D000642C25640A000000322E35562048696788
:1052E00068205468726573686F6C643A20252E31AB
:1052F000660A0000322E3556204C6F7720546872B3
:105300006573686F6C643A20252E31660A000000D0
:10531000332E335620486967682054687265736875
:105320006F6C643A20252E31660A0000332E335606
:10533000204C6F77205468726573686F6C643A20F4
:10534000252E31660A000000352E30562048696748
:1053500068205468726573686F6C643A20252E313A
:10536000660A0000352E3056204C6F772054687244
:105370006573686F6C643A20252E31660A00000060
:1053800041EC100B4AA153EC102B5048FDF7C0FE26
:10539000287800284D4806D0FAF779FF01464B4897
:1053A00001F008FA07E0FAF772FF82B2FF234749DB
:1053B0004748FDF7B5F84748FCF72FF800EE100A0C
:1053C000F8EEC00A80EE880A10EE100AFBF745F9E5
:1053D00041EC100B40A153EC102B3C48FDF798FE1C
:1053E00028780028394806D0FAF751FF0146374897
:1053F00001F0E0F907E0FAF74AFF82B2FF233349F0
:105400003348FDF78DF83348001DFCF706F800EE31
:10541000100AF8EEC00A80EE880A10EE100AFBF7B8
:105420001CF941EC100B33A153EC102B2748FDF76E
:105430006FFE28780028254806D0FAF728FF014695
:10544000224801F0B7F907E0FAF721FF82B2FF2303
:105450001E491F48FDF764F81E480830FBF7DDFFC2
:1054600000EE100AF8EEC00A80EE880A10EE100A6C
:10547000FBF7F3F841EC100B27A153EC102B13486A
:10548000FDF746FE28780028104806D0FAF7FFFE00
:1054900001460E4801F08EF907E0FAF7F8FE82B2F5
:1054A000FF230A490A48FDF73BF83046EEE40000C6
:1054B00036342E3056204869676820546872657308
:1054C000686F6C643A20252E31660A00F095012041
:1054D000A09C0120598D012036342E3056204C6F6F
:1054E00077205468726573686F6C643A20252E319A
:1054F000660A000054656D7065726174757265208E
:1055000048696768205468726573686F6C643A20F4
:10551000252E31660A00000054656D706572617455
:10552000757265204C6F77205468726573686F6C74
:10553000643A20252E31660A0000000038B50C467A
:10554000052804D12DA1A068FAF7E2FE20B1206859
:10555000FEF7CCFC012038BD00221146E068FAF7C6
:10556000C7FF0546002211462069FAF7C1FF04462D
:10557000280C02D1B4F5806F19D922A12548FDF776
:10558000C7FD254800780028224806D0FAF77FFE9C
:105590000146204801F00EF907E0FAF778FE82B2E2
:1055A000FF231C491D48FCF7BBFF022038BD1C49E6
:1055B0001C48FBF72AFF1A490A20091DFBF725FFA3
:1055C000174928460831FBF720FF154920460C31C2
:1055D000FBF71BFF14480090144B102210496FF08A
:1055E000004000F0E9FE0500E0D12CB10F49224651
:1055F00009310FA0FDF7E4F9284638BD72656164F2
:10560000000000004172677320696E76616C696406
:105610000A000000F09501200D050020A09C01204B
:10562000E4910120A5A55A5A04000020348D0120E0
:10563000454550524F4D2044554D500070B5022104
:105640002248FCF717F805464FF480412048FCF744
:1056500011F80446012D10D01EA21FA12348FDF70A
:1056600057FD234D28780028204808D0FAF70FFE70
:1056700001461E4801F09EF809E01EA2EDE7FAF788
:1056800006FE82B2FF2319491C48FCF749FF012C92
:105690000FD010A21AA11548FDF73AFD287800286E
:1056A000124808D0FAF7F3FD0146104801F082F8DD
:1056B00009E010A2EEE7FAF7EAFD82B2FF230B49F8
:1056C0000E48FCF72DFF002070BD000000200240B6
:1056D000001C024073657400416C61726D20736937
:1056E000676E616C2069732025730A00F0950120B4
:1056F0000D0500206E6F742073657400A09C01205E
:1057000053776974636820526561647920736967AF
:105710006E616C2069732025730A000038B50C4651
:1057200088681DA1FAF7F4FD70B11DA1A068FAF711
:10573000EFFD58B11CA1A068FAF7EAFD40B120685E
:10574000FEF7D4FB012038BD002502E0012500E072
:1057500002250A220021E068FAF7CAFE034615492D
:105760001548FBF752FE13490520091DFBF74DFEB6
:10577000104928460831FBF748FE0E4918460C31FF
:10578000FBF743FE0D4800900D4B102209496FF0C6
:10579000004000F011FE38BD6C61746368000000C9
:1057A000616C61726D00000073775F72656164798E
:1057B00000000000E4910120A5A55A5A0400002031
:1057C000348D012008B509490948FBF71EFE074939
:1057D0000B20091DFBF719FE06480090064B082216
:1057E00002496FF0004000F0E7FD08BDE4910120A0
:1057F000A5A55A5A04000020348D01202DE9F0415E
:1058000088680A220021FAF773FE402848D8002849
:1058100046D00122244D471E540321462846FBF75B
:105820002EFF6610002231462846FBF728FF07F0BE
:10583000010240212846FBF722FFC7F340028021E6
:105840002846FBF71CFFC7F3800261112846FBF7CF
:1058500016FFC7F3C00221112846FBF710FFC7F35C
:105860000012E1102846FBF70AFFC7F34012A1100F
:105870002846FBF704FF002221462846FBF7FFFEDF
:105880000A20FBF7FBFD012231462846FBF7F7FE15
:10589000012221462846FBF7F2FE0020BDE8F081F8
:1058A0004FF0FF30FAE70000001C0240F8B50C464C
:1058B000C868FAF7ECFC05463BA1A068FAF728FD9A
:1058C0003A4E4FF0FF37A0B139A1A068FAF720FD9A
:1058D00030B339A1A068FAF71BFD30B337A1A06837
:1058E000FAF716FD002825D02068FEF7FFFA012000
:1058F000F8BD0023082D29D931A11FE0FAF7C7FC14
:105900000146364800F056FF08E000BFFAF7BFFC3A
:1059100082B2FF2331493248FCF702FE3846F8BD17
:105920000123082D12D92FA108E002230C2D0DD937
:1059300034A103E00323172D08D93AA12748FDF726
:10594000E7FB307800282548E0D0D7E73D493E48BE
:10595000FBF75BFD3B490420091DFBF756FD394968
:1059600018460831FBF751FD38A1E068FAF7D0FC82
:1059700034490C3190B12846FBF747FD3148E168C6
:105980001030FAF799FC33480090334B05F11002C0
:105990002C496FF0004000F00FFDF8BD0020FBF730
:1059A00034FD0025EFE70000706E00000D050020BB
:1059B000646174650000000061736E0066736E00C0
:1059C000504E206D757374206C657373207468611C
:1059D0006E20382062797465730A0000F09501200A
:1059E000A09C012044617465206D757374206C6502
:1059F0007373207468616E20382062797465730A4D
:105A00000000000041534E206D757374206C657367
:105A100073207468616E2031322062797465730A74
:105A20000000000046534E206D757374206C657342
:105A300073207468616E2032332062797465730A52
:105A400000000000E4910120A5A55A5A636C65612D
:105A50007200000004000020348D012038B5154884
:105A60000021164B0163416313480090082203F59F
:105A70009661742000F0A0FC04001AD10F4A10A116
:105A800009321448FDF744FB1348007800281148F8
:105A900006D0FAF7FCFB01460E4800F08BFE07E04B
:105AA000FAF7F5FB82B2FF230A490C48FCF738FDF0
:105AB000204638BDB491012004000020348D01201F
:105AC0005265636569766564206461746520257339
:105AD0000A000000F09501200D050020A09C012087
