:020000042000DA
:1000000028E4012081020020E75E0020A7530020A1
:10001000E55E0020BB0B00200576002000000000FC
:10002000000000000000000000000000C1010020EE
:1000300099200020000000001D020020F16E002029
:100040009B0200209B0200209B0200209B020020BC
:10005000552100209B0200209B2000209B020020B5
:100060009B0200209B0200209B0200209B0200209C
:100070009B0200209B0200209B0200209B0200208C
:100080009B0200209B0200209B0200209B0200207C
:100090009B0200209B0200209B0200209B0200206C
:1000A0009B0200209B020020DD6F00209B020020AD
:1000B0009B0200209B0200209B0200209B0200204C
:1000C0009B0200209B0200209B0200209B0200203C
:1000D0009B020020B57400209B0200209B020020A0
:1000E000A12000209B0200209B0200209B020020F8
:1000F0009B0200209B0200209B0200209B0200200C
:100100009B0200209B0200209B0200209B020020FB
:100110009B0200209B0200209B0200209B020020EB
:100120009B0200209B020020E91F00209B02002070
:100130009B0200209B0200209B0200209B020020CB
:100140009B0200209B0200209B0200209B020020BB
:100150009B0200209B0200209B0200209B020020AB
:100160009B0200209B0200209B0200209B0200209B
:100170009B0200209B0200209B0200200000000048
:100180009B0200209B0200209B0200209B0200207B
:100190009B0200209B0200209B0200209B0200206B
:1001A00000000000000000009B020020DFF80CD0DF
:1001B00000F014FC004800478586002028E4012058
:1001C0002C4B19680868B0E8F04F80F30988BFF33A
:1001D0006F8F4FF0000080F311887047000000001F
:1001E00008480068006880F308884FF0000080F33A
:1001F000148862B661B6BFF34F8FBFF36F8F00DF15
:1002000000BF00BF08ED00E0DFF80C00016841F41A
:1002100070010160704700BF88ED00E0EFF30980D6
:10022000BFF36F8F134B1A681EF0100F08BF20ED3D
:10023000108A20E9F04F106009B44FF0500080F3AD
:100240001188BFF34F8FBFF36F8F0AF051F84FF053
:10025000000080F3118809BC19680868B0E8F04F05
:100260001EF0100F08BFB0EC108A80F30988BFF3AE
:100270006F8F704758850120EFF3058070470000AD
:100280000648804706480047FEE7FEE7FEE7FEE730
:10029000FEE7FEE7FEE7FEE7FEE7FEE7C56F0020AC
:1002A000AD0100202DE9F05F0546002092469B46F7
:1002B00088460646814640241BE02846414647467C
:1002C000224600F0B8FA53465A46C01A914110D35C
:1002D00011461846224600F09FFA2D1A67EB0108D6
:1002E0004F4622460120002100F096FA17EB000944
:1002F0004E41201EA4F10104DFDC484631462A4667
:100300004346BDE8F09F40EA01039B0703D009E0A4
:1003100008C9121F08C0042AFAD203E011F8013BF1
:1003200000F8013B521EF9D27047D2B201E000F84A
:10033000012B491EFBD270470022F6E710B5134689
:100340000A4604461946FFF7F0FF204610BD421C3E
:1003500010F8011B0029FBD1801A704710B500224C
:1003600000E0521C835C8C5CA34201D1002BF8D1CD
:10037000D8B2E1B2401A10BD034611F8012B00F8C3
:10038000012B002AF9D1184670472DE9F05F9346FA
:100390000F4680460446002607F05AF9D0F8009030
:1003A000824614F8015B2DB100F068FA0068405DE8
:1003B000C007F6D12B2D02D02D2D1AD0641E00219E
:1003C000CAF800105A463946204600F05BFA01464A
:1003D00027B13868A04201D1C7F80080DAF80000E0
:1003E000022809D0CAF80090700505D54842BDE83A
:1003F000F09F46F48066E2E70846F8E72DE9FE4FF5
:10040000804681EA0300C00F0C46009021F00041B5
:1004100023F00045B8EB0200A94105D24046214631
:1004200090461C460B46024623F00040104347D03E
:10043000270DC7F30A00C3F30A510290401A019036
:1004400040286BDAC3F3130040F4801B00989246F7
:1004500020B10023D2EB030A63EB0B0B0198594642
:10046000C0F14002504600F0D7F906460D4650460E
:100470005946019A00F0EFF910EB080061410024A1
:1004800087EA115284EAE7731A4340D0009A62B3B4
:10049000019A012A4FEA075215DC001B61EB0201A9
:1004A0004FF0004202EA0752CDE90042001C41F53C
:1004B000801132462B4600F043FA03B0BDE8F08FBE
:1004C00040462146F9E7001B61EB0201001C41F5A3
:1004D000801300185B412018A2F5001747EB0301B9
:1004E00040EAD570B6196D4111E06D084FEA360645
:1004F00045EAC0754FEA0752001B61EB0201001C80
:1005000041F5801149084FEA300000195141324647
:100510002B4603B0BDE8F04F00F003BA009801226B
:1005200040000023D0EB020263EBE0730098214609
:100530004FEAE074B8EB000061EB0401E9E783F0F7
:1005400000435BE781F0004158E72DE9FE4F81EA67
:10055000030404F0004421F0004100944FF0000B2C
:1005600023F0004350EA01045ED052EA03045BD05A
:10057000C3F30A54C1F30A552C44A4F2F334019492
:10058000A0FB0254C1F3130141F48011C3F3130320
:1005900043F4801301FB024400FB034E840A970AD4
:1005A00044EA815447EA8357A4FB076802958D0A01
:1005B00005FB07854FEA932C04FB0C542705029D8D
:1005C0004FEA065847EA1637B5EB08056EEB070CFD
:1005D000870E920E47EA811742EA8312A7FB0201B7
:1005E000B6EB0B0164EB00042B0D43EA0C335E18F1
:1005F00044EB1C50DA465146E7FB0201C5F31304F5
:100600004FEA0B3343EA14534FEA0432019C43EAA6
:100610000603A4F10C040294009CCDE900B400F0A0
:100620008FF903B0BDE8F08F00200146F9E72DE90E
:10063000F04D81EA030404F0004B21F0004514461C
:100640004FF0000A23F0004150EA050220D054EA9E
:1006500001021DD0C5F30A570246C5F31303C1F3C7
:100660001300C1F30A5640F4801543F48013A7EB3E
:100670000608101BD64608F2FD3873EB050002D3BE
:1006800008F1010801E092185B41B8F1000F03DAAC
:1006900000200146BDE8F08D00204FF48011064691
:1006A00084460EE0171B73EB050705D3121B63EBA3
:1006B000050306434CEA010C49084FEA3000921842
:1006C0005B4150EA0107EDD152EA030012D082EA01
:1006D000040083EA0501084305D0101BAB4106D294
:1006E0000122002306E000224FF0004302E06FF0F9
:1006F000010253101AEB06004CEB085110EB0A00F4
:1007000041EB0B01BDE8F04D00F00BB90EB5C10F88
:1007100080EAE0700844CA07002140F233438DE8C4
:100720000E000A460B4600F00BF903B000BD0EB5F3
:1007300040F2334102910021CDE900110A460B46F7
:1007400000F0FEF803B000BD70B5C1F30A5201F02D
:1007500000450024C1F3130140F2FF3341F480113E
:100760009A4201DA002070BD40F233439A42A2F26D
:10077000334203DC524200F05EF800E090402C432C
:10078000F1D0404270BDC1F30A5210B5C1F313015C
:1007900040F2FF3341F480119A4201DA002010BD8B
:1007A00040F233439A42A2F2334203DC524200F059
:1007B00042F810BD904010BD30B5041E71F1000428
:1007C00004DB4FF00044404264EB0101141E73F15E
:1007D000000405DB1C464FF00043524263EB040368
:1007E0008B4208BF824230BD30B5041E71F1000457
:1007F00004DB4FF00044404264EB0101141E73F12E
:10080000000405DB1C464FF00043524263EB040337
:10081000994208BF904230BD202A04DB203A00FAFA
:1008200002F1002070479140C2F1200320FA03F347
:10083000194390407047202A04DB203A21FA02F045
:100840000021704721FA02F3D040C2F1200291400A
:10085000084319467047202A06DBCB17203A41FA95
:1008600002F043EAE07306E041FA02F3D040C2F13D
:100870002002914008431946704700000048704725
:10088000DCB400202DE9F05F824600780027154691
:100890008B460AF10104B946302801D09DB113E01E
:1008A00014F8010B0127782803D0582801D045B14E
:1008B0000AE00DB1102D07D10027102514F8010B07
:1008C00002E0082500E00A250026B0460EE005FB00
:1008D000080005FB06F1012701EB10461FFA80F81E
:1008E000B6F5803F00D3B94614F8010B294600F055
:1008F00087F80028EBDABBF1000F05D00FB1641EBA
:1009000000E05446CBF80040B9F1000F06D006F0E5
:100910009FFE02210160C81EBDE8F09F48EA064024
:10092000FAE710B5141E73F1000408DA401C41F117
:10093000000192185B411A4301D120F0010010BD63
:100940002DE9F04D92469B4611B1B1FA81F202E0D9
:10095000B0FA80F220329046FFF75EFF04460F4661
:1009600040EA0A0041EA0B0153465A46084313D0B5
:10097000114653EA010019D0C8F140025046FFF772
:100980005AFF05460E46504659464246FFF744FF79
:10099000084305D0012004E020463946BDE8F08D2B
:1009A0000020054346EAE0762C4337430A98630566
:1009B000E40AA0EB08000022FD0A44EA47540A308A
:1009C00002D500200146E9E7010510196941DDE97A
:1009D000084500196941BDE8F04DA2E7064C074DF6
:1009E00006E0E06840F0010394E8070098471034FF
:1009F000AC42F6D3FFF7DEFBB0B50020D0B5002047
:100A00003A2800D2303820F02002412A01D3A2F146
:100A10003700884201D34FF0FF30704770B58C1813
:100A200010F8015B15F0070301D110F8013B2A1102
:100A300006D110F8012B03E010F8016B01F8016BEF
:100A40005B1EF9D12B0705D40023521E0DD401F8EB
:100A5000013BFAE710F8013BCB1A921C03E013F8B4
:100A6000015B01F8015B521EF9D5A142D8D30020E9
:100A700070BD0000464910B54A6822F440324A6011
:100A80004A6843681A434A6001684A6822F48072DF
:100A90004A6001684A68036942EA03224A600168C1
:100AA0004A6822F040724A6001684A6883681A43C3
:100AB0004A6001688A6822F400628A6001688A6874
:100AC000C3681A438A60816A6FF07062D14201681C
:100AD0008A6822F070628A6001688A680CD0836A32
:100AE0001A438A6001688A6822F040528A6001686D
:100AF0008A68C36A1A4301E022F040528A600168A2
:100B00008A6822F002028A6001688A68037E42EAEB
:100B100043028A6090F82010002901684A680FD0CB
:100B200042F400624A6001684A6822F460424A6006
:100B300001684A68174C436A04EB43331A4301E0E7
:100B400022F400624A600168CA6A22F47002CA6232
:100B50000168CA6A838B104C04EB03531A43CA62C0
:100B600001688A6822F400728A6001688A6890F8D5
:100B7000303042EA43228A6001688A6822F4806247
:100B80008A6001688A68406942EA8020886010BDF6
:100B90000023014000E0FFFF0000F0FF020E0A709A
:100BA000020C4A70020A8A70C87070470168C078E7
:100BB00009BA21F0FF0108437047FEE730B54FF056
:100BC000FF330022064C07E0855C5D40EDB2521C0D
:100BD00054F8255085EA13238A42F5D3D84330BD13
:100BE0000080012010B52DED048BFFF7A0FD9FEDD7
:100BF000211B53EC112BFFF7A8FC9FED209B53EC1E
:100C0000192BFFF7A2FC41EC180B51EC190B53EC1C
:100C1000182BFFF794FC41EC100B51EC180B53EC24
:100C2000102BFFF704FD41EC100B06F015FD9FEDB6
:100C3000151B51EC100B53EC112BFFF786FC9FEDAD
:100C4000131B53EC112BFFF7D9FB41EC100B53ECAA
:100C5000102B9FED100B51EC100BFFF7E8FC9FEDF4
:100C60000F1B53EC112BFFF76AFCBDEC048B41EC1E
:100C7000100B10BD000000000000303F000000001D
:100C8000000004400000000000A0624000000000DE
:100C900000689A400000000010BD1E4100000000E6
:100CA0000010714070B5012202210A4802F0CDFB0C
:100CB0000122094D54022146284602F0C6FB0120BC
:100CC00007F09AFF21462846BDE87040002202F056
:100CD000BCBB00000020024000100240012302685B
:100CE0008B409A430260704710B50022C0B2114693
:100CF00008F0A2FE002801D04FF0FF3010BD000028
:100D000070B5012291030A4802F09FFB0122094DB0
:100D100054022146284602F098FB012007F06CFFA0
:100D200021462846BDE87040002202F08EBB00003C
:100D3000001C02400010024070B50948094C002513
:100D4000806828B104F10C01A520FFF727FF00E01F
:100D5000E5606020C4E900050420A060002070BDAB
:100D600000FC0220908E01202DE9F84F6B4881464F
:100D7000FFF71CFF6A4F00266A494FF004086FF026
:100D8000004507F13C04BE64884202D042F2837001
:100D900027E009F10400FFF709FF604A012802F18A
:100DA000080102F10C0B02F1100A20D0022830D009
:100DB00003283BD0042841D005284DD0062858D020
:100DC000072872D008287ED009286CD00A286BD05A
:100DD0000B28DBD1BE6405F037FF002872D04FF03E
:100DE000FF30C4F80880C4E90050BDE8F88F084619
:100DF000BE64FFF7DBFE06465846FFF7D7FE074600
:100E00005046FFF7D3FE0246F0B2394607F07AFAB1
:100E1000E7E7BE640846FE64FFF7C8FEC0B207F00D
:100E200029FA08212560C4E90101DEE70846BE640D
:100E3000FFF7BCFEC0B207F09FFAD2E70846BE64D7
:100E4000FFF7B4FE06465846FFF7B0FE0246F0B282
:100E5000514607F062FAC4E70846BE64FFF7A6FEF3
:100E600006465846FFF7A2FEC1B2F0B207F0E2F91B
:100E7000B7E70846BE64FFF799FE06465846FFF7F7
:100E800095FE83465046FFF791FE074609F1140090
:100E9000FFF78CFE0346F0B23A46594607F067F971
:100EA0009FE702E00FE01BE022E00846BE64FFF788
:100EB0007DFE06465846FFF779FE0146F0B207F080
:100EC00041F98EE726E00846BE64FFF76FFE06464E
:100ED0005846FFF76BFE0146F0B207F085F980E750
:100EE0000846BE64FFF762FE694607F0EDF80CE0C5
:100EF0000846BE64FFF75AFE06465846FFF756FE00
:100F000000906946304607F085F9C4E90050009921
:100F1000A1606AE784E86001002066E7E5890120B6
:100F2000548E0120A5A55A5A70B50B484FF4807411
:100F300021460546FFF700FA23462A464FF493510F
:100F4000A02005F099FD044877210C3801600021AC
:100F5000C0E90114084670BD9C8E01202DE9F041C6
:100F60000A480025856401F015FA084CD0263C3467
:100F7000042704F10C01002800DA0020FFF70EFE20
:100F8000A760C4E900650020BDE8F081548E01200F
:100F90002DE9F047224D04202DED028B82B06946E9
:100FA00005F060FA0026DFF87C904FF47A7AA5F11C
:100FB0000C044FF00408502708B1504623E0BDF858
:100FC0000000FFF70FFEB0EE408AF0EE608A99ED68
:100FD000100B51EC180B53EC102BFFF705FCECD366
:100FE00099ED120B51EC180B53EC102BFFF7E4FBAF
:100FF000E3D351EC180B9FED0C0B53EC102BFFF7C8
:10100000A4FAFFF7A1FB08F06DFD2860C4F8088082
:10101000C4E9007602B00020BDEC028BBDE8F08789
:101020009C8E0120A09301200000000000002440BD
:1010300000B58BB0002204A9144803F07FFA002207
:1010400009A9124803F058FA9DF826009DF81230BD
:101050009DF811209DF810108DE80F009DF82720B5
:101060009DF825300AA1114802F5FA6206F0CCFA83
:101070000E4800220C3874218276C276C0E9001234
:10108000102181600BB0104600BD0000EC940120DF
:10109000253034752530327525303275253032755E
:1010A0002530327525303275000000009C8E0120FD
:1010B00010B5244C88B074212046FFF73DF9082371
:1010C0006A460021A020143405F0D6FC00980823BD
:1010D00001C4019844F8060B6A462021A02005F0BF
:1010E000CBFC009844F8040B019844F8060B164812
:1010F00001682046FFF740F90C236A464021A020F2
:10110000253405F0B9FC009844F8040B019844F824
:10111000040B029844F80C0B17236A466021A020A8
:1011200005F0AAFC172269462046FFF7ECF80548AF
:1011300030210C380160002141607821816008B0C5
:10114000002010BD9C8E0120008401202DE9FE4F5F
:101150004B4F4A4CD7E90121881A914206D249499E
:101160000A6849490968891A0844401C860A00B17E
:10117000761C2046FFF71AFDDFF81091014609F1B1
:101180000C000290001D0190001D4FF00C084FF064
:10119000000A4FF0760B0090B14204D03CA14348C6
:1011A00006F032FA52E0201DFFF700FD0546B0427E
:1011B00047D8002D45D03E49786801EB852100EBEA
:1011C000010831480168491C884507D32D4900684A
:1011D0000968A8EB0000401E01EB00084FF4806096
:1011E000AE4204D1B968A1EB0804844200D9044698
:1011F0003048007858B130A12C4806F005FA2B4849
:10120000FFF7A5F80146294805F052FF00243046B3
:101210000299FFF7C3FC28460199FFF7BFFC20465F
:101220000099FFF7BBFC194922461831404604F0EB
:1012300043FBC9E900BA0C34C9F808400020BDE8F6
:10124000FE8F024625A1194806F0DEF91748FFF780
:101250007EF80146154805F02BFF30460299FFF74E
:101260009DFC00200199FFF799FC00200099FFF7F1
:1012700095FCC9E900BAC9F80880DFE7E5890120D3
:1012800090930120B0B20020E0B20020908E0120A7
:1012900057726F6E67206E756D626572206F662083
:1012A0007061636B616765730A000000D48501207B
:1012B00000FCFFFFFC84012052656164696E6720B9
:1012C0006C6F67207768656E20666C617368206953
:1012D0006E207573696E670A000000007061636BB1
:1012E0006574206E756D626572203D2025752069DC
:1012F0007320696E76616C69640A000070B51548E8
:10130000816840680C1A814206D21348134900686C
:101310000968081A0444641CE01704EB9050851215
:1013200004B16D1C0E490020FFF738FC0C49204623
:10133000091DFFF733FC0A4928460831FFF72EFC48
:10134000074875210C380160002141600C21816043
:10135000002070BD90930120B0B20020E0B20020C8
:101360009C8E01202DE9F04100242B48254627467C
:1013700026462146804604F057FA00B10124012197
:10138000404604F051FA08B144F0200402214046DE
:1013900004F04AFA08B144F040040321404604F046
:1013A00043FA08B144F008040621404604F03CFA30
:1013B00008B144F400740721404604F035FA08B13E
:1013C00044F480640421404604F02EFA00B1022562
:1013D00012490020FFF7E2FB10492046091DFFF7E4
:1013E000DDFB0E4928460831FFF7D8FB0B4938468C
:1013F0000C31FFF7D3FB094930461031FFF7CEFB24
:101400000648E0210C380160002141601421816010
:101410000020BDE8F081000008FC02209C8E012025
:1014200010B51648D0F8090008F05CFB04461449D2
:10143000002000BF51F83020A24206D101EBC000CD
:10144000406828B1BDE810400047401C1228F1D385
:1014500022460CA1124806F0D7F81148FEF777FF94
:1014600001460F4805F024FE0E4842F28371C0E9A0
:10147000004100218160084610BD0000D489012090
:1014800004840120556E6B6E6F7720636F6D6D6104
:101490006E64206964203D202523580A0000000066
:1014A000D4850120908E01202DE9F047444D00267F
:1014B00005F26F404FF480518664424801F0C0FF4E
:1014C000C02705F2AB444FF0040848B12846FFF7A7
:1014D0006DFB0546401E40280ED32A463AA14DE03A
:1014E00041A14D4806F090F84B48FEF730FF014609
:1014F000494805F0DDFD5BE0FFF702FC284605F0FA
:1015000069FC0200454800F1080917D00671052161
:10151000484604F089F970B941A13F4806F074F8D3
:101520003D48FEF714FF01463B4805F0C1FD05218B
:10153000484605F049FC2A463EA11FE005710420FB
:1015400007F05AFB00F026FFA8421BD005F088FBED
:101550000521484604F068F970B931A12E4806F01B
:1015600053F82D48FEF7F3FE01462B4805F0A0FD89
:101570000521484605F028FC2A4637A1264806F0F2
:1015800043F8B1E705F094FC0521484604F04CF916
:1015900070B13AA1204806F037F81F48FEF7D7FE91
:1015A00001461D4805F084FD05214846FFF796FBDE
:1015B000C4F80880C4E900760020BDE8F087000088
:1015C000E5890120001C0240496E76616C69642047
:1015D000737769746368206368656E6E656C203D1F
:1015E0002025750A00000000537769746368206342
:1015F0006F6D6D616E6420636F6D65206275742020
:10160000737769746368206D6F64652069732077F0
:10161000726F6E670A000000D485012000FC022072
:101620005377697463682061626E6F726D616C0AD2
:101630000000000053657420737769746368207438
:101640006F202575206368616E6E656C2066616928
:101650006C65640A00000000536574207377697438
:10166000636820746F202575206368616E6E656CF9
:10167000206661696C656420320A000053776974E2
:101680006368206261636B20746F206E6F726D619E
:101690006C0A000030B589B02F480025019585649B
:1016A000142102A8FEF748FE2C4C01208DF81C00E6
:1016B00054F8110F00900A2200216846FEF765FEDB
:1016C000A0F5FA608DF81F008DF80250A088ADF8E3
:1016D00000000A2200216846FEF757FE8DF81D0023
:1016E000E088ADF800000A2200216846FEF74DFEB2
:1016F0008DF81E002089ADF800000A2200216846FE
:10170000FEF743FE8DF808006089ADF800000A225C
:1017100000216846FEF739FE8DF80900A089ADF872
:1017200000000A2200216846FEF72FFE8DF80A000D
:10173000002202A90A4802F0F3FF002207A9084884
:1017400002F08AFF044873213C30C0E900150421EF
:10175000816009B0002030BD548E0120D489012061
:10176000EC940120074901204871BFF34F8F0648D0
:101770000168064A01F4E06111430160BFF34F8F35
:1017800000BFFDE700FC02200CED00E00400FA05BC
:101790002DE9F05F6E4C04F5996854F8110F08F0CC
:1017A000A1F90646606808F09DF905460027304615
:1017B00008F098F9C8F8000008F2B440083401783D
:1017C000A0F598684FF011094FF0080A01290ED0D2
:1017D00060A16C4805F018FF6A48FEF7B8FD0146A5
:1017E000684805F065FC414642F2837088E0834614
:1017F000C069A84202D22A4663A119E0012E13D083
:10180000DBF810305846591CB14202D1017B032944
:1018100056D0B34202D1017B022951D0324663A196
:10182000584805F0F1FE06E0A8420FD02A4667A10D
:10183000544805F0E9FE5348FEF789FD014651483A
:1018400005F036FC414642F2A57059E068A12046F9
:10185000FEF784FD20B16AA14A4805F0D5FEEAE70B
:101860000021CBF81060CBF82010D4F8C01094F809
:10187000C32009BA21F0FF011143CBF81810D4F8A6
:10188000C41094F8C72009BA21F0FF011143CBF826
:1018900014106A495846497969B969490A7852B9B0
:1018A00001220A704270674A4168914203D0DBF816
:1018B000080000F051FC04F58074A5F5807501E086
:1018C000CBF810605E4E307838B138467F1C062861
:1018D00003D2642007F090F9F5E70226062F15D30E
:1018E00059A1284805F090FE2648FEF730FD014634
:1018F000244805F0DDFB8BF80C60414642F27D7018
:10190000C1E90090C8F808A0BDE8F09F4B484179B4
:1019100039B10021417105F04BFE10B18BF80C601C
:1019200090E7DBF82010DBF804005E460844AA08C4
:10193000214600F035FC306A2844306203203073C1
:101940000021C8E900910846C8F808A0DCE70000BB
:10195000D489012043616E6E6F742065786375745D
:101960006520636F6D6D616E642062656361757380
:1019700065206F662077726F6E67206D6F64650AF1
:1019800000000000D48501205265636569766564B6
:1019900020696E76616C69642064617461206C6595
:1019A0006E6774682025750A000000005365712079
:1019B000696E76616C6964203A20257509707265DC
:1019C0005F736571203A2025750A000052656365D2
:1019D0006976656420696E76616C696420646174FF
:1019E00061206C656E677468203A2025750A0000D6
:1019F0004F4E45542D4F5357317836340000000078
:101A00005468652066696C65206973206E6F742068
:101A1000746865206669726D7761726520636F72A4
:101A2000726573706F6E64696E6720746F2074687E
:101A30006973206D6F64756C650A000078930120EE
:101A4000FC8401200000080857616974696E6720F2
:101A5000666C6173682074696D656F75740A000047
:101A600070B51648D0F8150008F03CF80246A0F50D
:101A70008070134C10250426B0F5407F10D911A1B9
:101A8000184805F0C1FD1748FEF761FC01461548EE
:101A900005F00EFB42F27D70A660C4E9005070BDF7
:101AA0001148012101700021C261017301610162CD
:101AB000A660C4E90051084670BD0000D489012029
:101AC000908E0120526563656976656420696E7643
:101AD000616C696420626C6F636B2073697A652046
:101AE00025750A00D4850120509301202DE9F04787
:101AF0003B48122604270178A0F5986401290DD0EF
:101B000038A1444805F080FD4248FEF720FC01461C
:101B1000404805F0CDFA42F283702FE0026A8169F5
:101B20006FF008058A4205D00B463BA1394805F005
:101B30006BFD04E00269032A0AD247A13BE0354865
:101B4000FEF705FC0146334805F0B2FA284615E0D9
:101B500080464068FFF732F8D8F8143002469342C6
:101B600011D041A12B4805F04FFD2A48FEF7EFFBAD
:101B70000146284805F09CFA6FF00900A760C4E907
:101B80000060BDE8F08741484FF00009DFF800C170
:101B900080F80590D8F80420624501D1012200E0C8
:101BA00002220271D8F81810C0E90213374805F074
:101BB000FFFC20B137A1174805F026FDBFE73FA184
:101BC000144805F021FD1348FEF7C1FB01461148FA
:101BD00005F06EFAA760C4E900690020D1E70000B3
:101BE0005093012043616E6E6F7420657863757445
:101BF0006520636F6D6D616E6420626563617573EE
:101C000065206F662077726F6E67206D6F64650A5E
:101C100000000000D485012054686520726563656A
:101C200069766564206C656E677468202575206927
:101C300073206E6F7420657175616C20746F206CF9
:101C4000656E67746820696E2068656164657220DE
:101C500025752E0A000000004E6F2076616C6964C5
:101C600020646174612E0A004352432076657269D4
:101C700066696564206661696C65642E2025235859
:101C800020213D202523580A0000000078930120E0
:101C90000000040855706461746520757067726196
:101CA00064652073746174757320746F206565704A
:101CB000726F6D206661696C65640A0055706772A9
:101CC000616465206669726D776172652073756302
:101CD000636573730A00000010B5644904202DED9C
:101CE000088B82B0FEF75AFF6946002004F0BAFB69
:101CF000002408B1ADF80040BDF80000FEF717FD64
:101D00009FED5BAB53EC1A2BFEF71FFC9FED5A8B3C
:101D100053EC182BFEF719FC9FED59BB53EC1B2B12
:101D2000FEF713FC9FED589B53EC192BFEF70DFCAF
:101D3000FEF729FD4D49ADF80000091D1920FEF7F9
:101D40002DFF4A49BDF800000831FEF727FF69461C
:101D5000012004F087FB08B1ADF80040BDF8000099
:101D6000FEF7E5FC53EC1A2BFEF7EFFB53EC182BB8
:101D7000FEF7EBFB53EC1B2BFEF7E7FB53EC192BA9
:101D8000FEF7E3FBFEF7FFFC3849ADF800000C312D
:101D90002120FEF703FF3549BDF800001031FEF7A2
:101DA000FDFE6946022004F05DFB08B1ADF800407D
:101DB000BDF80000FEF7BBFC53EC1A2BFEF7C5FB89
:101DC00053EC182BFEF7C1FB9FED311B53EC112B8D
:101DD000FEF7BBFB53EC192BFEF7B7FBFEF7D3FC6A
:101DE0002249ADF8000014313220FEF7D7FE1F491A
:101DF000BDF800001831FEF7D1FE6946032004F05B
:101E000031FB08B1ADF80040BDF80000FEF78FFCD3
:101E100053EC1A2BFEF799FB53EC182BFEF795FBAE
:101E20009FED1D1B53EC112BFEF78FFB53EC192B71
:101E3000FEF78BFBFEF7A7FC0C49ADF800001C3148
:101E40004FF42070FEF7AAFE0849BDF800002031CB
:101E5000FEF7A4FE054870210C38C0E900142421C7
:101E6000816002B00020BDEC088B10BD9C8E01206B
:101E7000000000000000303F0000000000000440AF
:101E800000000000000000400000000000002440AE
:101E900000000000000008400000000000804940F1
:101EA00010B54D4904202DED028BFEF777FE4A490F
:101EB0001920091DFEF772FE484C94ED000B9FEDB2
:101EC000488B51EC100B53EC182BFEF73EFBFEF742
:101ED0005AFC41490831FEF761FE94ED020B53ECC8
:101EE000182B51EC100BFEF730FBFEF74CFC3A4977
:101EF0000C31FEF753FE384921201031FEF74EFE1B
:101F000094ED040B53EC182B51EC100BFEF71DFB5A
:101F1000FEF739FC30491431FEF740FE94ED060B14
:101F200053EC182B51EC100BFEF70FFBFEF72BFCBC
:101F300029491831FEF732FE274932201C31FEF7BD
:101F40002DFE94ED080B53EC182B51EC100BFEF703
:101F5000FCFAFEF718FC20492031FEF71FFE94ED35
:101F60000A0B53EC182B51EC100BFEF7EEFAFEF7B0
:101F70000AFC19492431FEF711FE17494FF420706D
:101F80002831FEF70BFE94ED0C0B53EC182B51ECA3
:101F9000100BFEF7DAFAFEF7F6FB0F492C31FEF7CD
:101FA000FDFD94ED0E0B53EC182B51EC100BFEF7CE
:101FB000CCFAFEF7E8FB08493031FEF7EFFD0648A2
:101FC00072210C38016000214160342181600020C1
:101FD000BDEC028B10BD00009C8E0120A09301205F
:101FE0000000000000002440014800F05FBE000037
:101FF0009496012001681823CAB2103AB2FBF3F29A
:10200000054B6FF30901032A9B5CC36500D9091DC9
:102010008165084670470000F4B3002010B5014602
:1020200000208B698A6A4FF0C07453B1B3F5005F2A
:1020300015D072B1012A0CD0022A0AD0032A09D184
:1020400004E01AB1012A06D0022A03D1C96AC901E3
:1020500000D5012010BDC96AA142FAD010BD002AE6
:10206000F7D0012AF2D0022AF3D0032AF3D010BD10
:1020700030B50468256825F4802525600468636010
:102080008368402B036803D099600068C26030BD4C
:102090009A600068C16030BD7047012001F0DAB875
:1020A0004FF4005001F0D6B870470000002229B16B
:1020B00001291DD002291ED04FF440720B2800D9EF
:1020C000001D0E490B6823F440730B600B6813432B
:1020D0000B600A6822F0F8020A600A68022303EB28
:1020E000C00002430A60086840F48030086070470E
:1020F0004FF48072E2E74FF40072DFE7103C0240D9
:102100001348016889050FD5016821F40071016049
:10211000016841F400610160016821F4006101601F
:10212000016841F400710160016849050FD501683B
:1021300021F480610160016841F48051016001680F
:1021400021F480510160016841F4806101607047B1
:10215000003C024000F08ABF10B586B00446132848
:102160000ED201F033F80120CDE9010403900020E4
:10217000009002200490684600F01CFF002800D068
:10218000012006B010BD000010B501F01FF8034992
:1021900091200860BDE8104000F0CEBF0C3C02402A
:1021A0002DE9F0470026174689460546344601F0DA
:1021B0000DF8DFF83C8012E059F82420002329466E
:1021C000022000F0C5FF08B103260CE059F82400F6
:1021D0002968814201D0022605E0641C2D1DBC4205
:1021E00001D24545E8D900F0A7FF3046BDE8F087A9
:1021F000F8FF0F080E4A136823F440731360032995
:102200000DD0012911680FD041F40041116011680F
:102210004FF4803343EA0020014311607047116896
:1022200048F204031943F1E741F00401EEE700002E
:10223000103C0240064A136823F44073136013688D
:102240001360136843F001031360017070470000CE
:10225000103C0240094910B50C6824F440740C602D
:102260000C6844F440740C600C6844F001040C6089
:102270000260BFF36F8F436010BD0000103C02404E
:10228000074A136823F440731360136843F48073A0
:102290001360136843F0010313600180704700006E
:1022A000103C0240074A136823F44073136013681C
:1022B00043F400731360136843F00103136001607B
:1022C00070470000103C02401C490868C2061C48C8
:1022D00005D5C26942F01002C26110220A600A6884
:1022E000920605D5C26942F00802C26120220A6046
:1022F0000A68520605D5C26942F00402C261402252
:102300000A600A68120605D5C26942F00202C2617B
:1023100080220A600A68D20506D5C26942F001022D
:10232000C2614FF480720A600A68920705D5C269DB
:1023300042F02002C2610220086070470C3C02405B
:102340003497012070B5114904460020C86101F09E
:1023500081F806460E4D09E0601C07D024B101F05B
:1023600079F8801BA04201D9032070BD2868C00302
:10237000F2D42868C00701D001202860286810F432
:10238000F970F2D0FFF7A0FF012070BD3497012053
:102390000C3C02402DE9F041734C2DED028B8AB0CC
:1023A0002079002811D000F031F9050012D52279EA
:1023B0006EA1774805F028F97548FDF7C8FF01467A
:1023C000734804F075FE4FF0FF300AB0BDEC028B8D
:1023D000BDE8F0816F4805EB450200EB420123792F
:1023E0008F7810F812008988181A01EBC00086B2A5
:1023F00004AA3146A02005F0D3FF10B16FF0010010
:10240000E3E7361DB1B203AAA02005F0C9FF10B161
:102410006FF00200D9E70DF1140808AB07AA06A96E
:102420003846CDF8008000F029F910B16FF00300B4
:10243000CBE70498002802DBBDF8187001E0BDF876
:102440001C700399002902DBBDF8206001E0BDF893
:10245000146006F0B9FB01469FED4F8B3846B0EE95
:10246000480AF0EE680A03F0E7F9C0B1039806F0F5
:10247000ABFB0146B0EE480AF0EE680A304603F0C6
:10248000DBF960B10126300300EBC50085B204AA78
:102490002946A02005F084FFA0B1F01F95E703981E
:1024A0003A46CDE900603EA13948049B05F0ACF8FE
:1024B0003748FDF74CFF0146354804F0F9FD6FF051
:1024C000040082E72D1DA9B203AAA02005F068FF31
:1024D00010B16FF0060078E708AB07AA06A93046EE
:1024E000CDF8008000F0CAF810B16FF007006CE77B
:1024F0000498002802DBBDF8186001E0BDF81C60FC
:102500000399002902DBBDF8205001E0BDF814500A
:1025100006F05AFB0146B0EE480AF0EE680A304673
:1025200003F08AF968B1039806F04EFB0146B0EE5D
:10253000480AF0EE680A284603F07EF908B12079CF
:1025400043E703983246CDE9005022A11048049B8E
:1025500005F05AF80E48FDF7FAFE01460C4804F063
:10256000A7FD6FF0080030E700FC0220496E76619D
:102570006C696420737769746368206368616E6E48
:10258000656C206E756D626572203A2025750A00B3
:10259000D4850120988401209A9999999999A93F05
:1025A0004669727374206C6576656C207377697404
:1025B00063682044412F4144206469666665726502
:1025C0006E743A2025752C2025642C2025752C202E
:1025D00025640A005365636F6E64206C6576656CD4
:1025E000207377697463682044412F4144206469F3
:1025F00066666572656E743A2025752C2025642CFC
:102600002025752C2025640A0000000030B50D49F6
:1026100003460C4A00200968121D0BE000EB400441
:1026200012F814509D4204D802EB440464789C4292
:1026300002D2401C8842F1D3884201D34FF0FF30D0
:1026400030BD0000948401203EB504460C236A4648
:1026500043F22001A02004F00FFA05000CD16846D7
:10266000FEF7A4FA206001A8FEF7A0FAA06002A875
:10267000FEF79CFA606028463EBD00002DE9F0415F
:102680009846069D16460B46082828D238B3154AA8
:10269000002100BF01EBC104145D844202D0491C3B
:1026A0000729F7D301EBC10084181946607903F0BC
:1026B0004BFF0746A079314603F046FF40EA070684
:1026C000E079414603F040FF0643207A294603F0B3
:1026D0003BFF304301D06FF00100BDE8F0814FF0C7
:1026E000FF30FAE7BC84012070B51B4D00244FF485
:1026F0000061284600F0A4FE012800D120244FF4F8
:102700008061284600F09CFE012801D144F01004AD
:102710004FF40071284600F093FE012801D144F0E7
:1027200008044FF48071284600F08AFE012801D188
:1027300044F004048021284600F082FE012801D1E3
:1027400044F002044021284600F07AFE012801D11D
:1027500044F00104601C70BD001C024070B50446CA
:102760002DED028B82B06A464FF4A351A02005F0F4
:1027700017FE06460098411C9FED7A8B7ED0FDF730
:10278000C5FF53EC182BFDF752FFC4E900016A4660
:1027900041F26441A02005F003FE40EA06050098DE
:1027A000411C6CD0FDF7B2FF53EC182BFDF73FFF37
:1027B000C4E902016A4641F26841A02005F0F0FD3B
:1027C00040EA05060098411C7ED0FDF79FFF53ECC0
:1027D000182BFDF72CFFC4E904016A4641F26C4155
:1027E000A02005F0DDFD40EA06050098411C6CD0F4
:1027F000FDF78CFF53EC182BFDF719FFC4E9060118
:102800006A4641F27041A02005F0CAFD40EA050683
:102810000098411C71D0FDF779FF53EC182BFDF7A0
:1028200006FFC4E908016A4641F27441A02005F0A0
:10283000B7FD40EA06050098411C79D0FDF766FF18
:1028400053EC182BFDF7F3FEC4E90A016A4641F286
:102850007841A02005F0A4FD40EA05060098411C3F
:102860006BD0FDF753FF53EC182BFDF7E0FEC4E9E6
:102870000C016A4641F27C41A02001E03EE042E0CA
:1028800005F08EFD40EA06050098411C5AD0FDF780
:102890003DFF53EC182BFDF7CAFEC4E90E016A4652
:1028A0004FF4A451A02005F07BFD40EA05060098F6
:1028B000411C4CD0FDF72AFF53EC182BFDF7B7FE57
:1028C000C4E910016A4601E022E027E041F28441B8
:1028D000A02005F065FD40EA06050098411C3BD0AC
:1028E000FDF714FF53EC182BFDF7A1FEC4E912010C
:1028F00002B02846BDEC028B70BD14E09FED1B0BAF
:1029000084ED000B43E79FED1B0B84ED020B51E7B9
:102910009FED1A0B84ED040B5FE709E09FED190BA7
:1029200084ED060B6CE79FED190B84ED080B7AE73D
:102930009FED180B84ED0A0B88E79FED180B84EDD3
:102940000C0B96E79FED170B84ED0E0BA7E79FEDA1
:10295000170B84ED100BB5E79FED160B84ED120BF2
:10296000C6E700000000000000002440CDCCCCCC25
:10297000CCCC044033333333333303400000000006
:1029800000000C40CDCCCCCCCCCC0840333333331E
:1029900033331540CDCCCCCCCCCC12400000000061
:1029A000000051400000000000004E400000000008
:1029B0000040554000000000000024C030B587B042
:1029C000044616236A464FF44051A02004F054F800
:1029D00005001ED16846FEF7E9F820609DF8040066
:1029E00020719DF8050060710DF10600FEF7DEF81C
:1029F000A0600DF10A00FEF7D9F8E0600DF10E00BD
:102A0000FEF7D4F820610DF11200FEF7CFF86061F7
:102A1000284607B030BD000078B50024009490F837
:102A20003C20012A19D0012280F83C200A680723A3
:102A30000568092A13D9EE680A3A02EB420293406C
:102A40009E43EE600B788A680A3B03EB43039A408F
:102A50000368DD682A43DA6010E0022078BD2E6941
:102A600002EB420293409E432E610B788A6803EB8F
:102A700043039A4003681D692A431A614A681F2369
:102A8000072A13D205686E6B521E02EB8202934036
:102A90009E436E630A8893B20A79521E02EB820249
:102AA00093400268556B2B43536327E005680D2A5A
:102AB00012D22E6BD21F02EB820293409E432E63F2
:102AC0000B790A88DB1F92B203EB83039A400368F9
:102AD0001D6B2A431A6311E0EE6A0D3A02EB820283
:102AE00093409E43EE620B790A880D3B92B203EB52
:102AF00083039A400368DD6A2A43DA621B4B056848
:102B0000194A9D420AD10D68122D07D1556825F446
:102B100000055560556845F48005556005689D427F
:102B20001DD1134D0B68AB4201D0112B17D1536847
:102B300023F480035360536843F40003536009682F
:102B4000A9420CD10B490C4A0968B1FBF2F101EB27
:102B50008101490000E0491E00910029FBD180F865
:102B60003C40002078BD00000023014000200140CF
:102B7000120000105485012040420F0070B504007F
:102B80004FF0000503D0206C002610B107E00120B3
:102B900070BD204600F01CF8666484F83C60206C30
:102BA000C00610D4206C20F4885040F0020020644D
:102BB0002046FDF75FFF6664206C20F0020040F0C5
:102BC0000100206400E0012584F83C60284670BDC7
:102BD00008B500680649884208D10648016841F4F2
:102BE00080710160006800F48070009008BD0000F2
:102BF00000200140443802402DE9F0410446876D31
:102C000000F028FC064694F835000025022806D07E
:102C10008020606584F834500120BDE8F081206890
:102C2000016821F0160101602068416921F08001EE
:102C30004161206C08B9A06C20B12068016821F0C6
:102C4000080101602068016821F0010101600BE0CA
:102C500000F000FC801B052806D92020606504F8E0
:102C6000345F03206070D8E720680068C007EFD1A8
:102C700094F85C103F208840B86004F8345F01206D
:102C800060700020C9E790F83510022903D0802138
:102C9000416501207047052180F835100068016802
:102CA00021F0010101600020704700002DE9F84388
:102CB00004464FF00009CDF8009063484FF41651D8
:102CC000A56D0068B0FBF1F72E6894F85C10082041
:102CD00000FA01F131420FD021680A6852070BD582
:102CE0000A6822F004020A6094F85C108840A86028
:102CF000606D40F00100606594F85C104FF00108D1
:102D000008FA01F0304208D021684969090604D563
:102D1000A860606D40F00200606594F85C100420CB
:102D20008840304208D021680968890704D5A86026
:102D3000606D40F00400606594F85C1010208840DD
:102D4000304218D021680968090714D5A8602068A6
:102D50000168490304D50068000308D5A16C07E0A9
:102D60000168C90503D4016821F008010160216CE4
:102D700009B12046884794F85C10202088403042F2
:102D800031D021680968C9062DD5A86094F83500AE
:102D900005282068016806D0490347D5006800036C
:102DA0001DD4616C1CE021F01601016020684169AE
:102DB00021F080014161206C08B9A06C20B120682D
:102DC000016821F00801016094F85C103F20884000
:102DD000A86084F8349084F83580216D1FE0E16BA1
:102DE00009B120468847606D00282BD0606DC00770
:102DF00014D0052084F835002068016821F0010115
:102E000001600098401C0090B84203D82068006818
:102E1000C007F6D184F8349084F83580E16C00293D
:102E200010D001B02046BDE8F04308470168C9054D
:102E3000D5D4016821F01001016084F8349084F841
:102E40003580CCE7BDE8F883548501202DE9F041B9
:102E5000044600F0FFFA06465CB1002584F83450C1
:102E6000022084F835002068016821F0010101602A
:102E70000DE00120BDE8F08100F0ECFA801B052890
:102E800005D920206065032084F83500F2E720682A
:102E90000068C007F0D12268116820480140D4E9D9
:102EA00001031843D4E903363343184363691843D5
:102EB000A3691843E3691843236A18430843616A06
:102EC000042903D1D4E90B13194308431060206887
:102ED0004069666A20F0070130460E430127042846
:102EE0000CD1A06A0643E06A40B12046FFF796F88D
:102EF00020B14020606584F83570BAE720684661EB
:102F00002046FFF777F894F85C203F2191408160DC
:102F1000656584F835700020ACE700003F8010F054
:102F20002DE9F0410446866D90F834000025012813
:102F30000DD0012084F8340094F835700020012F62
:102F400007D084F8340002252846BDE8F08102202D
:102F5000FBE7022784F8357060652046FFF788F8A4
:102F600094F85C103F208840B0602068016841F010
:102F700016010160206C20B12068016841F0080151
:102F800001602068016841F001010160DCE7000098
:102F900070B5044600F05EFA0546601C02D0044895
:102FA0000078044400F056FA401BA042FAD370BDEA
:102FB0004885012070B5174900240A7E012A1ED0D9
:102FC000154A01230B76156845F080751560156864
:102FD00045F000751560104DF3222D1F2A60026820
:102FE000012A0ED00B70C2684A608268CA60027CF7
:102FF0000A72017C8068FFF759F8204670BD0220F4
:1030000070BD02220A7042680A614168007CFFF7C5
:10301000F1F8F2E734970120103C02400EB5401C55
:1030200014D100F089F80C49002048700B494A7807
:103030006AB10B4B01225A7148700A488DF8002082
:1030400000231A466946006805F0BAFE0EBD064820
:10305000006806F02BF80EBDFB8401205093012080
:1030600078930120148501200C8501202DE9F04181
:103070002F4F38682F4C10F4F97F4FF0FF384FF086
:1030800000050DD0207801282ED0207802282FD0DE
:10309000D4F81460FFF718F9304600F057F825709F
:1030A0003868C0070BD0012038602078012821D073
:1030B0002078022838D06069FFF7B0FF25702078AB
:1030C00000280FD11A48001D016848F2FF02914301
:1030D0000160016821F080710160016821F00071D8
:1030E00001602576BDE8F081E668C4F80C80D1E780
:1030F0002669CFE76068401E6060606850B1E06894
:10310000FFF78CFFE068401CE060E068217AFEF782
:10311000CDFFD4E74646C4F80C802570FEF7F0FFDB
:103120003046FFF77BFFCAE7FEF7EAFF2069C3E7F7
:103130000C3C0240349701200348016841F00041F3
:103140000160002070470000103C02407047000002
:103150002DE9F0471B4E05461446307E1F46894632
:10316000012808D0012030764CF250384046FFF755
:10317000E9F818B114E00220BDE8F0879DB1012DF7
:1031800016D0022D19D022463B464846FFF762F87A
:103190004046FFF7D7F80C490A6822F001020A609E
:1031A00000213176E8E7E1B24846FFF743F8EFE760
:1031B000A1B24846FFF764F8EAE721464846FFF720
:1031C00071F8E5E734970120103C024007490020E0
:1031D0000A68002A09DA054A054B0C3A1360054BC8
:1031E00013600968002900DA01207047103C024092
:1031F00023016745AB89EFCD0EB5B0F5005F0ED06A
:1032000001281DD1BFF34F8F0E4801680E4A01F40B
:10321000E06111430160BFF34F8F00BFFDE74FF442
:1032200080510A4800F00CF9012809D002208DF8DD
:103230000000074800231A466946006805F0C0FDF3
:103240000EBD00000CED00E00400FA05001C024079
:1032500014850120044910B50A68024202D00860B2
:10326000FFF7CAFF10BD0000143C01402DE9F84FE4
:1032700000224FF0010803254FF00F0E0B6808FAEB
:1032800002F42340A3426ED14E68012E05D0022ED7
:1032900003D0112E01D0122E12D186684FEA420CB3
:1032A00005FA0CF7BE43CF6807FA0CF7374387607F
:1032B0004668A6430C79C4F3001494403443446038
:1032C000C668570005FA07FC8C6826EA0C06BC4065
:1032D0003443C4604C68022C01D0122C13D1D408A2
:1032E00000EB8404A346D4F8209054074FEAD46A34
:1032F0000EFA0AF629EA06090E6906FA0AF646EAFD
:103300000906CBF8206004680E7924EA0C0406F064
:103310000306BE40264306604C68E4006FD53B4C74
:10332000266846F480462660246822F0030604F4EA
:1033300080440094364C3444A446D4F80848960798
:10334000360F0EFA06F7BC43324FB84201D10027C0
:103350002EE0314FB84201D1012729E02F4FB8426A
:1033600002D1022724E04AE02D4FB84201D10327C1
:103370001EE02C4FB84201D1042719E02A4FB84271
:1033800001D1052714E0294FB84201D106270FE0EB
:10339000274FB84201D107270AE0264FB84201D192
:1033A000082705E0244FB84201D1092700E00A2789
:1033B000B7402743CCF80878204E34684F689C43C8
:1033C000FF0300D51C4334601C4E361D34684F6823
:1033D0009C43BF0300D51C433460184E0836346844
:1033E0004F689C43FF0200D51C433460134E0C36DB
:1033F00034684F689C43BF0200D51C433460521CA4
:10340000102AFFF43BAFBDE8F88F000044380240BB
:103410000030014000000240000402400008024069
:10342000000C02400010024000140240001802404C
:10343000001C02400020024000240240003C0140E9
:103440000069084000D0012070470AB181617047CF
:103450000904FBE7014880687047000048850120A7
:1034600090F83D20202A01D002207047242280F8C5
:103470003D200268136823F0010313600268536A59
:1034800023F0100353620268536A0B4353620168CE
:103490000A6842F001020A60202180F83D100020F5
:1034A000704790F83D20202A01D002207047242246
:1034B00080F83D200268136823F00103136003685D
:1034C0005A6A22F00F020A4391B2596201680A68EF
:1034D00042F001020A60202180F83D100020704770
:1034E00070B5040025D094F83D00002520B984F87B
:1034F0003C50204600F04CFA242084F83D0020681F
:10350000016821F0010101602068016841F4004177
:1035100001602068016821F40041016000F0ECFDC9
:103520004D4A6168914201D84C4900E04C498842BB
:1035300001D2012070BD4B492368B0FBF1F15E68F8
:1035400026F03F060E435E606368934206D94FF44F
:10355000967359434FF47A73B1FBF3F12368491C16
:103560001E6A26F03F06314319626168914210D805
:103570004900401EB0FBF1F2521CC2F30B02042AB8
:1035800001D2042022E0B0FBF1F0401CC0F30B009C
:103590001CE0A268F2B301EBC10303EB0116431E6A
:1035A000B3FBF6F35B1C43F480431B0549D092B395
:1035B00001EBC10202EB0111401EB0FBF1F0401C17
:1035C000C0F30B0040F4804040F400402168CA6919
:1035D0004CF6FF739A431043C861D4E907100143C6
:1035E0002068026822F0C00211430160D4E903019F
:1035F00001432068826848F2FF339A431143816097
:10360000D4E9050108432168CA6822F0FF0210438B
:10361000C86001E00EE016E02068016841F0010199
:1036200001602564202084F83D00256384F83E5025
:10363000002070BD01EB4106431EB3FBF6F35B1C9B
:10364000B3E70120C2E701EB4101401EB0FBF1F0FE
:10365000401CC0F30B00B7E7A086010080841E0069
:1036600000093D0040420F002DE9FF4F83B09A460C
:10367000DDE9119793460446DDF84080FFF7EAFE46
:10368000054694F83D00202870D119230122714984
:103690002046009501F098FF0028F5D194F83C00F1
:1036A000012863D0012084F83C0020680168C90724
:1036B00003D1016841F0010101602068016821F433
:1036C00000610160222084F83D00402084F83E0023
:1036D00000262664C4F82480A4F82A90608D2085F2
:1036E0005D48E062CDE9007553465A46204604998C
:1036F00001F072FE00287CD1208DD0B1012821D0AC
:103700000228206824D0416980690090208D032818
:1037100069D801282BD0514902283B464FF00002BE
:10372000009559D08846204601F04EFF002860D110
:103730003CE02068416981690091016841F40071B1
:10374000016077E02068016821F480610160F0E7A2
:10375000016821F4806101602068016841F4006122
:103760000160206841698069009063E06FE02A464B
:103770003946204601F0A7FF98BB20680069616ABE
:1037800008704EE02068016841F400710160206813
:103790000069616A0870606A401C6062218D491E80
:1037A0002185618D491E6185216838E020680168A6
:1037B00021F48061016020680069616A0870606AB4
:1037C000401C6062208D401E2085608D401E6085FB
:1037D0003B46002241460095204601F0F5FE00B927
:1037E000D0E706E0FFE72A463946204601F06BFFA6
:1037F00018B1012007B0BDE8F08F20680069616A48
:103800000870606A401C6062218D491E2185618DAF
:10381000491E618521684A69D24352070AD4096961
:103820000170606A401C6062208D401E2085608DA2
:10383000401E6085208D00287FF468AF202084F82A
:103840003D0084F83E6084F83C600020D2E702200E
:10385000D0E70000020010000000FFFF040001009C
:103860002DE9FF4F83B09A46DDE911979346044650
:10387000DDF84080FFF7EEFD054694F83D00202876
:103880007FD11923012240492046009501F09CFE7A
:10389000002876D194F83C00012872D0012084F8E9
:1038A0003C0020680168C90703D1016841F00101AB
:1038B00001602068016821F400610160212084F822
:1038C0003D00402084F83E0000262664C4F8248091
:1038D000A4F82A90608D20852C48E062CDE900751F
:1038E00053465A462046049901F0F4FD70B930E081
:1038F0002A463946204601F019FF58B1206C0428A9
:1039000004D12068016841F400710160012007B012
:10391000BDE8F08F606A216800780861606A401C29
:103920006062218D491E89B22185628D521E628599
:1039300022685369DB435B070BD469B100781061DF
:10394000606A401C6062208D401E2085608D401E94
:103950006085208D0028CBD12A463946204601F0CB
:103960000DFE0028CAD154F83D0B016841F40071E6
:103970000160202004F81E09E67766770020C6E77C
:10398000FFE70220C3E70000020010000000FFFF75
:103990002DE9F04F87B0044614216846FCF7CCFCB3
:1039A000494ADFF828A12168DFF82081002001259D
:1039B00003244FF0120B4FF004090AF1100A914250
:1039C0003ED14021CDE90015CDE90204404F6946C2
:1039D0003846FFF74BFC0026012240213846FFF70E
:1039E00034FD0120FFF7D4FA002240213846FFF7CA
:1039F0002CFD0120FFF7CCFA761C0A2EECDBD8F860
:103A0000001041F00201C8F80010D8F80000CDE91C
:103A1000025400F002000590C020CDE9000B694679
:103A2000CDF810903846FFF721FCDAF8001041F489
:103A30000011CAF80010DAF8000000F400103EE0AF
:103A4000244A91423CD10221CDE90015CDE902047E
:103A5000214F69463846FFF709FC00260122402124
:103A60003846FFF7F2FC0120FFF792FA00224021CE
:103A70003846FFF7EAFC0120FFF78AFA761C0A2E87
:103A8000ECDBD8F8001041F02001C8F80010D8F89D
:103A90000000CDE9004B00F02000CDE90490CDE915
:103AA000025469463846FFF7E1FBDAF8001041F4AA
:103AB0008001CAF80010DAF8000000F480000590D8
:103AC00007B0BDE8F08F00000054004030380240DD
:103AD00000040240005800400014024070B5040089
:103AE00011D021684CF6CC400860216845F2555051
:103AF0000860D4E9000141602168A0688860FFF790
:103B0000A9FC054609E0012070BD00BFFFF7A2FC3B
:103B1000401B302801D9032070BD2068C0680028F0
:103B2000F4D121684AF6AA200860002070BD006820
:103B30004AF6AA210160002070470000024881680F
:103B40000278114481607047488501200B4810B508
:103B5000016841F400710160016841F48061016015
:103B6000016841F480710160032000F097F80020A3
:103B700000F006F800F03EF8002010BD003C0240C6
:103B800010B5014688B000221A2000F067F81A200C
:103B900000F056F813480024016841F480210160C8
:103BA000006805A900F480200690684600F084FAB9
:103BB00000F0B2FA0C494000B0FBF1F10C480B4A9E
:103BC000491E026040F2E732C0E90324C0E9011453
:103BD00001F0B3F810B1012008B010BD044801F0A5
:103BE000C8F8F9E74438024040420F00004801405D
:103BF000F4960120114808B5016841F48041016044
:103C0000006800F4804000900C48001F016841F0FB
:103C1000805101600068002200F0805000900F2168
:103C2000901E00F01BF800220521042000F016F879
:103C3000BDE80840042000F003B80000443802400A
:103C4000002809DB00F01F0201219140400980009B
:103C500000F1E020C0F8001170470000F0B40E4BF6
:103C60001B680C46C3F30223C3F10705042D00D9DA
:103C70000425191D072901D2002300E0DB1E0126BF
:103C800006FA05F1491E214099409E40761E1640D5
:103C90003143F0BC03F0CCBC0CED00E0064900F071
:103CA000070208684FF6FF03184040EA0220034A63
:103CB00010430860704700000CED00E00000FA05BA
:103CC0002DE9F8431748016841F080510160006810
:103CD000154F00F08050012600903E64FFF7BAFBBC
:103CE00005464FF47A78114C05E000BFFFF7B2FBB0
:103CF000401B40450DD86068C003F7D57E64FFF7D0
:103D0000A9FB0546464607E0FFF7A4FB401BB0426F
:103D100002D90320BDE8F88360688003F4D5002051
:103D2000F8E700004038024000000E4200700040FA
:103D30002DE9F84F04460068DFF824A2894F8A4D28
:103D4000C1074FF001084FF0000603D1810701D4ED
:103D5000400648D5CAF86860FFF77CFB814605E05D
:103D6000FFF778FBA0EB090002287DD82868000146
:103D7000F6D42078C1077D4805D06168227A890190
:103D800041EA027101602178890711D501686268F2
:103D9000237B9201C1F3027142EA036242EA01719C
:103DA00001603968E26921F01F01521E1143396038
:103DB0002178490608D56168227B890141EA0261C0
:103DC000227A41EA02710160CAF86880FFF742FB7B
:103DD000814605E0FFF73EFBA0EB0900022843D82F
:103DE00028680001F6D52068410701D400074ED5A8
:103DF000CAF87060FFF72EFB814605E0FFF72AFB4B
:103E0000A0EB090002282FD82868C0438000F5D510
:103E100020784107564814D501682269237D920114
:103E2000C1F3027142EA036242EA0171016039683A
:103E3000226A6FF0FF0321F4F85103EB02221143D1
:103E400039602178090712D501682269C1F303613D
:103E5000920142EA0161227E41EA02710160386802
:103E6000616A20F4403000E051E008433860CAF84D
:103E70007080FFF7EFFA074605E000BFFFF7EAFAA8
:103E8000C01B022843D82868C0438000F6D420789D
:103E9000800653D534484030016841F080510160BC
:103EA0000068344D00F080500090286840F4807025
:103EB0002860FFF7CFFA074605E000BFFFF7CAFA10
:103EC000C01B022823D82868C005F7D5274D143D0C
:103ED000286810F4407020D0218D01F44071814297
:103EE0001BD0286820F440712348C0F80080066089
:103EF00029602868C00710D0FFF7ACFA064641F2E7
:103F0000883707E0FFF7A6FA801BB84202D90320E2
:103F1000BDE8F88F28688007F4D5A16A1248C1F37C
:103F200001220830032A13D0016821F4F81101603E
:103F30002868218DC1F30B01084328602078C00652
:103F400004D50E4994F82C00C1F8E0010020DFE709
:103F500002680B4B22F4F81219400A430260E7E7AB
:103F6000000047428C38024000380240843802404A
:103F70008838024000700040400E4742001047421F
:103F8000FFFCFF0F2DE9F0470E46050065D0DFF876
:103F90001481D8F80000F7B200F00F00B04207D249
:103FA00088F80070D8F8000000F00F00B04254D13B
:103FB00028683D4C810712D5400703D5206840F49E
:103FC000E05020602878000703D5206840F4604066
:103FD00020602068A96820F0F0000843206028785D
:103FE000C0072DD0304968680839012812D002284E
:103FF00013D0032811D00968890700292DDA216818
:1040000021F0030101432160FFF724FA814641F2C8
:10401000883A0EE009688903EFE709688901ECE74F
:10402000FFF718FAA0EB0901514502D90320BDE8BA
:10403000F0872068696800F00C00B0EB810FEFD1C9
:10404000D8F80010404601F00F01B14207D90770BF
:10405000006800F00F00B04201D00120E7E72878A7
:10406000400705D52068E96820F4E0500843206047
:104070002878000706D52068296920F4604040EAC6
:10408000C100206000F058F82168084AC1F303110C
:10409000515CC8400649086006480068FFF770FD9B
:1040A0000020C4E7003C024008380240FCB3002076
:1040B000548501204C8501200F2202600C4A1368B0
:1040C00003F003034360136803F0F0038360136895
:1040D00003F4E053C36012684FF4E05303EAD202E2
:1040E00002610448006800F00F000860704700009B
:1040F00008380240003C024004480549006809684D
:10410000044AC1F38221515CC840704754850120A4
:10411000083802400CB400200448054900680968CA
:10412000044AC1F34231515CC840704754850120B4
:10413000083802400CB40020154810B5006810F093
:104140000C02144813D01449042A0FD0082A0ED1A7
:104150000F4C241F2268236802F03F025B0207D540
:104160002068C0F38810A0FB010106E0084610BDDE
:104170002168C1F38811A1FB00010023FCF792F82C
:104180002168C1F30141491C4900B0FBF1F010BDA9
:10419000083802400024F400002D31012DE9F84FC9
:1041A000040076D02078DFF838A3CE4DC00749D080
:1041B000DAF800105046C1F38101012908D00068E7
:1041C000C0F3810002280AD1281D0068400206D5EC
:1041D0002868800336D560680028E2D032E0606845
:1041E000B0F5803F10D0B0F5A02F286810D020F493
:1041F00080302860286820F4802028606068A0B1A2
:10420000FFF728F906460CE0286840F48030F4E710
:1042100040F480202860F7E7FFF71CF9801B642832
:1042200073D828688003F7D50CE0FFF713F906462A
:1042300005E000BFFFF70EF9801B6428F0D828685E
:104240008003F7D42078DFF8A08280074FF00009C0
:104250003ED5DAF80010504611F00C0F09D0006876
:10426000C0F3810002280BD19D48001F0068400266
:1042700006D42868800715D5E068012809D111E027
:10428000E068B8B10120C8F80000FFF7E3F806467F
:1042900005E020E1FFF7DEF8801B0228C0D828687F
:1042A0008007F7D52868216920F0F80040EAC100AE
:1042B00028600DE0C8F80090FFF7CCF8064604E04F
:1042C000FFF7C8F8801B02281FD828688007F7D49A
:1042D0002078000722D5824E844861696C3671B11E
:1042E00001210160FFF7B6F8074604E0FFF7B2F8D6
:1042F000C01B022809D830688007F7D50EE0C0F847
:104300000090FFF7A7F8074605E082E0FFF7A2F864
:10431000C01B02287DD830688007F7D4207840077A
:1043200068D5DFF8BCB100270BF1380BDBF80000D3
:10433000C0000BD4DBF8001041F08051CBF8001026
:10434000DBF80000012700F080500090684E3068D4
:10435000C00510D4306840F480703060FFF77AF800
:10436000009005E0FFF776F80099401A022850D82F
:104370003068C005F6D55A4EA068683601280FD0BF
:104380000528306810D020F001003060306820F03F
:1043900004003060A068B8B1FFF75CF800900FE04F
:1043A000306840F00100F4E740F004003060F7E7C7
:1043B000FFF750F80099411A41F28830814266D8DF
:1043C00030688007F4D50EE0FFF744F8009007E06E
:1043D000FFF740F80099411A41F28830814256D8DF
:1043E00030688007F4D42FB1DBF8001021F0805141
:1043F000CBF80010A069D0B3DAF800205146C2F320
:104400008102022A4AD00228484607D0C8F8600034
:1044100000E03CE0FFF71EF804463BE04746C8F8E2
:104420006000FFF717F8064605E000BFFFF712F837
:10443000801B02282BD828688001F7D4D4E9070113
:104440000843A16A2B4A490802EB0141626A41EA2A
:104450008211084394F82C1040EA01612048001FA3
:10446000016001203866FEF7F5FF044605E034E000
:10447000FEF7F0FF001B022809D828688001F7D555
:104480002BE000BFFEF7E6FF001B022802D9032045
:10449000BDE8F88F28688001F4D41EE00128F7D029
:1044A0000868E26900F48001914214D1226A00F0A8
:1044B0003F0191420FD147F6C071626A01409142BB
:1044C00009D1A26A00F44031914204D1E16A00F0BE
:1044D0007060884201D00120DAE70020D8E70000B0
:1044E000083802400038024000004742800E474230
:1044F000007000400000FFFF10B500680B464168E7
:104500000D480140080CD870C1F304245C7001F020
:104510003F049C70C1F34231197052B901F06FFF32
:10452000D870587801F06BFF5870987801F067FFE9
:104530009870002010BD00003FFFFF0010B50B4633
:104540000168896A596001680969C1F30E019960BF
:10455000006801680E480140C1F305401870C1F3BE
:1045600006245C7001F07F049C70402404EA114131
:10457000D97052B901F043FF1870587801F03FFF2D
:104580005870987801F03BFF9870002010BD000033
:104590007F7F7F0070B5040002D0607F10B106E01D
:1045A000012070BD00202077204600F049F802204D
:1045B00060772168CA2048622168532048622046FB
:1045C00001F032FFFF25042618BB206881681B4AD2
:1045D000114081602168886862681043D4E904232F
:1045E0001A43104388602168E06808612068016907
:1045F000228941EA024101612068C16821F08001FD
:10460000C16020688068800607D4204600F0FEF86C
:1046100018B1206845626677C2E72068016C21F412
:10462000802101642068016CA26911430164206843
:10463000456201206077002070BD0000BFFF8FFF42
:1046400000680349884202D102490120086070478E
:10465000002800403C0E47422DE9F0470446007F09
:104660000B4601281FD04FF0010984F81C9002204E
:104670006077DAB19878D97840EA014558781978A6
:10468000000240EA413005432168CA20486221689F
:1046900053204862204601F0C7FE0026FF274FF056
:1046A000040860BB1AE00220BDE8F0875878C10614
:1046B00003D500F0EF000A305870D87801F0A8FE5A
:1046C0000204587801F0A4FE42EA0022987801F032
:1046D0009FFE0243187842EA4035D5E70F4805406F
:1046E000206845602068C16821F08001C1602068B1
:1046F000806880060AD4204600F088F830B120682F
:10470000476284F81D8026770120CDE72068476244
:1047100084F81D9026770020C6E700003FFFFF00C9
:104720002DE9F0470446007F0D46012827D04FF0C1
:10473000010A84F81CA002206077206800268068A7
:104740004FEA4060F2B1002800DBEE70A8782978CB
:1047500040EA01476878E978000240EA01400743EF
:104760002168CA204862216853204862204601F02F
:104770005BFE4FF0FF084FF00409A0BB16E00220DB
:10478000BDE8F087002800DBEE70287801F040FEDD
:104790000204687801F03CFE42EA0022A87801F0A9
:1047A00037FE0243E87842EA0047D9E71648074057
:1047B000206807602068816821F480218160D5E944
:1047C0000301084321688A68104388602068C16833
:1047D00021F08001C1602068806880060BD42046EB
:1047E00000F014F838B12168C1F8248084F81D90D5
:1047F00026770120C4E72168C1F8248084F81DA031
:1048000026770020BCE700007F7F7F0070B504465C
:104810000068C16821F0A001C160FEF71BFE0546DB
:104820004FF47A7607E000BFFEF714FE401BB0425B
:1048300001D9032070BD2068C0688006F4D500202F
:1048400070BD70B5040005D00025A56294F8510034
:1048500010B106E0012070BD84F85050204600F0F1
:1048600031F8022084F851002068016821F04001ED
:104870000160D4E901010843D4E90312114308435C
:1048800061690843218B01F400710843E169084321
:10489000216A0843A16A084321680860A0690421CD
:1048A00001EA1040616A0843216848602068C169D4
:1048B00021F40061C1616565012084F85100002088
:1048C00070BD00002DE9F04786B00446142168460B
:1048D000FBF732FD424D414B22680020404C143D15
:1048E0000226032105279A4218D1226842F48052F9
:1048F0002260226802F4805205922A6842F0010286
:104900002A602A6802AB02F00102059283E8830064
:10491000E022CDE90026694632482DE0DFF8C8C024
:10492000012362452DD1814603911A03DFF8BCA013
:104930008DE80C02884669465046FEF797FC002237
:1049400040215046FEF781FD206840F40050206071
:10495000206800F400500590286840F0100028609E
:104960002868694600F0100005904FF4E0408DE89B
:104970004102CDE903875046FEF778FC06B0BDE85A
:10498000F087DFF86CC06245F8D180468946802206
:104990008DE80C03DFF85CA069465046FEF766FC24
:1049A000002240215046FEF750FD206840F4801060
:1049B0002060206800F480100590286840F02000F6
:1049C00028602868049700F0200005904FF460707C
:1049D0008DE8410369465046CEE7000000300140B3
:1049E0004438024000000240003401400010024000
:1049F00000500140001402402DE9F84F044690F8A1
:104A0000500000271D461646894601280DD04FF05C
:104A1000010B84F850B0FEF71DFD804694F851005C
:104A2000BA46012804D002278EE00220BDE8F88FA4
:104A3000B9F1000F7DD0002E7BD0032084F8510007
:104A4000C4F854A0C4F83090A686E686C4F838A00E
:104A5000A4F83CA0A4F83EA0C4F844A0C4F840A028
:104A6000A068B0F5004F04D12068016841F480418E
:104A7000016020680168490603D4016841F04001E3
:104A80000160E068B0F5006F606803D030B3012EBC
:104A900024D040E008B1012E1CD1206B2168008891
:104AA000C86006E020688168890709D5216B0988FC
:104AB000C160206B801C2063E08E401EE08609E010
:104AC000FEF7C8FCA0EB0800A84202D3681C01D086
:104AD00031E07DB3E08E0028E4D11FE0206B216837
:104AE0000078087306E020688168890709D5216B82
:104AF00009780173206B401C2063E08E401EE08625
:104B000009E0FEF7A7FCA0EB0800A84202D3681C4E
:104B100001D010E075B1E08E0028E4D1424629466C
:104B2000204602F0BFF808B120206065A06820B1DF
:104B300007E008E0FFE7032706E02068C168806817
:104B40000090606D00B1012784F851B084F850A046
:104B500038466BE72DE9F84F044690F850000027DF
:104B60000A9E1D4692468B464FF0010901280ED041
:104B7000012084F85000FEF76DFC804694F8510047
:104B8000616801280CD0B1F5827F07D102E00220D4
:104B9000BDE8F88FA16809B9042801D00227C2E056
:104BA000BBF1000F27D0BAF1000F24D01DB394F849
:104BB0005100042802D0052084F8510000206065CF
:104BC000C4F838A0E587A587C4F830B0E586A58687
:104BD0002064606420680168490603D4016841F0DC
:104BE00040010160E068B0F5006F606805D0E8B38F
:104BF000012D46D07FE0012795E008B1012D39D184
:104C0000206B21680088C860206B801C2063E08EC8
:104C1000401EE0862EE02068816889070FD5E18E6E
:104C200069B1B9F1010F0AD1216B0988C160206B0C
:104C3000801C2063E08E401EE0864FF00009206853
:104C40008168C9070CD0E18F51B1C068A16B0880A1
:104C5000A06B801CA063E08F401EE0874FF001092D
:104C6000FEF7F8FBA0EB0800B04200E009E001D33A
:104C7000701C50D1E08E0028CDD1E08F0028CAD121
:104C80003FE0206B216800780873206B401C206394
:104C9000E08E401EE0862EE02068816889070FD5EF
:104CA000E18E69B1B9F1010F0AD1216B0978017365
:104CB000206B401C2063E08E401EE0864FF0000910
:104CC00020688168C9070CD0E18F51B1C068A16B21
:104CD0000870A06B401CA063E08F401EE0874FF07F
:104CE0000109FEF7B7FBA0EB0800B04202D3701C2D
:104CF00001D010E07EB1E08E0028CDD1E08F0028F9
:104D0000CAD142463146204601F0CCFF28B10127E6
:104D10002020606507E0032705E0A06818B9206837
:104D2000C16880680090012084F85100002084F858
:104D3000500038462CE77047704710B5040003D088
:104D400094F83D0010B107E0012010BD002084F868
:104D50003C00204600F00CF8022084F83D00211DA4
:104D6000206802F041F9012084F83D00002010BDC8
:104D700070470168CA6842F00102CA600068816831
:104D800001F00701062903D0016841F0010101602B
:104D900000207047704770B50446006801694FF005
:104DA0000005C943890715D4C168C943890711D4CF
:104DB000E91E016101202077206880698007204674
:104DC00002D0FFF7E7FF04E000F098F8204600F07B
:104DD00096F8257720680169C943490717D4C16847
:104DE000C943490713D46FF0040101610220207701
:104DF0002068806910F4407F204602D0FFF7CAFF88
:104E000004E000F07BF8204600F079F82577206870
:104E10000169C943090716D4C168C943090712D4F7
:104E20006FF008010161042020772068C0698007C5
:104E3000204602D0FFF7AEFF04E000F05FF8204606
:104E400000F05DF8257720680169C943C90617D4C9
:104E5000C168C943C90613D46FF01001016108206D
:104E600020772068C06910F4407F204602D0FFF709
:104E700091FF04E000F042F8204600F040F825776A
:104E800020680169C943C90708D1C168C943C90776
:104E900004D1891E0161204600F032F820680169C2
:104EA000C943090609D4C168C943090605D46FF08E
:104EB000800101612046FFF73EFF20680169C94378
:104EC000490609D4C168C943490605D46FF04001B9
:104ED0000161204600F01EF820680169C943890677
:104EE0000BD4C168C943890607D46FF02001016162
:104EF0002046BDE87040FFF71FBF70BD7047704788
:104F000000680349884201D1FEF718BE70470000CF
:104F100000480140704710B504460068416994F8A4
:104F20003920C1F3C011212A0BD151B1416921F0BF
:104F300080014161206B08B1FDF75EFE204602F062
:104F40006DF92068416994F83A20C1F38011222A52
:104F50000BD151B1416921F040014161606B08B151
:104F6000FDF74AFE204602F04BF9002010BD7047C5
:104F700070B5026804461068D168536910F00F0FCD
:104F800052D003F0010501F490762E435FD0C207A2
:104F900005D0CA0503D5E26B42F00102E263420785
:104FA00005D5DA0703D0E26B42F00202E263820722
:104FB00005D5DA0703D0E26B42F00402E263020790
:104FC00007D501F020022A4303D0E26B42F0080229
:104FD000E263E26B002A33D0800604D5880602D54E
:104FE000204602F024F920684069E16BC0F380108C
:104FF000090700D428B3204602F002F9206841696D
:1050000049061AD5416921F040014161606BA0B1A8
:105010001B490165606BFDF736FE002810D0606B00
:10502000016DBDE870400847830610D58B060ED58C
:105030002046BDE8704002F0FAB82046FFF797FF1F
:1050400070BD2046FFF793FF0020E06370BD0306AC
:1050500006D50B0604D52046BDE8704002F0C6B95F
:105060004006F3D54806F1D5D168204621F040012D
:10507000D160202184F8391000F094F970BD00004F
:105080006171002070B5040004D094F83900002547
:1050900010B106E0012070BD84F83850204600F0C1
:1050A00023F8242084F839002068C16821F40051D5
:1050B000C160204602F006F92068016921F49041A0
:1050C00001612068416921F02A0141612068C168BD
:1050D00041F40051C160E563202084F8390084F870
:1050E0003A00002070BD0000F0B587B006461421DC
:1050F0006846FBF721F9334F306800253249022218
:1051000003230724B8423DD12F481430076847F0E5
:1051100010070760006800F010000590086840F074
:10512000010008600868694600F001000590580217
:105130008DE82500CDE903342448FEF797F8254C87
:10514000234820604FF00060C4E901054014C4E921
:10515000035065614FF44030A561C4E90750204613
:105160006562FDF773FE08B1FCF79EFF74630022D1
:1051700005212520A663FEF771FD2520FEF760FDC1
:1051800007B0F0BD144EB042FAD10F481030066897
:1051900046F480260660006800F4802005900868C8
:1051A00040F0020008600868694600F002000590BF
:1051B0004FF440608DE82500CDE903340748FEF741
:1051C00055F8DDE700100140303802400000024091
:1051D00040640240949601200048004000040240D0
:1051E000F8B5044690F83A0020283CD1C1B3BAB3D0
:1051F00094F83800012836D0012084F83800A162E4
:10520000A2850025E563222084F83A00636B1748E5
:10521000D863636B16481864636B1648D864606B78
:10522000134605650846666B216802463046091D2F
:10523000FDF776FE206801684168009184F83850D7
:10524000C16841F48071C1602068416941F0010189
:1052500041612068416941F0400141610020F8BD91
:10526000FFE70120FBE70220F9E70000BB71002007
:10527000F77100207171002090F83A30202B22D174
:10528000F9B1F2B190F83830012B1CD081628285DF
:10529000C2850021C163222280F83A2080F83810AC
:1052A0000168CA6842F48072CA6001684A6942F0C3
:1052B00001024A610068C16841F02001C16000201C
:1052C00070470120704702207047000000680449C1
:1052D000884203D10348006803F0E8BE704700002D
:1052E000001001400485012070472DE9F843044671
:1052F00090F839001F4616460D46202850D1B5B10A
:10530000AEB194F8380001284AD0012084F8380062
:105310004FF00008C4F83C80212084F83900FEF7E3
:1053200099F8A6848146E68484F8388026E0012036
:10533000BDE8F883E08C401EE084A0684B46B0F5E1
:10534000805F4FF000024FF080012046009703D0AD
:1053500002F07DF8E8B90DE002F079F8C8B92888C4
:105360002168C0F308004860206908B16D1C05E0A1
:10537000AD1C03E0216815F8010B4860E08C0028A3
:10538000D8D14B46002240212046009702F05FF81A
:1053900008B10320CCE7202084F839000020C7E7BB
:1053A0000220C5E77047FEE701684A69D24352050B
:1053B0000FD46FF480624A61002140F8301F202230
:1053C00042738173026942F0040202610173012099
:1053D00070470020704700002DE9F84F0446006830
:1053E00089460B9D01689846174641F4806101602B
:1053F0002068016841F48071016000954FF0011B45
:105400000022594620460A9B00F0DEF84FF4007A4D
:1054100040B120680068C00501D5C4F840A0032051
:10542000BDE8F88F216809F0FE0008612B46284985
:1054300020460A9A00F0FCF8F0BB206841698069B8
:1054400000902A4620460A9900F070F940B1206C7D
:1054500004283AD12068016841F40071016034E009
:10546000FEB2B8F1010F09D02168380A08612A4656
:1054700020460A9900F05AF90028E8D12068066110
:105480002A4620460A9900F051F90028DFD1206809
:10549000016841F480710160009500225946204660
:1054A0000A9B00F091F80028B3D1216809F0FF00B1
:1054B00040F00100086100E007E02B460449204667
:1054C0000A9A00F0B5F80028AAD00120A8E7000049
:1054D000020001002DE9F843044600680D46DDE9AD
:1054E000089701689846164641F4807101604B4662
:1054F00000224FF001112046009700F065F848B1F6
:1055000020680068C00502D54FF4007020640320B5
:10551000BDE8F883216805F0FE0008613B464A4675
:105520001549204600F084F888B9206841698069EF
:1055300000903A464946204600F0F8F848B1206C01
:10554000042804D12068016841F400710160012041
:10555000DEE7F5B2B8F1010F09D02168300A086121
:105560003A464946204600F0E1F80028E7D1206895
:1055700005610020CCE700000200010070B516466E
:105580000D4604460DE02046FFF70EFF08B101204E
:1055900070BD681C05D0FDF75DFF801BA84207D8D1
:1055A00035B120684069C0434007ECD4002070BD8D
:1055B000002044F8300F20216173A073216941F06D
:1055C000200121612073E2E72DE9F0471E46904655
:1055D0000D460446C1F30747DDF8209008E0701C33
:1055E00006D0FDF737FFA0EB0900B0420FD876B127
:1055F0002068012F18D0806925EA00000004000C03
:1056000014D000214145EAD00020BDE8F0870020F9
:1056100044F8300F20216173A073216941F020010B
:10562000216120730120F0E74069E5E70121E9E706
:105630002DE9F0479A4691460E46044600254FF064
:105640002008C1F3074725E020684069C0434005B2
:1056500014D42068016841F40071016021686FF47E
:1056600080604861256384F83D8084F83E50206C5A
:1056700040F00400206484F83C501FE0B9F1FF3F83
:1056800008D0FDF7E7FEA0EB0A0149450CD8B9F1B7
:10569000000F09D02068012F13D0806926EA00008E
:1056A0000004000C0BD0CFE744F8305F84F80D8085
:1056B000A573206940F02000206125730120BDE81A
:1056C000F0874069EAE72DE9F041002590460E4653
:1056D0000446202717E04069C043C0060CD454F8A4
:1056E000301B6FF01000486144F810596777A577B8
:1056F000206A2062257717E0FDF7ACFEA0EB0800DA
:10570000B04208D83EB120684169C9434906E2D495
:105710000020BDE8F08144F8305F6773A57320690D
:1057200040F02000206125730120F2E770B5164695
:105730000D4604460DE02046FFF736FE08B1012075
:1057400070BD681C05D0FDF785FE801BA84207D8F8
:1057500035B120684069C0430006ECD4002070BD1C
:10576000002044F8300F20216173A073216941F0BB
:10577000200121612073E2E73EB532249BB28DE81F
:105780001C0080B20A46014610230248FDF76CFF58
:105790003EBD00008C9401202DE9FE4F0027DFF86C
:1057A00068B091460E4682461D46B8463A460421E8
:1057B0005846FDF74AFE1DE006F03F00C0F14004E8
:1057C000AC4200DB2C463222A1B209EB07008DE887
:1057D00007001FFA8AF1102332460C48FEF740F802
:1057E0005FEA000808D1301986B22D1B27440A2031
:1057F00003F002FA002DDFDC012204215846FDF7F8
:1058000024FE4046BDE8FE8F001402408C94012027
:105810000348002141608160C16002490160704716
:1058200000FC02205A5AA5A5006801228A401040B7
:1058300000D001207047000010B50C462DED068BFE
:10584000B0EE40AAF0EE60AAFAF760FF9FED161BDB
:1058500053EC112BFAF779FE41EC190B2046FAF7BD
:1058600055FF9FED131B53EC112BFAF76EFE41EC25
:10587000180B53EC1A2BFAF762FE53EC192BFAF7BC
:10588000B3FF0AD353EC1A2B51EC180BFAF7B6FD01
:1058900053EC192BFAF790FF03D20020BDEC068BD6
:1058A00010BD0120FAE70000000000000000303FBA
:1058B000000000000000103F10B50B4601461446E2
:1058C0001846FAF720FD204610BD2DE9F041154697
:1058D00088460646002402F00307FDF777FC1CE02B
:1058E000201DA8420FD900200246B84203D2231837
:1058F00018F8031000E02021C30099400A43401C1F
:105900000428F2D302E008EB0400026800233146C9
:105910000220FDF71DFC241D361DAC42E0D3FDF72F
:105920000BFC2046BDE8F0812DE9F0410646080653
:1059300040EA014040EA0125174600240D43FDF7E7
:1059400045FC07E02A46002331460220FDF700FC13
:10595000241D361DBC42F5D3FDF7EEFB2046BDE805
:10596000F08100007FB50024154800940194029452
:105970001249039401604FF48031C0E901140461BD
:10598000047680F820400F49C0E90A140125C5615A
:10599000C46080F830404561FDF7F0F808B1FCF7CD
:1059A00083FB0948CDE90005694602940448FDF7E8
:1059B00033F8002801D0FCF777FB7FBD00200140C1
:1059C000F09301200100000F12000010094808B5F3
:1059D000016841F4800101600068002200F4800049
:1059E000009005213A20FEF739F9BDE808403A2039
:1059F000FEF726B93038024010B5002211460120CA
:105A000003F0FCFA2F4C002211466060012003F0E5
:105A1000F5FA0022A0601146012003F0EFFAE060E1
:105A200000220C21062003F091F9206100220C21B4
:105A3000062003F08BF96061234803F037FAA06178
:105A4000214803F033FAE0611F4803F02FFA206287
:105A50001D4803F02BFA60621B4803F027FA1A4A2C
:105A6000A062E8320021194803F058FB164A60642E
:105A700034320021164803F051FB134A20631032E0
:105A80000021144803F04AFB0F4AE062583200211B
:105A9000114803F043FB0C4A60637C3200210F483D
:105AA00003F03CFB084AA063A03200210C4803F03D
:105AB00035FB054AE063C43200210A4803F02EFB9F
:105AC000206410BD00850120E8B20020E96E0020AE
:105AD000E99A00201980002055A30020B5830020FA
