:020000040800F2
:10000000B8080220C10100087F1A00083D1300084B
:100010007D1A0008E9020008811E000800000000A7
:10002000000000000000000000000000831A00082B
:100030001503000800000000811A0008491C000890
:10004000DB010008DB010008DB010008DB01000820
:10005000DB010008DB010008DB010008DB01000810
:10006000DB010008DB010008DB010008DB01000800
:10007000DB010008DB010008DB010008DB010008F0
:10008000DB010008DB010008DB010008DB010008E0
:10009000DB010008DB010008DB010008DB010008D0
:1000A000DB010008DB010008DB010008DB010008C0
:1000B000DB010008DB010008DB010008DB010008B0
:1000C000DB010008DB010008DB010008DB010008A0
:1000D000DB010008DB010008DB010008DB01000890
:1000E000DB010008DB010008DB010008DB01000880
:1000F000DB010008DB010008DB010008DB01000870
:10010000DB010008DB010008DB010008DB0100085F
:10011000DB010008DB010008DB010008DB0100084F
:10012000DB010008DB010008DB010008DB0100083F
:10013000DB010008DB010008DB010008DB0100082F
:10014000DB010008DB010008DB010008DB0100081F
:10015000DB010008DB010008DB010008DB0100080F
:10016000DB010008DB010008DB010008DB010008FF
:10017000DB010008DB010008DB01000800000000D3
:10018000DB010008DB010008DB010008DB010008DF
:10019000DB010008DB010008DB010008DB010008CF
:1001A0000000000000000000DB010008DFF80CD0B8
:1001B00000F088F800480047D5210008B808022060
:1001C0000648804706480047FEE7FEE7FEE7FEE7F1
:1001D000FEE7FEE7FEE7FEE7FEE7FEE7D91C0008C4
:1001E000AD0100082DE9F05F0546002092469B46D0
:1001F00088460646814640241BE02846414647463D
:10020000224600F04FF853465A46C01A914110D387
:1002100011461846224600F036F82D1A67EB010801
:100220004F4622460120002100F02DF817EB00096F
:100230004E41201EA4F10104DFDC484631462A4627
:100240004346BDE8F09FD2B201E000F8012B491E01
:10025000FBD270470022F6E710B513460A46044663
:100260001946FFF7F0FF204610BD10B5002200E050
:10027000521C835C8C5CA34201D1002BF8D1D8B214
:10028000E1B2401A10BD202A04DB203A00FA02F144
:10029000002070479140C2F1200320FA03F3194374
:1002A00090407047202A04DB203A21FA02F0002116
:1002B000704721FA02F3D040C2F120029140084376
:1002C00019467047064C074D06E0E06840F0010310
:1002D00094E8070098471034AC42F6D3FFF76AFF62
:1002E000FC2400081C250008FEE7000030B54FF094
:1002F000FF330022064C07E0855C5D40EDB2521CE6
:1003000054F8255085EA13238A42F5D3D84330BDEB
:100310000000002070477047002229B101291DD03C
:1003200002291ED04FF440720B2800D9001D0E493F
:100330000B6823F440730B600B6813430B600A686F
:1003400022F0F8020A600A68022303EBC0000243AD
:100350000A60086840F48030086070474FF480728B
:10036000E2E74FF40072DFE7103C024013480168F7
:1003700089050FD5016821F400710160016841F41D
:1003800000610160016821F400610160016841F4CD
:1003900000710160016849050FD5016821F4806191
:1003A0000160016841F480510160016821F48051CD
:1003B0000160016841F4806101607047003C0240C7
:1003C00030B587B0002504460595182810D800F0F0
:1003D000F7F90120CDE90104039002200490009573
:1003E00005A9684600F018F9044600F083F914B135
:1003F000012007B030BD0020FBE770B5054600F0D6
:10040000DFF9044600F08AF90443284600F052F967
:1004100000F07AF9044300F06DF9204300D0042085
:1004200070BD00002DE9F0470026174689460546B5
:10043000344600F0C5F9DFF83C8012E059F824207A
:1004400000232946022000F07DF908B103260CE0C4
:1004500059F824002968814201D0022605E0641C75
:100460002D1DBC4201D24545E8D900F043F9304684
:10047000BDE8F087F8FF1F080E4A136823F44073A5
:10048000136003290DD0012911680FD041F40041F8
:10049000116011684FF4803343EA0020014311607A
:1004A0007047116848F204031943F1E741F0040171
:1004B000EEE70000103C0240064A136823F4407344
:1004C000136013681360136843F001031360017035
:1004D00070470000103C0240094910B50C6824F434
:1004E00040740C600C6844F440740C600C6844F078
:1004F00001040C600260BFF36F8F436010BD000009
:10050000103C0240074A136823F4407313601368D9
:1005100043F480731360136843F001031360018098
:1005200070470000103C0240074A136823F44073F0
:100530001360136843F400731360136843F00103FE
:100540001360016070470000103C02401C490868BD
:10055000C2061C4805D5C26942F01002C2611022D1
:100560000A600A68920605D5C26942F00802C261B3
:1005700020220A600A68520605D5C26942F00402C8
:10058000C26140220A600A68120605D5C26942F0BB
:100590000202C26180220A600A68D20506D5C269D9
:1005A00042F00102C2614FF480720A600A68920749
:1005B00005D5C26942F02002C2610220086070477E
:1005C0000C3C02409804022070B5114904460020FA
:1005D000C86100F0FBF906460E4D09E0601C07D02B
:1005E00024B100F0F3F9801BA04201D9032070BDB3
:1005F0002868C003F2D42868C00701D00120286011
:10060000286810F4F970F2D0FFF7A0FF012070BD48
:10061000980402200C3C02402DE9F0470446234890
:100620000F46017E01290AD00121804601764CF255
:1006300050394846FFF7C8FF020003D030E00220DF
:10064000BDE8F0874FF0FF3038602068184D012872
:1006500001D0A6681DE0207C6168FFF70DFF4846C9
:10066000FFF7B2FF0246286848F204018843286079
:1006700014E0217C3046FFF74FFE4846FFF7A4FF09
:100680000200286820F0FA00286001D03E6005E0F2
:10069000761CD4E902100844B042EAD8FFF766FE9F
:1006A000002188F818101046CAE7000098040220BC
:1006B000103C02400F2101600D49098881600C4AFD
:1006C000AA21521E1378CC2B0FD01278AA2A00D060
:1006D000552101610649891E0A6802F0E00202768E
:1006E000097801F00C0141617047CC21F1E700006D
:1006F000163C02400348016841F0004101600020BF
:1007000070470000103C02400348016841F00101BD
:100710000160002070470000143C02400648006859
:10072000C00707D0044805490C380160044901603E
:100730000020704701207047143C02403B2A1908F2
:100740007F6E5D4C2DE9F0471B4E05461446307E0A
:100750001F468946012808D0012030764CF25038D7
:100760004046FFF731FF18B114E00220BDE8F087E2
:100770009DB1012D16D0022D19D022463B46484688
:10078000FFF7AAFE4046FFF71FFF0C490A6822F058
:1007900001020A6000213176E8E7E1B24846FFF73E
:1007A0008BFEEFE7A1B24846FFF7ACFEEAE7214631
:1007B0004846FFF7B9FEE5E798040220103C0240E6
:1007C000074900200A68002A09DA054A054B0C3A55
:1007D0001360054B13600968002900DA0120704797
:1007E000103C024023016745AB89EFCD2DE9F84F5E
:1007F00000224FF0010803254FF00F0E0B6808FA96
:1008000002F42340A3426ED14E68012E05D0022E81
:1008100003D0112E01D0122E12D186684FEA420C5D
:1008200005FA0CF7BE43CF6807FA0CF73743876029
:100830004668A6430C79C4F30014944034434460E2
:10084000C668570005FA07FC8C6826EA0C06BC400F
:100850003443C4604C68022C01D0122C13D1D4084C
:1008600000EB8404A346D4F8209054074FEAD46ADE
:100870000EFA0AF629EA06090E6906FA0AF646EAA7
:100880000906CBF8206004680E7924EA0C0406F00F
:100890000306BE40264306604C68E4006FD53B4C1F
:1008A000266846F480462660246822F0030604F495
:1008B00080440094364C3444A446D4F80848960743
:1008C000360F0EFA06F7BC43324FB84201D100276B
:1008D0002EE0314FB84201D1012729E02F4FB84215
:1008E00002D1022724E04AE02D4FB84201D103276C
:1008F0001EE02C4FB84201D1042719E02A4FB8421C
:1009000001D1052714E0294FB84201D106270FE095
:10091000274FB84201D107270AE0264FB84201D13C
:10092000082705E0244FB84201D1092700E00A2733
:10093000B7402743CCF80878204E34684F689C4372
:10094000FF0300D51C4334601C4E361D34684F68CD
:100950009C43BF0300D51C433460184E08363468EE
:100960004F689C43FF0200D51C433460134E0C3685
:1009700034684F689C43BF0200D51C433460521C4E
:10098000102AFFF43BAFBDE8F88F00004438024066
:100990000030014000000240000402400008024014
:1009A000000C0240001002400014024000180240F7
:1009B000001C02400020024000240240003C014094
:1009C0000AB1816170470904FBE7000001488068B3
:1009D0007047000008040020024881680278114432
:1009E00081607047080400200B4810B5016841F48D
:1009F00000710160016841F480610160016841F4A7
:100A000080710160032000F061F8002000F006F81A
:100A100000F024F8002010BD003C024070B50D4DE0
:100A200004464FF47A712878B1FBF0F00A4909685E
:100A3000B1FBF0F000F02EFB48B9102C07D20022D9
:100A40002146501E00F022F800206C6070BD01208D
:100A500070BD000008040020140400200A4808B5F6
:100A6000016841F480410160006800F4804000901A
:100A70000548001F016841F080510160006800F0E6
:100A80008050009008BD000044380240F0B40E4B86
:100A90001B680C46C3F30223C3F10705042D00D9DC
:100AA0000425191D072901D2002300E0DB1E0126C1
:100AB00006FA05F1491E214099409E40761E1640D7
:100AC0003143F0BC01F0F2B90CED00E0064900F052
:100AD000070208684FF6FF03184040EA0220034A65
:100AE00010430860704700000CED00E00000FA05BC
:100AF0002DE9F8431748016841F080510160006812
:100B0000154F00F08050012600903E64FFF75EFF15
:100B100005464FF47A78114C05E000BFFFF756FF09
:100B2000401B40450DD86068C003F7D57E64FFF7D1
:100B30004DFF0546464607E0FFF748FF401BB04221
:100B400002D90320BDE8F88360688003F4D5002053
:100B5000F8E700004038024000000E4200700040FC
:100B60002DE9F0470E46050065D0DFF81481D8F86E
:100B70000000F7B200F00F00B04207D288F8007012
:100B8000D8F8000000F00F00B04254D128683D4C66
:100B9000810712D5400703D5206840F4E05020605B
:100BA0002878000703D5206840F460402060206862
:100BB000A96820F0F000084320602878C0072DD0F5
:100BC000304968680839012812D0022813D0032858
:100BD00011D00968890700292DDA216821F0030165
:100BE00001432160FFF7F2FE814641F2883A0EE0B0
:100BF00009688903EFE709688901ECE7FFF7E6FE7A
:100C0000A0EB0901514502D90320BDE8F087206817
:100C1000696800F00C00B0EB810FEFD1D8F800103C
:100C2000404601F00F01B14207D90770006800F09B
:100C30000F00B04201D00120E7E72878400705D532
:100C40002068E96820F4E050084320602878000715
:100C500006D52068296920F4604040EAC100206080
:100C600000F038F82168084AC1F30311515CC8400C
:100C70000649086006480068FFF7D0FE0020C4E778
:100C8000003C0240083802402423000814040020DD
:100C90000C0400200448054900680968044AC1F3AF
:100CA0008221515CC840704714040020083802407B
:100CB000342300080448054900680968044AC1F360
:100CC0004231515CC840704714040020083802408B
:100CD00034230008154810B5006810F00C021448C1
:100CE00013D01449042A0FD0082A0ED10F4C241F08
:100CF0002268236802F03F025B0207D52068C0F338
:100D00008810A0FB010106E0084610BD2168C1F370
:100D10008811A1FB00010023FFF764FA2168C1F3E9
:100D20000141491C4900B0FBF1F010BD08380240F8
:100D30000024F400002D31012DE9F84F040076D095
:100D40002078DFF838A3CE4DC00749D0DAF800107C
:100D50005046C1F38101012908D00068C0F3810029
:100D600002280AD1281D0068400206D528688003A1
:100D700036D560680028E2D032E06068B0F5803F88
:100D800010D0B0F5A02F286810D020F48030286053
:100D9000286820F4802028606068A0B1FFF716FE64
:100DA00006460CE0286840F48030F4E740F48020E8
:100DB0002860F7E7FFF70AFE801B642873D82868CD
:100DC0008003F7D50CE0FFF701FE064605E000BF03
:100DD000FFF7FCFD801B6428F0D828688003F7D457
:100DE0002078DFF8A08280074FF000093ED5DAF8BE
:100DF0000010504611F00C0F09D00068C0F38100BC
:100E000002280BD19D48001F0068400206D42868C4
:100E1000800715D5E068012809D111E0E068B8B174
:100E20000120C8F80000FFF7D1FD064605E020E1EB
:100E3000FFF7CCFD801B0228C0D828688007F7D5B3
:100E40002868216920F0F80040EAC10028600DE020
:100E5000C8F80090FFF7BAFD064604E0FFF7B6FDBC
:100E6000801B02281FD828688007F7D42078000745
:100E700022D5824E844861696C3671B101210160CE
:100E8000FFF7A4FD074604E0FFF7A0FDC01B022802
:100E900009D830688007F7D50EE0C0F80090FFF75A
:100EA00095FD074605E082E0FFF790FDC01B022894
:100EB0007DD830688007F7D42078400768D5DFF800
:100EC000BCB100270BF1380BDBF80000C0000BD4DD
:100ED000DBF8001041F08051CBF80010DBF8000087
:100EE000012700F080500090684E3068C00510D493
:100EF000306840F480703060FFF768FD009005E0D6
:100F0000FFF764FD0099401A022850D83068C005E8
:100F1000F6D55A4EA068683601280FD005283068EB
:100F200010D020F001003060306820F00400306004
:100F3000A068B8B1FFF74AFD00900FE0306840F0BC
:100F40000100F4E740F004003060F7E7FFF73EFDF2
:100F50000099411A41F28830814266D83068800792
:100F6000F4D50EE0FFF732FD009007E0FFF72EFD0D
:100F70000099411A41F28830814256D83068800782
:100F8000F4D42FB1DBF8001021F08051CBF8001021
:100F9000A069D0B3DAF800205146C2F38102022AD8
:100FA0004AD00228484607D0C8F8600000E03CE07C
:100FB000FFF70CFD04463BE04746C8F86000FFF72A
:100FC00005FD064605E000BFFFF700FD801B022877
:100FD0002BD828688001F7D4D4E907010843A16A17
:100FE0002B4A490802EB0141626A41EA8211084337
:100FF00094F82C1040EA01612048001F0160012094
:101000003866FFF7E3FC044605E034E0FFF7DEFC5A
:10101000001B022809D828688001F7D52BE000BF03
:10102000FFF7D4FC001B022802D90320BDE8F88F8B
:1010300028688001F4D41EE00128F7D00868E2692E
:1010400000F48001914214D1226A00F03F019142E4
:101050000FD147F6C071626A0140914209D1A26A7C
:1010600000F44031914204D1E16A00F0706088429E
:1010700001D00120DAE70020D8E70000083802405C
:101080000038024000004742800E47420070004096
:101090000000FFFF10B5401EB0F1807F01D301209A
:1010A00010BD4FF0E02460610F21601700F0FEFEDC
:1010B0000020A06107202061002010BD70B5040051
:1010C00004D094F83900002510B106E0012070BD6D
:1010D00084F83850204600F023F8242084F83900A2
:1010E0002068C16821F40051C160204600F002FE72
:1010F0002068016921F4904101612068416921F073
:101100002A0141612068C16841F40051C160E56372
:10111000202084F8390084F83A00002070BD0000D7
:10112000F0B587B0044614216846FFF793F82148CC
:101130001F4F266800221F49103802230324072569
:10114000BE4215D10E6846F400360E60096801F4FF
:1011500000310591016841F00101016000686946B4
:1011600000F0010005900C20CDE90003124818E0C2
:10117000124FBE421AD10E6846F480260E600968EE
:1011800001F480210591016841F0020101600068CD
:10119000694600F0020005904FF44060CDE900037D
:1011A000074802AE86E83400FFF720FB07B0F0BD29
:1011B0000044004040380240000002400048004027
:1011C000000402402DE9F843044690F83A0099469D
:1011D00016460D46202852D1BDB1B6B194F838005C
:1011E00001284CD0012084F838000027E763222032
:1011F00084F83A002C34FFF7E9FB24F8026B8046B0
:1012000024F80A6B04F8387931E00120BDE8F8834E
:10121000E08D401EE085A0684346B0F5805F4FF04A
:1012200000024FF020012046CDF8009004D000F0DD
:10123000F5FD98B10320E9E700F0F0FD0028F9D1B1
:10124000206900282068406803D0C1B225F8011B3E
:101250000DE0C0F3080125F8021B08E02069002812
:101260002068406801D000F07F0005F8010BE08D98
:101270000028CDD1202084F83A000020C6E70220C3
:10128000C4E72DE9F843044690F839001F46164696
:101290000D46202850D1B5B1AEB194F838000128E0
:1012A0004AD0012084F838004FF00008C4F83C8090
:1012B000212084F83900FFF789FBA6848146E68463
:1012C00084F8388026E00120BDE8F883E08C401ED9
:1012D000E084A0684B46B0F5805F4FF000024FF00D
:1012E00080012046009703D000F098FDE8B90DE09A
:1012F00000F094FDC8B928882168C0F30800486050
:10130000206908B16D1C05E0AD1C03E0216815F8EB
:10131000010B4860E08C0028D8D14B4600224021C8
:101320002046009700F07AFD08B10320CCE720208A
:1013300084F839000020C7E70220C5E7FEE7000077
:1013400010B5024600F037FF516805484160016062
:10135000106880F30888884700BF00BF10BD0000F8
:101360000004002030B587B014216846FEF772FFF4
:101370001A480024016841F080010160016801F011
:1013800080010591016841F040010160016801F0B0
:1013900040010591016841F001010160016801F01F
:1013A00001010591016841F00201016000680C4DE6
:1013B00000F002000590002203212846FFF700FB01
:1013C00003200090012001900220CDE9020469462B
:1013D0002846FFF70BFA07B030BD00003038024056
:1013E000001802400C4810B50A4901604FF4E13181
:1013F0004160002181600C22C160C0E9041281615A
:10140000C161FFF75BFE002803D0BDE81040FEF786
:1014100082BF10BD00440040180402200C4810B5E3
:101420000A4901604FF4E1314160002181600C22E2
:10143000C160C0E904128161C161FFF73FFE00286D
:1014400003D0BDE81040FEF766BF10BD0048004065
:101450005804022092B000208DF82800404800F087
:10146000E5FB404800F0E2FB3F4800F0DFFB3F486F
:1014700000F0DCFB3C4800F0D9FB3D4800F0D6FB17
:10148000374800F0D3FB3BA000F0D0FB3B4F3C4E75
:10149000DFF8F080DFF8F090DFF8F0A04FF0FF35D4
:1014A0004FF0A5343AA000F0C1FB49A000F0BEFB0C
:1014B00057A000F0BBFB66A000F0B8FB74A000F0E2
:1014C000B5FB83A000F0B2FB91A000F0AFFBA0A0A1
:1014D00000F0ACFBAEA000F0A9FBBDA000F0A6FBA5
:1014E000CBA000F0A3FBDAA000F0A0FB38684068B6
:1014F0002B4601220AA92148FFF764FE9DF8280027
:1015000030380A282AD2DFE800F02A0507090B0F35
:1015100014191E25304604E0404602E0484600E02B
:10152000504600F0AFFABDE7D9A000F07FFB30468F
:101530000DE0E3A000F07AFB404608E0ECA000F0EC
:1015400075FB484603E0F6A000F070FB5046FFF73D
:10155000F7FEA7E7FE48C269FEA105E242E22EE2DD
:10156000B0240008CC2300088023000818240008B9
:10157000642400080D0A0D0A00000000580402202F
:101580000000020800000808000012080000180807
:101590000D0A3D3D3D3D3D3D3D3D3D3D3D3D3D3DDE
:1015A0003D3D3D3D3D204D61696E204D656E752090
:1015B0003D3D3D3D3D3D3D3D3D3D3D3D3D3D3D3D5B
:1015C0003D3D3D3D3D3D3D3D3D3D3D3D0D0A0A001E
:1015D0002020446F776E6C6F616420696D61676570
:1015E00020746F20746865204170706C6963617449
:1015F000696F6E2031202D2D2D2D2D2D2D2D2D2D72
:101600002D2D2D2D2D2D2D2D20310D0A0A00000000
:101610002020446F776E6C6F616420696D6167652F
:1016200020746F20746865204170706C6963617408
:10163000696F6E2032202D2D2D2D2D2D2D2D2D2D30
:101640002D2D2D2D2D2D2D2D20320D0A0A000000BF
:101650002020446F776E6C6F616420696D616765EF
:1016600020746F20746865204170706C69636174C8
:10167000696F6E2033202D2D2D2D2D2D2D2D2D2DEF
:101680002D2D2D2D2D2D2D2D20330D0A0A0000007E
:101690002020446F776E6C6F616420696D616765AF
:1016A00020746F20746865204170706C6963617488
:1016B000696F6E2034202D2D2D2D2D2D2D2D2D2DAE
:1016C0002D2D2D2D2D2D2D2D20340D0A0A0000003D
:1016D00020204578656375746520746865204170C5
:1016E000706C69636174696F6E2031202D2D2D2D12
:1016F0002D2D2D2D2D2D2D2D2D2D2D2D2D2D2D2D1A
:101700002D2D2D2D2D2D2D2D20350D0A0A000000FB
:101710002020457865637574652074686520417084
:10172000706C69636174696F6E2032202D2D2D2DD0
:101730002D2D2D2D2D2D2D2D2D2D2D2D2D2D2D2DD9
:101740002D2D2D2D2D2D2D2D20360D0A0A000000BA
:101750002020457865637574652074686520417044
:10176000706C69636174696F6E2033202D2D2D2D8F
:101770002D2D2D2D2D2D2D2D2D2D2D2D2D2D2D2D99
:101780002D2D2D2D2D2D2D2D20370D0A0A00000079
:101790002020457865637574652074686520417004
:1017A000706C69636174696F6E2034202D2D2D2D4E
:1017B0002D2D2D2D2D2D2D2D2D2D2D2D2D2D2D2D59
:1017C0002D2D2D2D2D2D2D2D20380D0A0A00000038
:1017D0002020476574204F7074696F6E20427974C1
:1017E00065202D2D2D2D2D2D2D2D2D2D2D2D2D2DFE
:1017F0002D2D2D2D2D2D2D2D2D2D2D2D2D2D2D2D19
:101800002D2D2D2D2D2D2D2D20390D0A0A000000F6
:1018100020205365742044656661756C74204170A6
:10182000706C69636174696F6E202D2D2D2D2D2DC7
:101830002D2D2D2D2D2D2D2D2D2D2D2D2D2D2D2DD8
:101840002D2D2D2D2D2D2D2D20300D0A0A000000BF
:101850003D3D3D3D3D3D3D3D3D3D3D3D3D3D3D3DB8
:101860003D3D3D3D3D3D3D3D3D3D3D3D3D3D3D3DA8
:101870003D3D3D3D3D3D3D3D3D3D3D3D3D3D3D3D98
:101880003D3D3D3D3D3D3D3D3D3D0D0A0A000000D5
:101890005374617274206170706C696361746F69F4
:1018A0006E20312070726F6772616D20657865639C
:1018B0007574696F6E2E2E2E2E2E2E0D0A0A0000C4
:1018C0005374617274206170706C696361746F69C4
:1018D0006E20322070726F6772616D20657865636B
:1018E0007574696F6E2E2E2E2E2E2E0D0A0A000094
:1018F0005374617274206170706C696361746F6994
:101900006E20332070726F6772616D206578656339
:101910007574696F6E2E2E2E2E2E2E0D0A0A000063
:101920005374617274206170706C696361746F6963
:101930006E20342070726F6772616D206578656308
:101940007574696F6E2E2E2E2E2E2E0D0A0A000033
:10195000980402204572726F72436F6465203D20C7
:101960002523580D0A0A000002A800F08BFA02A8ED
:1019700000F05CF90BA8FEF740FD24A102A80D9A27
:1019800000F080FA02A800F051F925A102A80F9AF0
:1019900000F078FA02A800F049F99DF8442025A14A
:1019A00002A800F06FFA02A800F040F926A102A8F0
:1019B000109A00F067FA02A800F038F972E527489B
:1019C00000F034F92B4601220AA92548FFF7FAFB5B
:1019D0009DF82800312807D0322809D033280DD0AF
:1019E00034280FD01FA0E7E7CDE90046684602E0A3
:1019F000CDE90048684600F087FC53E5CDE9004991
:101A00006846F8E7CDE9004A6846F4E75752505374
:101A10006563746F72203D202523580D0A00000075
:101A20005244504C6576656C203D202523580D0AA4
:101A30000000000055534552436F6E666967203DB4
:101A4000202523580D0A0000424F524C6576656CE4
:101A5000203D202523580D0A0A0000003C230008E1
:101A600058040220496E76616C6964206368617273
:101A70006163746572210D0A00000000FEE7704783
:101A800070477047F0B50546C1B032A000F0CEF8FF
:101A90004EF660234FF4807269463848FFF792FB98
:101AA00008B137A051E030984FF47F4200BA20F0DF
:101AB000FF049DF8C30042F210730443319800BA4A
:101AC00020F0FF069DF8C700064394420BD91F463D
:101AD0002E492A48FFF776FBA4F57F4082B23B46A9
:101AE0002B49264802E0A2B228492448FFF76AFBA6
:101AF00028A16846FEF7B9FB08B12CA025E02146D5
:101B00002248FEF7F3FBB04207D137A000F08EF871
:101B10003948854203D105200FE038A015E03B4845
:101B2000854201D1082008E03948854201D11120C1
:101B300003E03848854202D11420FEF741FCA20898
:101B400012492846FEF76EFC33A000F06FF841B052
:101B5000F0BD000057616974696E6720666F72207E
:101B60007468652066696C6520746F2062652073F7
:101B7000656E74202E2E2E200D0A000058040220BF
:101B800054696D656F75740D0A000000180400201B
:101B9000180301204F4E45542D424A2D54455354AD
:101BA000424F415244322E300000000054686520FC
:101BB00066696C65206973206E6F74207468652097
:101BC0006669726D7761726520636F72726573709A
:101BD0006F6E64696E6720746F2074686973206D1E
:101BE0006F64756C650D0A00435243333220737580
:101BF00063636573730D0A000000020843524333A8
:101C000032206661696C65640D0A000000000808F6
:101C10000000120800001808446F776E6C6F616452
:101C200020737563636573730D0A0000002201E081
:101C3000521C92B2815C0029FAD10146642301480A
:101C4000FFF71FBB58040220FEF7C6BE30B593B0A5
:101C500030216846FEF7FEFA14210CA8FEF7FAFAC6
:101C60001B480025016841F080510160006800F0C8
:101C7000805011901748016841F4404101600068AC
:101C8000022400F4404011900120009000040190D3
:101C90008001CDE90640142008904FF4B470CDE9DE
:101CA000090404200B906846FFF746F8FEF720FF72
:101CB0000CA90F2081E831004FF4A0500F90E002F2
:101CC000109005210CA8FEF74BFF13B030BD0000AB
:101CD00040380240007000400548016841F470013E
:101CE000016003494FF000608039086070470000D0
:101CF00088ED00E02DE9F041044600680169E268E2
:101D000021F44051114301612169A068E26908434F
:101D10006169114308432168CA6849F20C639A4318
:101D20000243CA6020684169A26921F440711143ED
:101D30004161E069192764253226B0F5004F354A24
:101D4000354920684FF0000806D0884201D0904203
:101D500036D1FEF7AFFF35E0884201D0904202D184
:101D6000FEF7A8FF01E0FEF795FF61684A18A0FBA7
:101D7000070148EB0803FEF735FA0146B0FBF5F022
:101D80000201B1FBF5F06FF01803584301EB80003E
:101D900006EBC000B0FBF5F000F0F80002EB4002EB
:101DA000B1FBF5F0584301EB800006EBC000B0FB3F
:101DB000F5F000F00700216810448860BDE8F0816C
:101DC000FEF768FF61688B0F8A00A0FB0701FEF732
:101DD00009FA0146B0FBF5F06FF01802504301EB31
:101DE000800006EB0010B0FBF5F000F0F002B1FB54
:101DF000F5F002EB0012B1FBF5F06FF01803584359
:101E000001EB800006EB0010B0FBF5F000F00F00D6
:101E1000D1E7000000140140001001402DE9F0411D
:101E2000984617460E460446069D1DE0681C1BD0CA
:101E30002DB1FEF7CBFDA0EB0800A84214D9206815
:101E4000C16821F4D071C1602068416921F00101AD
:101E50004161202084F8390084F83A00002084F899
:101E600038000320BDE8F0812068006836EA0000F1
:101E700004D00020B842D9D00020F3E70120F9E7D0
:101E8000FEE700000FB4084B10B504A902AA03989E
:101E900000F02CF8044602A9002000F087F9204643
:101EA00010BC5DF814FB0000AD2100080907090E05
:101EB000002804DB00F1E02080F80014704700F0F7
:101EC0000F0000F1E02080F8141D704702E008C800
:101ED000121F08C1002AFAD170477047002001E0A4
:101EE00001C1121F002AFBD1704700002DE9FF4FEE
:101EF0008DB09B460F460446002606E025280BD0F1
:101F00005A460F999047641C761C20780028F5D11A
:101F100011B03046BDE8F08F0025A846012298494F
:101F200000E0054314F8013F203B02FA03F00842A9
:101F3000F7D120782E2817D114F8010F45F00405A9
:101F40002A280ED06FF02F022078A0F13001092945
:101F50000AD808EB880102EB410100EB0108641C80
:101F6000F2E757F8048B641C20786C280DD004DC51
:101F70004C2812D06A2811D104E074280DD07A2898
:101F80000CD10AE045F4001507E0617845F48015AE
:101F9000814202D1641C05F58015641C2278692AEF
:101FA00045D008DC002AB3D0582A69D0632A10D063
:101FB000642A08D13BE0702A67D0732A13D0752AAF
:101FC0005CD0782A5CD010465A460F999047761C10
:101FD000D3E017F8040B8DF8000000208DF8010005
:101FE000E946012003E057F8049B4FF0FF306907F2
:101FF0004FF0000501D40AE06D1C45450DDA85421D
:10200000FADB19F805100029F6D106E06D1C8542AF
:10201000FCDB19F805100029F8D12E4404E019F86A
:10202000010B5A460F9990476D1EF8D2A5E00A2081
:102030000021CDE90801C5F3025002280DD001CFDF
:10204000C117031E71F100030DDA4FF0000CD0EB45
:102050000C006CEB01012D2308E0FF1D27F00707A2
:10206000F7E80201EDE72B0504D52B238DF8283086
:1020700001233BE0EB0739D02023F7E70A2000E0FB
:1020800010200021CDE9080107E01020002145F0D3
:102090000405CDE908014FF00808C5F302500228F5
:1020A0000FD001CF00214FF0000A2B071FD5702A57
:1020B0000DD0DDE908C38CF0100C5CEA030C0CD0E9
:1020C00015E0FF1D27F00707F7E80201EBE74022C4
:1020D0008DF828204FF0010A0BE050EA010306D0EA
:1020E00030238DF828308DF8292002239A46582A6B
:1020F00004D024A20DF120090B9209E026A2F9E7F1
:10210000DDE90823FEF76EF80B9B9B5C09F8013DA7
:1021100050EA0102F4D1ADEB0900203008906807C5
:1021200001D44FF001080899884502DDA8EB0100B1
:1021300000E000208046002506E00AA85A46405DDF
:102140000F9990476D1C761C5545F6DB04E0302056
:102150005A460F999047761CB8F10001A8F1010882
:10216000F5DC05E019F8010B5A460F999047761CEB
:102170000899481E08900029F4DC641CC5E600009C
:10218000092801003031323334353637383961624D
:102190006364656600000000303132333435363711
:1021A0003839414243444546000000000A68531C48
:1021B0000B60107070474FF0E02000218161042116
:1021C00001617047024AD2E90012C0E9001270476B
:1021D000000001080EB50324FEF706FCFFF736FDEC
:1021E000FFF7C0F8FFF7FEF8FFF718F92648016877
:1021F0000A6822F020020A600068406823A0FFF706
:1022000015FD4FF47A750FE02AA0FFF70FFD2B465E
:10221000012202A91C48FEF7D5FF032804D026A0FE
:10222000FFF704FDFFF716F9641EEDD222A0FFF7B9
:10223000FDFC6846FFF7C6FF0098B0F1A53F05D04A
:102240001EA0FFF7F3FCFFF705F918E022A0FFF747
:10225000EDFC28490198401809D0B0F5C02F08D0EE
:10226000B0F5801F0CD0B0F5B01F05D10AE022A058
:1022700000E022A0FFF7DAFC0198FFF761F8FEE723
:102280001FA0F7E71FA0F5E7580402200D0A5072BF
:1022900065737320616E79206B657920746F20659A
:1022A0006E74657220636F6D6D616E64206C696E13
:1022B000652000002E0000000D0A00004E656564D8
:1022C0002044656661756C74204170706C6963614F
:1022D00074696F6E0D0A0000426F6F74696E67203B
:1022E00066726F6D204170706C69636174696F6EA6
:1022F000200000000000FEF7310D0A00320D0A0038
:10230000330D0A00340D0A0010B504460420FEF710
:1023100057F82146BDE8104002220148FEF782B876
:10232000000001080000000000000000010203049A
:10233000060708090000000001020304506C6561F3
:10234000736520656E74657220746865206E756DA6
:10235000626572206F6620646566616C75742061C9
:1023600070706C69636174696F6E28312F322F331E
:102370002F34292E2E2E2E2E2E0D0A0A000000009C
:102380000D0A3D2020202020202020202020202059
:10239000202020202020202020202020202020203D
:1023A000202020202020202020202020202020202D
:1023B000202020202020202020202020202020201D
:1023C000202020202020203D000000000D0A3D207C
:1023D00020202020202020202020202020284329C9
:1023E00020434F5059524947485420323032302010
:1023F0004F2D4E657420546563686E6F6C6F67690E
:102400006573202020202020202020202020202034
:102410002020203D000000000D0A3D20202020202B
:10242000202020205465737420426F617264205014
:10243000726F6772616D6D696E67204170706C6953
:10244000636174696F6E20202856657273696F6EC0
:1024500020312E302E322920202020202020203D07
:10246000000000000D0A3D202020202020202020F8
:10247000202020202020202020202020202020205C
:10248000202020202020202020202020202020204C
:10249000202020202020204279204265696A696E30
:1024A00067205226442020202020203D00000000EC
:1024B0000D0A3D3D3D3D3D3D3D3D3D3D3D3D3D3DAF
:1024C0003D3D3D3D3D3D3D3D3D3D3D3D3D3D3D3D3C
:1024D0003D3D3D3D3D3D3D3D3D3D3D3D3D3D3D3D2C
:1024E0003D3D3D3D3D3D3D3D3D3D3D3D3D3D3D3D1C
:1024F0003D3D3D3D3D3D3D3D000000001C250008AB
:102500000000002018040000CC1E00083429000838
:1025100018040020A0040200DC1E000800000000D7
:10252000963007772C610EEEBA51099919C46D07E0
:102530008FF46A7035A563E9A395649E3288DB0E3B
:10254000A4B8DC791EE9D5E088D9D2972B4CB6091E
:10255000BD7CB17E072DB8E7911DBF906410B71DFB
:10256000F220B06A4871B9F3DE41BE847DD4DA1A34
:10257000EBE4DD6D51B5D4F4C785D38356986C1365
:10258000C0A86B647AF962FDECC9658A4F5C0114DE
:10259000D96C0663633D0FFAF50D088DC8206E3BBC
:1025A0005E10694CE44160D5727167A2D1E4033CCE
:1025B00047D4044BFD850DD26BB50AA5FAA8B535F5
:1025C0006C98B242D6C9BBDB40F9BCACE36CD832E4
:1025D000755CDF45CF0DD6DC593DD1ABAC30D9268B
:1025E0003A00DE518051D7C81661D0BFB5F4B4218E
:1025F00023C4B3569995BACF0FA5BDB89EB802288B
:102600000888055FB2D90CC624E90BB1877C6F2F0F
:10261000114C6858AB1D61C13D2D66B69041DC760A
:102620000671DB01BC20D2982A10D5EF8985B171E3
:102630001FB5B606A5E4BF9F33D4B8E8A2C9077892
:1026400034F9000F8EA8099618980EE1BB0D6A7F29
:102650002D3D6D08976C6491015C63E6F4516B6BE2
:1026600062616C1CD83065854E0062F2ED95066C97
:102670007BA5011BC1F4088257C40FF5C6D9B0650C
:1026800050E9B712EAB8BE8B7C88B9FCDF1DDD6269
:10269000492DDA15F37CD38C654CD4FB5861B24DCF
:1026A000CE51B53A7400BCA3E230BBD441A5DF4A99
:1026B000D795D83D6DC4D1A4FBF4D6D36AE969435C
:1026C000FCD96E34468867ADD0B860DA732D044407
:1026D000E51D03335F4C0AAAC97C0DDD3C71055032
:1026E000AA41022710100BBE86200CC925B56857D9
:1026F000B3856F2009D466B99FE461CE0EF9DE5E22
:1027000098C9D9292298D0B0B4A8D7C7173DB359D2
:10271000810DB42E3B5CBDB7AD6CBAC02083B8ED63
:10272000B6B3BF9A0CE2B6039AD2B1743947D5EA70
:10273000AF77D29D1526DB048316DC73120B63E39F
:10274000843B64943E6A6D0DA85A6A7A0BCF0EE4FE
:102750009DFF099327AE000AB19E077D44930FF0B9
:10276000D2A3088768F2011EFEC206695D5762F7B0
:10277000CB67658071366C19E7066B6E761BD4FEED
:10278000E02BD3895A7ADA10CC4ADD676FDFB9F9CA
:10279000F9EFBE8E43BEB717D58EB060E8A3D6D68C
:1027A0007E93D1A1C4C2D83852F2DF4FF167BBD1BA
:1027B0006757BCA6DD06B53F4B36B248DA2B0DD8BD
:1027C0004C1B0AAFF64A0336607A0441C3EF60DF60
:1027D00055DF67A8EF8E6E3179BE69468CB361CB49
:1027E0001A8366BCA0D26F2536E2685295770CCC6E
:1027F00003470BBBB91602222F260555BE3BBAC5AF
:10280000280BBDB2925AB42B046AB35CA7FFD7C29F
:1028100031CFD0B58B9ED92C1DAEDE5BB0C2649B90
:1028200026F263EC9CA36A750A936D02A906099CC3
:102830003F360EEB8567077213570005824ABF9536
:10284000147AB8E2AE2BB17B381BB60C9B8ED292B9
:102850000DBED5E5B7EFDC7C21DFDB0BD4D2D38610
:1028600042E2D4F1F8B3DD686E83DA1FCD16BE8183
:102870005B26B9F6E177B06F7747B718E65A088854
:10288000706A0FFFCA3B06665C0B0111FF9E658FE5
:1028900069AE62F8D3FF6B6145CF6C1678E20AA08F
:1028A000EED20DD75483044EC2B30339612667A715
:1028B000F71660D04D476949DB776E3E4A6AD1AE64
:1028C000DC5AD6D9660BDF40F03BD83753AEBCA9F3
:1028D000C59EBBDE7FCFB247E9FFB5301CF2BDBD60
:1028E0008AC2BACA3093B353A6A3B4240536D0BA69
:1028F0009306D7CD2957DE54BF67D9232E7A66B306
:10290000B84A61C4021B685D942B6F2A37BE0BB4B2
:10291000A18E0CC31BDF055A8DEF022D00000000B5
:102920000000000001000000100000000000000096
:042930000024F4008B
:04000005080001AD41
:00000001FF
